:020000040000fa
:080000000002040000000000f2
:020000040000fa
:1000080090020000900200009002000090020000a0
:100018009002000090020000900200009002000090
:100028009002000090020000900200009002000080
:100038009002000090020000900200009002000070
:020000040000fa
:020000040000fa
:100400000f3221000e7f24000e0188000000000042
:100410000c000700606825000100200011000700a3
:10042000000020000000e000020032000000020096
:100430000000000068310200000000000040da0007
:100440000000fe004440a90020e020000000e00081
:100450000300320000002000a00188004440a800f2
:100460000000060091018800800078000000eb0089
:1004700015003700e280400032a0b4009101ba00bc
:10048000e280400032a0b4009102ba00e280400055
:1004900032a0b4000002eb00472bde00f507b200eb
:1004a000602ce10004003a000059eb008301e900f0
:1004b000fdff3e00040037006128e100010032002a
:1004c0000082eb00040007001101ba000200e00006
:1004d000e8ff3a00000006003159ba008301e90044
:1004e0000c0032002159ba008301e90008003200f3
:1004f0000400e00003003a00e280400032a0b400b3
:10050000f5ff370011d9ba008301e900faff3a007c
:100510008100e800e180400032a0b4000000060045
:100520000040da000000fe00839f68000100e00048
:1005300002003d0060001000e08018000300e000b1
:1005400002003d0060011100e08119000500070074
:100550004f00e00002003b0060001000e080180047
:10056000000006006022b800060220000000d00053
:100570008180d2000482d2008582d2000000a000d7
:100580000202520083825a0003003100020242003c
:1005900083824a000000a1000603e900f3ff3a004d
:1005a00000000600efff07000400be000000060088
:1005b0008001780002003700b1597800040178000a
:1005c0000202e900e00f5100fbff3a0000000600c4
:1005d0000102780080017800808f5000080031000f
:1005e00082804000808f500005003600820140006c
:1005f000c16178000201e900fdff3a000000060039
:10060000e00f510003003200b45978000201e90004
:10061000fbff3700000006000001780001003700f2
:100620000201e8008041eb0092cf1100fcff3a008c
:10063000b141780003597800e0cf5100fcff3a0047
:10064000000006008001780031417800825978006e
:10065000e04f5100fcff3a000000060080007800e7
:100660000041eb00b14f1100fdff3a000080ea00ad
:1006700000804000000006000c00fa00889fbe00c9
:1006800000047800f0ff2700d0bf9f008004eb003b
:1006900099bf9f0088bf9f00a8bf9f00200c20002b
:1006a000b0bf9f0078815700cfb09700708057008f
:1006b000070007000fb89700094878008fb8970027
:1006c000088050004f04be000080fa0000000600c1
:1006d0000f04b000889fbe008a9fbe008c9fbe00a2
:1006e0008e1f7800c0b79f00d1af9f00a2b79f00b8
:1006f0000000eb00c0033700dfa897008100e8008e
:10070000d1af9f0052c2b30082cf520006003a0020
:100710000007eb0006c3b30003c2b300b1c2b300cd
:100720005fa8970014003700cfb197003301900005
:100730000204b20005003200030278009401780040
:1007400085497800030ae800070037000501fb002f
:10075000cfb0970002007800b403070000017800d2
:10076000e10f4100a5033200bfb297008502e80007
:10077000b5b79f00a103370090427800d7c2b300fd
:1007800087cf52000b0032000001e80087cf5200f3
:1007900005003c0083cf52000900320081cf520097
:1007a0000e003a000800370086cf52000b003a00d6
:1007b000070037000e30a0000000e800eeff370011
:1007c0000e00a000030037000e10a000010037004b
:1007d0000e20a00002007800e7ff3700d0af9f0096
:1007e000e2016700010032000e00a100e80167008d
:1007f000010032000e20a1008501fb000303b100bf
:10080000e98f51000d003e00000020005fa9970015
:100810006a00b9000003b1009200fb000100400033
:10082000d200fb000103b100e98f5000f8ff360051
:10083000c0af9f00d2af9f000c0037008004eb00d8
:10084000c9af9f00a3c2b30083cf520007003a0094
:100850002fb59700ca057800aab79f00cbaf9f00bd
:100860005fa897000000e800d0af9f008000eb0079
:10087000e1af9f00e3c2b3005fa9970092cf1100e0
:100880001e003a000ee0a000e4c151000201e800a1
:10089000d2af9f0012427800834f52000d003a0001
:1008a000afb2970045037800a5b79f00e6af9f0061
:1008b000820378008703e800070178001000370002
:1008c0006a00b9000003b100020040008301e800a3
:1008d000020037006fa89700dfa997001301fb0003
:1008e00001fd2f0082804000e98f5000f4ff3600a8
:1008f000e0af9f0003017800010037005fa9970077
:1009000032427800c4779f00c8c6b300884f5200b7
:1009100023003200d2af9f000f003c0035c6b30069
:10092000854f5200a700320004003c00e04f520007
:100930003703320083c5b3000f00370043c6b3004e
:10094000834f5200c4003200e5c14100834f520082
:10095000ba003a00c000370035c7b300854f5200d7
:100960001a00320007003c00f3c6b300834f520068
:10097000110032008341e800834f5200af003a007b
:100980000f00370053c7b300834f5200b10032004d
:10099000e3c14100834f5200a8003a00090037002c
:1009a000700067000100280001003a0001012000ea
:1009b00001077700d2ff37000e60a000a6003700c5
:1009c0000e50a0000e70a000a3003700afb4970037
:1009d000c9027800a9b79f00d5b79f00e08f5200e9
:1009e00002003a008b2e2100dbb79f000000eb00d5
:1009f000e0b79f005fb09700efb097007fb197001e
:100a00008fb99700010037008500e8008102780067
:100a100061427800e04f5200fbff3a00d0b79f00e0
:100a2000e1b79f00f2b79f0083bf9f00efaa970036
:100a3000e08f5200050032006fb39700868f52009e
:100a40000200310085037800e7b79f00efb29700fe
:100a50000006eb004fac9700850f540001003600f4
:100a600005065400680767002f003a008c017800e3
:100a700008c2b300cfb69700100037003d009000c9
:100a80000004b200040032001d007800084878001d
:100a9000800ee800050037008d007800000220007d
:100aa000e2020700e10f400003003200bfb49700ec
:100ab0008904e800b9b79f008c0178000c06e900b2
:100ac000e08f5100edff3a00170037003d00900025
:100ad0000004b200090032009d017800080178008e
:100ae0003240780080497800830ee80002047800e4
:100af000e04f500008003a0010003700080178006d
:100b00003200fb00020478008d007800c702070065
:100b1000e10f4000090032003fb097000000e800fc
:100b2000b0b79f00050037005fb49700efb497009f
:100b30007fb597008fbd9700cfb69700090078006a
:100b40008004e900e00f5000e0ff3a00d8b79f00b2
:100b5000e9b79f00fab79f008bbf9f00e00f5700d7
:100b6000a602320011003700380090000004b200e5
:100b700004003200180078000d487800000ce800ee
:100b8000050037008800780000022000a702070057
:100b9000e10f400003003200bfb297008502e80079
:100ba000b5b79f000e067800020037000dc2b300f3
:100bb0004fb497000c07e900e00f5600eaff3a0037
:100bc0008e0237002fb3970046047800a6b79f0027
:100bd000cfc4de00090578008a0578000802be004f
:100be0000a03be004822de004828dd00040270002f
:100bf000c4779f007006670009003200e04f520082
:100c000007003200e14f420005003200d4779f0018
:100c1000e8779f0021002000e1b79f000300370024
:100c2000d8779f0012002000e2b79f0053fb2f00ef
:100c300083814700d3b79f007cff370044fb2f0020
:100c400004824700d4b79f0015002000e5b79f003d
:100c500076ff37000e0cb3000e007800000cb200d7
:100c60003b003a00e00f570005003d002fb0970011
:100c70004005be004004be00a0b79f000f00370033
:100c800070006700120032002fb297004401be00ce
:100c9000a4b79f00e29f9f00f39f9f001400900065
:100ca0004f80de0080a79f0090a79f006f9c970059
:100cb000ff9c97000fa597009fa59700d8b79f00ae
:100cc000e9b79f00fab79f008bbf9f000b0037006a
:100cd000afb4970049027800a9b79f0004007800dc
:100ce000cf80de000101780082017800d0b79f003c
:100cf000e1b79f00f2b79f0083bf9f005fb29700ec
:100d0000efb297007fb397008fbb9700e00f5200c0
:100d1000e08f5a00e00f5b00e08f5b0032003d0087
:100d20003e00b3006022b8006033b8005fb49700a3
:100d3000efb497007fb597008fbd9700080452006d
:100d400089845a000a055b008b855b00220037000e
:100d5000e00f570005003d002fb297004401be0090
:100d60004400be00a4b79f000f003700700067006a
:100d7000120032002fb497004803be00a8b79f00ae
:100d8000e6a79f00f7a79f008004eb0089af9f00b4
:100d90000005eb009aaf9f006fa09700ffa097009f
:100da0000fa997009fa99700d0b79f00e1b79f00b8
:100db000f2b79f0083bf9f000b003700afb09700d2
:100dc00041027800a1b79f000404780009002000c8
:100dd0000a0020000b002000d8b79f00e9b79f0051
:100de000fab79f008bbf9f00efac9700e08f5400d5
:100df0000d003a001a002000eaaf9f005fb0970094
:100e0000efb097007fb197008fb99700e00f5000c7
:100e1000e08f5800e00f5900e08f590002003200c7
:100e20008000eb00e1af9f000e017800020cb200e1
:100e3000b2af9f0005042000850f51003f00320033
:100e400003003c00e00f510008003200560037005c
:100e500004082000bfa99700848f51001b003200b6
:100e6000040c2000848f51004f003a0013c0b300df
:100e7000c3779f0061222100100037000200fb00b1
:100e80004300dd00008040003002be002003be00b1
:100e90005fb49700efb497007fb597008fbd9700c0
:100ea0000440e10005c8e10006d0e10007d8e100f8
:100eb0003d0039000241e800c2779f004f71970062
:100ec000f44f5100edff3a003700370013c0b30074
:100ed000c3779f0004012000050020006033b800a4
:100ee000120037005fb49700efb497007fb597000a
:100ef0008fbd97000440e10005c8e10006d0e10085
:100f000007d8e10028003900490020000402d00081
:100f10008582d2000683d2008783d2008904e9004b
:100f2000faff3a000040e800c0779f004f7097003a
:100f3000f04f5000ebff3a001b00370013c0b30026
:100f4000c3779f0084002000050020006033b800b4
:100f5000120037005fb49700efb497007fb5970099
:100f60008fbd97000440e10005c8e10006d0e10014
:100f700007d8e1000c003900390020000402d0003d
:100f80008582d2000683d2008783d2008904e900db
:100f9000faff3a000040e800c0779f004f709700ca
:100fa000f54f5000ebff3a004f7597008a02fb00a7
:100fb000efad97008b8f520002003d00cb779f0072
:100fc000040037006fa89700850f500001003d0016
:100fd000e5af9f00cfa89700e08f500004003200db
:100fe00063026700020032008100e900c1af9f0088
:100ff0000400240004026700090032004fa9970092
:10100000efa99700830f5100030034000301510042
:10101000c2af9f00020037000002eb00c4af9f0088
:101020004f7397008602fb008003eb00a7af9f0081
:101030004fac9700850f5400020034008502540025
:10104000a5af9f00640267004c003200e202670017
:1010500061036700e08f52001b003200cfb497009d
:10106000390290000404b2000900320099037800ac
:10107000b5c2b300e00f53000100320085c2e800a2
:10108000854b78004fb59700070de8000a00370040
:10109000d5022000e00f530001003a008582e900ec
:1010a000cfb09700050078006001070000027800cb
:1010b000e10f420018003200bfb597008b05e80031
:1010c000bbb79f0014003700e00f5300120032003e
:1010d0004fb09700300290000404b20005003200c7
:1010e0009002780003c2b300834a78000508e80044
:1010f00006003700cfb09700000220004b01070028
:1011000000027800e10f420003003200bfb09700f8
:101110008100e800b1b79f002fa99700e00f5100b0
:101120001101320008c3b300820678004fb6970061
:101130003c0090000004b200040032001c00780063
:1011400008487800000ee800050037008c007800a1
:101150000003200035010700e10f400003003200ca
:10116000bfb197008301e800b3b79f008d06e90087
:10117000efff3a00adaf9f00fb0037002faa9700aa
:10118000e00f5200170032006802670015003a00b5
:1011900008c2b300afae97004fb697003c00900076
:1011a0000004b200040032001c00780008487800f7
:1011b000000ee800050037008c00780000022000d7
:1011c0001a010700e10f400003003200bfb2970090
:1011d0008502e800b5b79f008d06e900efff3a00f1
:1011e000adaf9f00e202670061036700e08f52002d
:1011f0001c003200cfb39700370290000404b20005
:101200000a0032000704780098037800b5c2b300e2
:10121000e00f53000100320085c2e800854b7800e2
:10122000cfb49700870ce8000a003700d5022000f1
:10123000e00f530001003a008582e900cfb097002b
:1012400005007800f900070000027800e10f420075
:10125000c50032003fb597000a05e800bab79f0005
:10126000c1003700e00f5300bf003200cfb5970038
:101270003b0290000404b200050032009b0278009b
:1012800003c2b300834a7800850de80006003700ea
:10129000cfb0970000022000e400070000027800b1
:1012a000e10f4200b00032003fb097000000e800bc
:1012b000b0b79f00ac0037000e07e9000004200023
:1012c000bfa89700808f50008200320003003c00ce
:1012d000e08f5000080032008e0037000008200028
:1012e0003fa99700800f510065003200000c2000dc
:1012f000800f510087003a004370dd00cfa99700ae
:10130000e08f51002a003d006422210000004200cd
:101310003004be002005be00e8af9f00f9af9f007b
:101320008ab79f009bb79f000802be000a03be0059
:101330005fb09700efb097007fb197008fb997002b
:1013400004020700c0779f000004fb00cfc4de004a
:10135000090578008a0578006faa9700ffaa970010
:101360000fb397009fb397000800be000a01be00ac
:10137000640207000203be000002be005fb09700d7
:10138000efb097007fb197008fb99700040050002d
:10139000858058000601590087815900d0b79f0009
:1013a000e1b79f00f2b79f0083bf9f003000370076
:1013b000df989700e08f50001f0032005fb6970063
:1013c000efb6970062222100000041003004be0009
:1013d0002005be000801be000c00be0061fc070035
:1013e000c0779f000000fb00cf80de000801be0038
:1013f000440107000002560081825e00a4a79f00fe
:10140000b5a79f008002eb00c5a79f000003eb007b
:10141000d6a79f002fa49700bfa497004fa59700c1
:10142000dfa59700d8b79f00e9b79f00fab79f00e4
:101430008bbf9f000e0037006922210069017800f0
:101440005fb59700811f7800110009000285d80060
:10145000cf007800a2002000811f78001100090051
:101460000280d80001007800cf007800c0779f008c
:10147000cf7597000b43b000cb779f002500370056
:10148000642c21004f989700e00f500001003a00b3
:10149000742d21004270dd005fb49700efb4970017
:1014a0007fb597008fbd9700800278008502e90024
:1014b000050033008b05d1000a85d3008984d30051
:1014c0000884d300f9ff37006f006400644078009f
:1014d0000f0037006370b9005fb49700efb4970056
:1014e0007fb597008fbd9700000278000402e900e5
:1014f000050033008b05d1000a85d3008984d30011
:101500000884d300f9ff3700674064000043b0004f
:10151000c0779f00cfb29700350090000004b20062
:1015200007003200150178004f70970000497800dd
:10153000820ae800e04f500007003a00120037002e
:101540004f7397000600fb00cfb0970037000700ed
:10155000e10f40000c003200bfb397008703e800a2
:10156000b7b79f000800370070046700d89f9f003e
:101570008e0478000902b200c99f9f000e05780012
:10158000caaf9f006faf9700e00f57004aff3a00c5
:101590004faf97006801670018003200afad9700a9
:1015a000e08f55001500340008c2b3008b067800a8
:1015b0003fb797004fb697003c0090000004b20080
:1015c000040032001c00780008487800000ee80093
:1015d000050037008c00780000022000130007008f
:1015e000e10f4000010032000e07e8008d06e9001f
:1015f000f1ff3a000e007800b0b79f00dfa8970017
:1016000091427800c5779f00e0cf52003afc3a0043
:101610003fb097004f0778004f06be004f05be0051
:101620004f04be000f04b10000000600889fbe00fa
:1016300001047800b8009000628160008084eb00b3
:101640003c003200810178000320b20018019000b4
:1016500002003a00e00f510036003a000190a0006d
:101660003104980080047800f90fb200e00f5100b7
:1016700002003a0028009000000c7800ea8f540025
:1016800006003a00010078000008b20003003a00aa
:1016900088007800d0002000e4ff070018009000c8
:1016a000d8009000810f50000b0032000000e800cd
:1016b000100498001800780009487800000ce80031
:1016c00010c0b3006131210080487800ea8f5400d7
:1016d00018003a00050037008800780009407800bb
:1016e00017000700800478001200370038009000cf
:1016f0000010b2000f00320018019000a800900006
:10170000480090005000070098009000810f5000a2
:1017100004003200380090000003b3003004980049
:101720008084eb000000eb0010049800280090007b
:10173000000c7800090078004f04be00000006008d
:101740000200fa00889fbe00a0ff9f0001047800fd
:1017500038009000800078000104b20033003a00a5
:10176000e200600005003a000003b3003004980076
:10177000110498000080eb002e003700d804900080
:10178000e08f540006003a0012002000e680570067
:10179000480090002c00070019049800230037002f
:1017a000a8009000e08f500008003a00913121001d
:1017b00021049800010c78002100200051049800b9
:1017c000110498000030a000300498001801900027
:1017d000a8009000480090001b000700280090001f
:1017e0008080eb0011049800aff897000148780062
:1017f000000ce8002ff89700ea4f50000b003a0069
:10180000380090000010b20008003200180190006b
:10181000a8009000480090000b0007000000eb00bb
:1018200010049800a8009000010c7800aff8970011
:101830000100fb004f04be000080fa00000006001b
:1018400000c0da00000006000a00fa00e20f5000b3
:1018500021003e00f0988000e10f500006003200a9
:101860008523200044232000232320000023200080
:10187000e08f520004003a0085222000442220001c
:10188000232220000022200006002800900363008d
:1018900002003a00870a7800100873000040200018
:1018a0001300600001003a0013a0a00002007800bd
:1018b00006003700930278000510b200fdff3200e9
:1018c000b102fb00050a78000000e900e00f5000bb
:1018d000f8ff3a000800370033002000b3bf9f0034
:1018e000c0bf9f00d1bf9f00e2bf9f006a8057002a
:1018f000d3ff07006fb99700020078000080fa005c
:1019000000000600020ab900001bb9000200b8007e
:10191000810042008100430000000600889fbe0055
:101920008a9fbe003004be002005be0004044400af
:1019300085844c0006054d0087854d000898be0043
:101940000a90be000440e10005c8e10006d0e100b5
:1019500007d8e10002003100680040001008e800ec
:101960004f05be004f04be0000000600889fbe0069
:101970008a9fbe008c1f7800000678003c04be00e1
:101980002c05be000400540085805c0006015d004b
:1019900087815d00009ebe00029ebe0010002000f8
:1019a0000440e10005c8e10006d0e10007d8e100ed
:1019b000010039000000eb001c0e10004f067800fb
:1019c0004f05be004f04be00000006001200fa00e2
:1019d000889fbe008a9fbe008c9fbe000205be008d
:1019e0000004be00e4b79f00f5b79f0086bf9f00cc
:1019f00097bf9f000000eb00d0b79f00c0b79f00cb
:101a0000b0b79f00a0b79f0090b79f000006780076
:101a1000fd032000dfb197004fb097000381410024
:101a2000bfb09700e08f510004003d00290007007f
:101a30007e805700b9ff070003003700250007002c
:101a40007e805700c9ff0700dfb09700e08f50008d
:101a50000700350014002000050020006033b800a6
:101a600008047200898472000a0573008b85730074
:101a70000c06e8008d0f5600e6ff3400e08f5000a2
:101a800006003d006fb29700ffb297000fbb9700b2
:101a90009fbb97007e805700a0ff07005fa89700bc
:101aa000e00f500004003a001fb49700afb4970055
:101ab0003fb59700cfb597000800be000a01be00f1
:101ac0004f06be004f05be004f04be000080fa0066
:101ad00000000600cf01de0002817100b2b79f0056
:101ae0004f09de000000400000007100a0b79f0019
:101af0000fb097004f01de0081804000810071002f
:101b000091b79f007faa9700cf20de000000400021
:101b10000080700080b79f000800be000a01be0070
:101b20004f18de000402420000027200f4af9f0072
:101b30000804440089844c000a054d008b854d0043
:101b40004fb29700dfb297006fb39700ffb39700d3
:101b500000000600881f780018002000881f780009
:101b60009aff07008f87e9004f0478000000060005
:101b7000801feb0095ff07008f87e900000006003b
:101b8000889fbe008a9fbe008c1f7800e00f500027
:101b9000e08f5800e00f5900e08f59000f003d0022
:101ba0006044b8006055b8000000540081805c00bb
:101bb00002015d0083815d001c0020000820e1001f
:101bc00009a8e1000ab0e1000bb8e1000d003d00fa
:101bd000190007000006eb000a0037000006eb00c2
:101be000e00f5200e08f5a00e00f5b00e08f5b00d7
:101bf00004003d006044b8006055b8000e000700c6
:101c00001c002000d3ff0700e00f56000600320042
:101c10006022b8006033b8000000520081805a0092
:101c200002015b0083815b004f0678004f05be0018
:101c30004f04be00000006000402540085825c00d0
:101c400006035d0087835d0000000600889fbe00dc
:101c50008a9fbe008c1f7800e00f5000e08f580074
:101c6000e00f5900e08f59000d003d006044b800be
:101c70006055b8000000540081805c0002015d00e6
:101c800083815d001c0020000820e10009a8e1001c
:101c90000ab0e1000bb8e1000d003d00080037007c
:101ca0000006eb00e00f5200e08f5a00e00f5b00ef
:101cb000e08f5b0006003d006044b8006055b8004e
:101cc0000402540085825c0006035d0087835d008a
:101cd000a7ff0700e00f5600060032006022b800a0
:101ce0006033b8000000520081805a0002015b009e
:101cf00083815b004f0678004f05be004f04be0095
:101d000000000600889fbe008a9fbe008c1f7800de
:101d10000006eb00e00f5000e08f5800e00f590084
:101d2000e08f590007003d006044b8006055b800de
:101d30000000540081805c0002015d0083815d0031
:101d40001c002000e00f5200e08f5a00e00f5b0003
:101d5000e08f5b0007003d006044b8006055b800ac
:101d60000402540085825c0006035d0087835d00e9
:101d70000c00a2000c000700e00f56000600320025
:101d80006022b8006033b8000000520081805a0021
:101d900002015b0083815b004f0678004f05be00a7
:101da0004f04be0000000600889fbe008a9fbe0050
:101db0008c9fbe000404b8000506b80089044600e4
:101dc00060854e000606b8000a054600e0854e0014
:101dd0000706b8008b054600040eb80089044600cb
:101de0000a854e00e0854d00050eb8000a05460044
:101df0008b854e00060eb8008b0546000416b80011
:101e00000a0546008b854e000516b8008b05460076
:101e1000041eb8008b0546000800be000a01be0083
:101e20004f06be004f05be004f04be000000060076
:020000040000fa
:101e3000fa00000064000000000000000100000043
:101e4000010000002c010000640000000000000000
:101e5000010000000100000090010000640000008b
:101e6000000000000100000001000000f40100007b
:101e700064000000000000000100000001000000fc
:101e800012020000640000000000000001000000d9
:101e90000100000058020000640000000000000083
:101ea0000100000001000000ee02000064000000dc
:101eb0000000000001000000010000008403000099
:101ec0006400000064000000010000000100000048
:101ed000e803000064000000840300000500000027
:101ee00001000000e8030000f40100000000000011
:101ef00001000000010000000000000000000000e0
:101f00000000000000000000000000002c010000a4
:101f1000c800000008070000ffff000001000000eb
:101f200000000000000000000000000000000000b1
:101f30000000000034080000c80000006400000039
:101f4000010000000200000078050000c800000049
:101f50002c010000ffff0000020000000000000054
:101f60000000000000000000000000000000000071
:101f7000ee020000c8000000640000000100000044
:101f80000100000058020000c8000000f00a000034
:101f9000ffff000001000000000000000000000042
:101fa000000000000000000000000000ee02000041
:101fb000c8000000640000000100000001000000f3
:101fc0000000000000000000000000000000000011
:101fd000000000005802000028000000cc010000b2
:101fe000ffff0000010000000000000000000000f2
:101ff0000000000000000000000000002c010000b4
:102000006400000064000000010000000100000006
:1020100000000000000000000000000000000000c0
:1020200000000000ee020000c80000006400000094
:10203000010000000100000058020000c80000007c
:10204000000000000100000001000000000000008e
:102050000000000000000000000000000000000080
:1020600058020000c800000008070000ffff000041
:10207000010000000000000000000000000000005f
:102080000000000000000000e8030000280000003d
:1020900064000000010000000100000000000000da
:1020a0000000000000000000000000000000000030
:1020b000188f0000868f00009a8f0000b88f0000f4
:1020c000d68f0000ea8f0000fe8f00001290000003
:1020d0003090000044900000000000000800000064
:1020e000100000001900000021000000290000007d
:1020f0003100000039000000420000004a000000ea
:10210000520000005a000000620000006a00000057
:10211000720000007b000000830000008b000000c4
:10212000930000009b000000a3000000ab00000033
:10213000b3000000bb000000c3000000cb000000a3
:10214000d3000000db000000e2000000ea00000015
:10215000f2000000fa000000020100000a01000085
:1021600012010000190100002101000029010000f6
:10217000310100003801000040010000480100006a
:1021800050010000570100005f01000067010000de
:102190006f010000760100007e0100008601000052
:1021a0008d010000950100009c010000a4010000c9
:1021b000ac010000b3010000bb010000c20100003f
:1021c000ca010000d1010000d9010000e0010000b7
:1021d000e8010000ef010000f7010000fe0100002f
:1021e000060200000d020000150200001c020000a3
:1021f000230200002b020000320200003a0200001d
:102200004102000048020000500200005702000096
:102210005e020000660200006d0200007402000011
:102220007c020000830200008a020000910200008c
:1022300099020000a0020000a7020000ae02000008
:10224000b6020000bd020000c4020000cb02000084
:10225000d2020000d9020000e1020000e802000002
:10226000ef020000f6020000fd020000040300007f
:102270000b030000120300001903000020030000fc
:10228000280300002f030000360300003d03000078
:10229000440300004b0300005203000059030000f8
:1022a00060030000670300006e0300007503000078
:1022b0007c030000830300008a03000091030000f8
:1022c000970300009e030000a5030000ac0300007c
:1022d000b3030000ba030000c1030000c8030000fc
:1022e000cf030000d5030000dc030000e30300007f
:1022f000ea030000f1030000f8030000ff03000000
:10230000050400000c040000130400001a0400007f
:1023100020040000270400002e0400003504000003
:102320003c04000042040000490400005004000086
:10233000560400005d040000640400006b0400000b
:1023400071040000780400007f040000860400008f
:102350008c040000930400009a040000a004000014
:10236000a7040000ae040000b4040000bb04000099
:10237000c1040000c8040000cf040000d504000020
:10238000dc040000e2040000e9040000f0040000a6
:10239000f6040000fd040000030500000a0500002b
:1023a00010050000170500001d05000024050000b1
:1023b0002a05000031050000380500003e05000038
:1023c000450500004b0500005205000058050000bf
:1023d0005f050000650500006c0500007205000047
:1023e000780500007f050000850500008c050000d1
:1023f00092050000990500009f050000a605000059
:10240000ac050000b2050000b9050000bf050000e2
:10241000c6050000cc050000d2050000d90500006b
:10242000df050000e6050000ec050000f2050000f5
:10243000f9050000ff050000050600000c0600007d
:1024400012060000180600001f0600002506000006
:102450002b06000032060000380600003e06000091
:10246000450600004b06000051060000580600001b
:102470005e060000640600006a06000071060000a7
:10248000770600007d060000830600008a06000033
:1024900090060000960600009c060000a2060000c0
:1024a000a9060000af060000b5060000bb0600004c
:1024b000c2060000c8060000ce060000d4060000d8
:1024c000da060000e1060000e7060000ed06000065
:1024d000f3060000f90600006e0f00006400000023
:1024e0009e000000500f000066000000a1000000e8
:1024f000320f000068000000a5000000140f00006b
:102500006a000000a8000000f60e00006c00000049
:10251000ab000000d80e00006e000000ae0000000e
:10252000bc0e000070000000b20000009f0e000012
:1025300072000000b5000000820e00007400000070
:10254000b8000000650e000076000000bb0000002f
:10255000480e000078000000be0000002c0e0000b5
:102560007a000000c1000000110e00007c00000095
:10257000c5000000f50d00007e000000c80000004e
:10258000d90d000080000000cb000000bd0d000050
:1025900082000000ce000000a20d000084000000b8
:1025a000d1000000870d000086000000d50000006b
:1025b0006d0d000088000000d8000000520d0000e2
:1025c0008a000000db000000370d00008c000000d6
:1025d000de0000001d0d00008e000000e100000084
:1025e000030d000090000000e5000000e90c000071
:1025f00092000000e8000000cf0c000094000000f2
:10260000eb000000b50c000096000000ee0000009a
:102610009d0c000098000000f2000000840c0000f7
:102620009a000000f50000006b0c00009c00000008
:10263000f8000000520c00009e000000fb000000ab
:10264000390c0000a0000000fe000000210c00007a
:10265000a200000002010000090c0000a40000001c
:1026600005010000f10b0000a600000008010000b9
:10267000d90b0000a80000000b010000c10b0000f6
:10268000aa0000000f010000aa0b0000ac0000002f
:1026900012010000930b0000ae00000015010000c5
:1026a0007c0b0000b000000018010000650b00006a
:1026b000b20000001c0100004e0b0000b40000003e
:1026c0001f010000380b0000b600000022010000ce
:1026d000220b0000b8000000250100000b0b0000d9
:1026e000ba00000029010000f50a0000bc0000004b
:1026f0002c010000df0a0000be0000002f010000d6
:10270000ca0a0000c000000032010000b40a000044
:10271000c2000000360100009f0a0000c400000053
:1027200039010000890a0000c60000003c010000d9
:10273000740a0000c800000040010000600a0000a8
:10274000ca000000430100004b0a0000cc0000005a
:1027500046010000360a0000ce00000049010000da
:10276000220a0000d00000004d0100000d0a000008
:10277000d200000050010000f9090000d400000060
:1027800053010000e6090000d600000056010000d9
:10279000d2090000d800000059010000be09000065
:1027a000da0000005d010000aa090000dc00000062
:1027b0006001000097090000de00000063010000d6
:1027c00085090000e00000006701000072090000b8
:1027d000e20000006a0100005f090000e400000060
:1027e0006d0100004b090000e600000071010000cf
:1027f00039090000e800000074010000270900000a
:10280000ea0000007701000015090000ec0000005c
:102810007a01000003090000ee0000007d010000c5
:10282000f0080000f000000081010000df08000057
:10283000f200000084010000cd080000f400000058
:1028400087010000bc080000f60000008b010000ba
:10285000aa080000f80000008e010000990800009e
:10286000fa0000009101000088080000fc00000050
:102870009501000077080000fe00000098010000ac
:1028800066080000000100009b01000055080000e0
:10289000020100009f010000440800000401000044
:1028a000a20100003408000006010000a50100009c
:1028b0002408000008010000a9010000140800001d
:1028c0000a010000ac010000040800000c01000037
:1028d000af010000f40700000e010000b20100008b
:1028e000e407000010010000b6010000d507000059
:1028f00012010000b9010000c5070000140100002a
:10290000bc010000b507000016010000bf01000077
:10291000a607000018010000c3010000970700008f
:102920001a010000c6010000880700001c01000019
:10293000c9010000790700001e010000cd01000060
:102940006a07000020010000d00100005b070000c2
:1029500022010000d30100004d0700002401000007
:10296000d70100003f07000026010000da01000047
:102970003007000028010000dd01000022070000f0
:102980002a010000e0010000140700002c010000f3
:10299000e4010000060700002e010000e70100002e
:1029a000f806000030010000eb010000eb0600001b
:1029b00032010000ee010000dd06000034010000dd
:1029c000f1010000cf06000036010000f501000013
:1029d000c206000038010000f8010000b506000042
:1029e0003a010000fb010000a70600003c010000c6
:1029f000ff0100009a0600003e01000002020000f4
:102a00008d06000040010000050200008006000065
:102a100042010000090200007406000044010000a9
:102a20000c02000067060000460100000f020000d3
:102a30005a06000048010000130200004d06000085
:102a40004a01000016020000410600004c0100008f
:102a500019020000350600004e0100001d020000b2
:102a60002906000050010000200200001d060000a1
:102a70005201000024020000110600005401000071
:102a80002702000005060000560100002a0200008f
:102a9000f9050000580100002e020000ee050000bc
:102aa0005a01000031020000e20500005c01000054
:102ab00034020000d60500005e010000380200006c
:102ac000cb050000600100003b020000c0050000d3
:102ad000620100003e020000b50500006401000034
:102ae00042020000a9050000660100004502000046
:102af0009e050000680100004902000093050000e7
:102b00006a0100004c020000890500006c01000011
:102b10004f0200007e0500006e010000520200001e
:102b200073050000700100005602000068050000f7
:102b300072010000590200005e05000074010000ef
:102b40005d020000540500007601000060020000f4
:102b50004905000078010000630200003f05000005
:102b60007a01000067020000350500007c010000ca
:102b70006a0200002b0500007e0100006e020000ca
:102b8000210500008001000071020000170500000f
:102b900082010000740200000d05000084010000a5
:102ba0007802000003050000860100007b0200009f
:102bb000fa040000880100007f020000f004000019
:102bc0008a01000082020000e70400008c0100007e
:102bd00085020000dd0400008e0100008902000073
:102be000d4040000900100008c020000ca04000020
:102bf000920100008f020000c10400009401000057
:102c000093020000b8040000960100009602000044
:102c1000af040000980100009a020000a604000022
:102c20009a0100009d0200009d0400009c0100002c
:102c3000a0020000940400009e010000a402000015
:102c40008c040000a0010000a70200008304000023
:102c5000a2010000ab0200007a040000a401000001
:102c6000ae02000072040000a6010000b1020000e4
:102c700069040000a8010000b50200006104000022
:102c8000aa010000b802000058040000ac010000d6
:102c9000bc02000050040000ae010000bf020000b2
:102ca00048040000b0010000c2020000400400001f
:102cb000b2010000c602000038040000b4010000a8
:102cc000c902000030040000b6010000cd0200007f
:102cd00028040000b8010000d00200002004000019
:102ce000ba010000d402000018040000bc0100007a
:102cf000d702000010040000be010000da0200004c
:102d000008040000c0010000de0200000104000011
:102d1000c2010000e1020000f9030000c40100004c
:102d2000e5020000f2030000c6010000e802000016
:102d3000ea030000c8010000ec020000e303000009
:102d4000ca010000ef020000db030000cc0100001c
:102d5000f2020000d4030000ce010000f6020000e1
:102d6000cd030000d0010000f9020000c6030000fe
:102d7000d2010000fd020000bf030000d4010000ea
:102d800000030000b8030000d601000004030000a7
:102d9000b1030000d801000007030000aa030000ef
:102da000da0100000b030000a3030000dc010000b7
:102db0000e0300009c030000de0100001103000070
:102dc00095030000e0010000150300008f030000e0
:102dd000e20100001803000088030000e401000085
:102de0001c03000081030000e60100001f03000037
:102df0007b030000e80100002303000074030000cf
:102e0000ea010000260300006e030000ec01000050
:102e10002a03000068030000ee0100002d030000fb
:102e200061030000f0010000310300005b030000bb
:102e3000f20100003403000055030000f40100001b
:102e40003803000066200000313200000d00000051
:102e50006620000031320000420d000000660000d4
:102e600020310000360d0000006600002032000016
:102e7000300d00000066000020320000340d00001c
:102e80000066000020320000344200000d00000007
:102e900066200000333200000d00000066200000b4
:102ea000343800000d000000662000006d31000085
:102eb000320d000000660000206d0000313200007d
:102ec000420d000000660000206d00003136000059
:102ed0000d000000662000006d320000300d000083
:102ee00000660000206d0000323400000d0000007c
:102ef000662000006d320000344200000d0000002a
:102f0000662000006d330000320d000000660000f6
:102f1000206d0000343800000d0000005320000038
:102f200046460000464600004646000020300000ad
:102f30003034000036380000310d0000005300002e
:102f400020460000463000003030000030200000f5
:102f50003030000034360000383100000d00000031
:102f6000532000004646000046380000303500007f
:102f7000203000003034000036380000310d0000f1
:102f800000530000203000003034000036380000cc
:102f900031200000303000003436000038310000ad
:102fa0000d000000532000003030000030300000e1
:102fb0003030000020460000464600004646000033
:102fc000460d000000530000204600004646000069
:102fd00046460000462000004646000046460000e7
:102fe000464600000d000000532000004646000049
:102ff0004646000046460000203000003030000009
:1030000030300000300d000000530000204600006a
:10301000463000003030000030200000303000002a
:1030200030300000303000000d0000005320000060
:1030300046460000463800003035000020300000d1
:103040003030000030300000300d00000053000030
:1030500020460000384400004333000045200000b3
:103060003030000030300000303000000d00000033
:10307000532000003639000044390000363000008b
:10308000203000003030000030300000300d0000f3
:10309000005300002035000042420000334300008e
:1030a00039200000303000003030000030300000a7
:1030b0000d000000532000003030000030300000d0
:1030c0003030000020300000303000003030000090
:1030d000300d00000053000020460000464600006e
:1030e00046460000462000003643000036460000f9
:1030f000373000000d000000532000003643000070
:10310000364600003730000020360000433600000d
:1031100046370000300d0000000d0000002a0000be
:1031200061620000740d0000004500006e71000037
:103130007565000075650000466f00006e74000044
:10314000436f00006c6f0000724100006e6400006d
:103150005465000078740000282900000074000005
:103160002022000000220000200000007a20000041
:103170000d000000616e0000696400002031000055
:10318000203500000d0000002530000032640000f2
:1031900000780000692000000020000000500000be
:1031a000726900006e7400004772000061700000d8
:1031b00068690000632800002900000072200000f8
:1031c000373900002032000039350000203100007e
:1031d0003139000020340000333500002033000076
:1031e000203000003030000030300000300d000092
:1031f0000072000020370000392000003239000042
:103200003520000031310000392000003433000047
:10321000350d00000072000020370000392000004a
:103220003239000035200000313100003920000023
:1032300034330000352000003320000045420000f8
:1032400045420000454200000d00000072200000d1
:103250003739000020000000343200003100000047
:103260003430000037000000333900003300000024
:10327000333700003900000033360000350000000d
:103280003335000031000000333300003700000008
:1032900033320000330000003330000039000000fa
:1032a00032390000350000003131000039200000c3
:1032b0003433000035000000332000004542000098
:1032c00045420000454200000050000072690000c5
:1032d0006e740000496d00007065000064610000bc
:1032e0006e63000065280000290000002530000002
:1032f000326400003a250000303200006400000013
:10330000616e000069650000203100000d000000c2
:1033100050720000696e00007452000046470000c1
:1033200072610000706800006963000028290000d5
:1033300000740000666400002032000020310000ac
:103340000d0000007466000078200000320d0000bf
:103350000025000030320000645c0000784200006c
:10336000304300000074000066200000322000009e
:103370002200000050720000696e000074540000ca
:10338000656d0000706500007261000074750000da
:10339000726500002829000000250000642000005c
:1033a0002564000000740000662000003320000047
:1033b000220000007466000064200000332000003a
:1033c000310d00000074000066780000203300001a
:1033d0000d00000050720000696e0000745400007f
:1033e0006578000074490000746500006d280000d5
:1033f00029000000507200006f6700007261000039
:103400006d6d0000616200006c6500004274000098
:103410006e730000282900000000000068dc000036
:103420000000000089110000122300009b32000000
:1034300024460000ad57000036650000bf74000050
:10344000488c0000c19d00005aaf0000d3be0000b0
:103450006cca0000e5db00007ee90000f7f8000020
:103460008110000008010000933300001a220000c0
:10347000a55600002c470000b77500003e64000010
:10348000c99c0000408d0000dbbf000052ae000070
:10349000edda000064cb0000fff9000076e80000e0
:1034a000022100008b300000100200009913000080
:1034b00026670000af76000034440000bd550000d0
:1034c0004aad0000c3bc0000588e0000d19f000030
:1034d0006eeb0000e7fa00007cc80000f5d90000a0
:1034e000833100000a200000911200001803000040
:1034f000a77700002e660000b55400003c45000090
:10350000cbbd000042ac0000d99e0000508f0000ef
:10351000effb000066ea0000fdd8000074c900005f
:10352000044200008d530000166100009f700000ef
:1035300020040000a915000032270000bb3600005f
:103540004cce0000c5df00005eed0000d7fc00009f
:1035500068880000e19900007aab0000f3ba00002f
:10356000855200000c430000977100001e600000af
:10357000a114000028050000b33700003a2600001f
:10358000cdde000044cf0000dffd000056ec00005f
:10359000e998000060890000fbbb000072aa0000ef
:1035a000066300008f720000144000009d5100006f
:1035b00022250000ab34000030060000b9170000df
:1035c0004eef0000c7fe00005ccc0000d5dd00001f
:1035d0006aa90000e3b80000788a0000f19b0000af
:1035e000877300000e620000955000001c4100002f
:1035f000a33500002a240000b1160000380700009f
:10360000cfff000046ee0000dddc000054cd0000de
:10361000ebb9000062a80000f99a0000708b00006e
:1036200008840000819500001aa7000093b60000ee
:103630002cc20000a5d300003ee10000b7f000005e
:1036400040080000c9190000522b0000db3a0000be
:10365000644e0000ed5f0000766d0000ff7c00000e
:1036600089940000008500009bb7000012a60000ae
:10367000add2000024c30000bff1000036e000001e
:10368000c118000048090000d33b00005a2a00007e
:10369000e55e00006c4f0000f77d00007e6c0000ce
:1036a0000aa5000083b4000018860000919700006e
:1036b0002ee30000a7f200003cc00000b5d10000de
:1036c00042290000cb380000500a0000d91b00003e
:1036d000666f0000ef7e0000744c0000fd5d00008e
:1036e0008bb5000002a4000099960000108700002e
:1036f000aff3000026e20000bdd0000034c100009e
:10370000c33900004a280000d11a0000580b0000fd
:10371000e77f00006e6e0000f55c00007c4d00004d
:103720000cc6000085d700001ee5000097f40000dd
:1037300028800000a19100003aa30000b3b200006d
:10374000444a0000cd5b000056690000df780000ad
:10375000600c0000e91d0000722f0000fb3e00001d
:103760008dd6000004c700009ff5000016e400009d
:10377000a990000020810000bbb3000032a200002d
:10378000c55a00004c4b0000d77900005e6800006d
:10379000e11c0000680d0000f33f00007a2e0000dd
:1037a0000ee7000087f600001cc4000095d500005d
:1037b0002aa10000a3b0000038820000b1930000ed
:1037c000466b0000cf7a000054480000dd5900002d
:1037d000622d0000eb3c0000700e0000f91f00009d
:1037e0008ff7000006e600009dd4000014c500001d
:1037f000abb1000022a00000b992000030830000ad
:10380000c77b00004e6a0000d55800005c490000ec
:10381000e33d00006a2c0000f11e0000780f00005c
:1038200044690000737000006c61000079200000a2
:10383000496e00006974000000520000414d000014
:10384000005700006174000063680000646f0000ae
:10385000670000004f6e00002d6200006f610000e5
:103860007264000020740000656d000070000000ac
:1038700053750000707000006c7900002056000045
:103880006f6c000074610000676500000053000069
:1038900074750000636b0000204200007574000026
:1038a000746f00006e0000005246000020430000cc
:1038b000697200006375000069740000727900008d
:1038c00000530000504900002043000069720000ce
:1038d000637500006974000072790000006e0000da
:1038e000756c00006c0000004469000073700000fb
:1038f0006c61000079200000507200006f630000ce
:1039000065730000736900006e670000000000002e
:10391000100000000100000008000000100000007e
:103920000800000010000000080000001000000067
:10393000040000000500000010000000040000006a
:10394000100000000300000003000000030000005e
:1039500010000000532f000056200000782e0000b9
:103960003039000035580000432e0000414100006e
:103970000056000065720000736900006f6e000061
:10398000004900006e69000074690000616c00006d
:103990002047000072610000706800006963000049
:1039a00073000000496e0000697400006961000046
:1039b0006c200000496d000070650000646100002b
:1039c0006e6300006520000062610000720000006c
:1039d00020000000496e0000697400006961000069
:1039e0006c2000004c610000626500006c730000f8
:1039f000004900006e69000074690000616c0000fd
:103a000020430000796300006c6500007300000033
:103a1000881300001027000000000000400600008e
:103a20004006000000000000140000001e0000001e
:043a30000000000092
:020000040000fa
:103a34000a00fa002007980031079800420798000e
:103a44002e0090006101b800be0090004e0090006e
:103a5400808050002000200000027800110009003e
:103a64008400d800cf80de0002014000838148003a
:103a7400219180004e009000808050006000200062
:103a840000027800110009008400d800cf80de0015
:103a9400001f4100019749004e00900020918800ca
:103aa4001e00be00e00f5000e08f580002003d00f1
:103ab4000000eb0009003700f0ff2f000100200098
:103ac4001e01be00800f5100818f59000200340096
:103ad4000080eb00010037001e0078000080fa002f
:103ae400000006002a00fa00401798008040eb000e
:103af4000000eb0090030700e9e2a90040178000f2
:103b04004f00de00004078000080fb000000e90068
:103b14004f00de00004078000080fb004f00dd0015
:103b240042178000f1ff27008100610000807000cf
:103b3400401788008d06070010012000d6030700f7
:103b44004e109000c0089000e09e2b00808f500023
:103b540019003e004e109000c0089000e08129003a
:103b6400808f5000140036004e109000d008900052
:103b740040b82400808f50000f003e004e1090008b
:103b8400d008900080dc2300808f50000a003600ab
:103b94004e109000e0089000803c2000808f500080
:103ba40005003e004e109000e008900070312000a7
:103bb400808f500002003e00600420004a0137005c
:103bc4006a06070010012000b3030700480107003c
:103bd400e00f500002003a00700420004201370058
:103be40031c0b300c01e20005303070030c0b3002f
:103bf400da0407005d06070010012000a603070091
:103c04005a06070010012000a30307005706070007
:103c140010012000a0030700000220000e00400055
:103c2400df02070060c0b300760507000100200032
:103c3400a29e20000289b900020178006002b90046
:103c44008401780003014100a39e20000300b80012
:103c54000101410082007800f2ff200003002000ef
:103c64003ff207002007980070c0b3006505070005
:103c740001002000026f21000289b90002017800ce
:103c84006002b9008401780003014100036f210040
:103c94000300b8000101410082007800f2ff200017
:103ca400030020002ef20700300798000e10900049
:103cb4006101b9004e1090005008900001002000ee
:103cc400009ab90004027800028bb90086027800d9
:103cd400050242000010b80001024200840078008e
:103ce400f2ff2100030020000ef2070040079800b5
:103cf4001e1090006101b9004e1090006008900001
:103d040001002000009ab90004027800028bb90077
:103d140086027800050242000010b8000102420049
:103d240084007800f2ff210003002000fdf1070069
:103d3400500798002e1090006101b9004e109000b9
:103d44004008900001002000009ab90004027800a5
:103d5400028bb90086027800050242000010b80008
:103d64000102420084007800f2ff210003002000d9
:103d7400ecf10700600798004e1090005008900086
:103d840001002000027122000289b90002017800ba
:103d94006002b9008401780003014100037122002c
:103da4000300b80001014100820078007007980008
:103db400010f980070079800010f98004e109000b2
:103dc40060089000010020000001be007e00900009
:103dd4008e089000e2f1070070079800010f980028
:103de4001e109000e00f5000150034000e109000db
:103df400cf80de007e0190000191b90002017800bd
:103e04008e099000009ab9008401780003014100f2
:103e1400fe0190000018b800010141008200780002
:103e24001e119000cf91de00cdf107004206200064
:103e340003002000caf107000000780001003700e9
:103e4400f0702200100f98003e109000200f980090
:103e54000000eb00000f78000b0037002904070076
:103e64000080fb0010079800c00507001001200027
:103e7400090307001e00900070006000e00f50006e
:103e8400060032001e0fe800100320009e00780098
:103e9400808f5000f1ff3600010037000000000061
:103ea400000220000e0040003d0207002e1090008a
:103eb4006101b9004e1090004008900001002000fc
:103ec400009ab90004027800028bb90086027800d7
:103ed400050242000010b80001024200840078008c
:103ee400f2ff2100030020008ef10700300f98003c
:103ef400e9e2a900401780004f00de00004078008e
:103f04000080fb000000e9004f00de000040780064
:103f14000080fb004f00dd0042178000f1ff270006
:103f2400810061000080700040178800f5030700dd
:103f34000080fb00400f98008c0507001001200052
:103f4400d50207008905070010012000d2020700ee
:103f5400000220000e004000110207002e10900005
:103f64006101b9004e10900040089000010020004b
:103f7400009ab90004027800028bb9008602780026
:103f8400050242000010b8000102420084007800db
:103f9400f2ff21000300200062f10700500f980097
:103fa40081c0b3000000eb00630207006f05070047
:103fb40010012000b8020700c1c0b3000000eb00ec
:103fc4005d02070010c0b300e40307009e089000e0
:103fd400c0442000808f500004003c009e089000e4
:103fe40030382000808f500002003c00e0012000a7
:103ff4003d0037004e0090006101b9005e00900062
:10400400cf80de00009ab90004027800028bb90068
:1040140086027800050242000010b8000102420046
:104024008400780042062000030020003df10700d0
:104034000001be006e009000cf80de000000510041
:1040440081805900600f9800710f98006e099000ec
:10405400fe099000c012200001002000800f5100d2
:10406400818f59000b003c006e099000fe099000fe
:1040740040ed2f00f1ff2f00800f5100818f590078
:1040840004003500ee009000703e2000808f500048
:1040940002003c00f001200013003700be0890002d
:1040a400401f2000808f50000c003c001e00900038
:1040b40070006000e00f500008003a004e089000c5
:1040c40070006000e00f500004003200de08900031
:1040d400703e2000808f500002003c0070022000df
:1040e400010037000000eb000080fa000000060029
:1040f4000e00fa000000eb00100798008040eb006f
:10410400f0ff20000c020700180507001001200032
:1041140061020700e0ff2100000f780084003700ef
:104124001e0078000000d100000f78008040eb00f2
:104134001e007800000207000c0507006600470017
:1041440097010700f0ff20009e007800808f500048
:1041540010003a00ee00900050ff2000808f5000c5
:1041640004003c00ee00900040f52000808f5000d9
:1041740002003c000000eb00710037000000210049
:10418400000f78006e0090000080d1002007980096
:1041940054003700ee0090001e0090000080e800fc
:1041a400808f5000020034000000eb0064003700f0
:1041b400ee0090001e0190002e00900000015100be
:1041c400ae0190004006200000027800811f7800b4
:1041d400110009008401d80081017800cf00780023
:1041e4000000410064004000808f500010003c003b
:1041f400ee0090001e0190002e009000000151007e
:10420400ae0190004006200000027800811f780073
:10421400110009008401d80081017800cf007800e2
:104224000000510064005000808f500002003d00e7
:104234000000eb00420037001e009000e00f500029
:10424400040034001e0090000080d1001007980084
:10425400020037000000eb0010079800ee00900009
:104264001e0190004006200080017800811f780024
:10427400110009000301d80001017800cf00780083
:10428400000178001e009000000041006900400019
:10429400808f50000e003c00ee0090001e01900044
:1042a4004006200000027800811f780011000900f8
:1042b4000401d80001017800cf0078001e019000ad
:1042c4000000510069005000808f500002003d0042
:1042d4000000eb001a0037002e0090000080d1008f
:1042e400200798006e00900010079800100120002d
:1042f400e9010700e9e2a900401780004f00de0051
:10430400004078000080fb000000e9004f00de0060
:10431400004078000080fb004f00dd004217800061
:10432400f1ff2700810061000080700040178800c1
:104334001e007800e00f500079ff3a0010002000c2
:104344000080fa00000006000c00fa000040eb00b8
:10435400ac0307000100200062c827000289b900ed
:10436400020178006002b900840178000301410071
:1043740063c827000300b8000101410082007800ef
:10438400f2ff20000300200075f00700000f780002
:1043940020c0b3009b030700100798001e00900084
:1043a400cf80de0032e423000289b90002017800e4
:1043b4006002b900840178000301410033e4230062
:1043c4000300b8000101410082007800f2ff2000e0
:1043d4000300200062f00700200798001e009000f0
:1043e400cf80de00629122000289b90002017800c8
:1043f4006c02b9008401780003014100639122003a
:104404000300b8000101410082007800f27b200023
:104414002300200052f007001007980010c0b300da
:10442400780307000100200042ef24000289b9004c
:10443400020178006802b900840178000301410098
:1044440043ef24000300b80001014100820078001a
:10445400f2fb20004300200041f007000000780038
:104464009e009000008050003007980030c0b300d8
:104474006403070001002000829c21000289b90026
:10448400020178006002b900840178000301410050
:10449400839c21000300b8000101410082007800e0
:1044a400f2ff2000030020002df0070040079800d1
:1044b40040c0b3005303070001002000829c210088
:1044c4000289b900020178006002b9008401780011
:1044d40003014100839c21000300b8000101410055
:1044e40082007800f2ff2000030020001cf0070087
:1044f4008000780040552f0000804000500798004d
:10450400007226009e007800808f500004003c005a
:10451400f04525009e007800808f500002003c008a
:104524000002200029003700ae009000003923006b
:10453400808f500004003c00ae009000f0a22200e6
:10454400808f500002003c00100220001f00370042
:10455400ce009000c0572100808f500004003c0022
:10456400ce00900030192100808f500002003c00e2
:104574003002200015003700be00900000392300ef
:10458400808f500004003c00be009000f0a2220086
:10459400808f500002003c00200220000b003700f6
:1045a400de00900050092000808f50000400340089
:1045b400de009000401f2000808f50000200340075
:1045c40040022000010037000000eb000080fa00e8
:1045d400000006001200fa00e40307000040eb00ac
:1045e400500007000000eb00000f78002b0037009c
:1045f400de0307001e007800004078000040e80059
:104604004800070001002000e23f20000289b900b1
:10461400020178006002b9008401780003014100be
:10462400e33f20000300b80001014100820078004c
:10463400f2ff200003002000c9ef0700800078008b
:104644001e00780000004000000047000080e800e1
:1046540001087800100120000f010700e9e2a90019
:10466400401780004f00de00004078000080fb000f
:104674000000e9004f00de00004078000080fb00ed
:104684004f00dd0042178000f1ff27008100610028
:1046940000807000401788001e0fe8001e0078009c
:1046a400e70f5000d2ff3600ce009000100d20001e
:1046b400808f500004003600ce009000a00d200032
:1046c400808f500002003600500220001300370093
:1046d400de00900050092000808f50000400360056
:1046e400de009000401f2000808f50000200360042
:1046f40060022000090037007e009000e40f5000a3
:1047040003003e000e089000e40f50000200360043
:1047140050022000010037000000eb000080fa0086
:10472400000006000400fa0020479800d682a80082
:10473400d6a2a800d6a2a900d6a2a900d6a2a900f2
:10474400d6a2a900d6a2a90040128000000f7800ca
:104754002e4090000034a0000080fb00401288002e
:104764004012800040128800000000000012800007
:1047740061006000e00f5000fcff32004012800036
:10478400c200de00f0ff2000008f6000d6a2a80067
:10479400d682a9001e0078000080fa0000000600fe
:1047a4000600fa00200798000040eb00104798002c
:1047b400d062a8000080eb00c0168800211680009b
:1047c40000fe2f000080600020168800c462a8004c
:1047d400d662a80010c0b3009e409000e1cf500004
:1047e40001003e000040eb000080fb00610060001f
:1047f400b2168000e1ff2f0081006100008070008c
:10480400b0168800d622a8000040eb00004f7800c4
:1048140002003700d642a8001e4fe8001e40780070
:10482400e94f5000fbff3600d662a900d662a9000a
:10483400d662a800d662a800d662a800d662a800f4
:10484400d662a800d662a8000000000031178000dc
:104854000000240000806000e00f5000fbff3a00dd
:10486400d622a900d642a900c402a900d082a90078
:10487400d082a900d082a900d016800080007800e0
:10488400f00f20000080600010079800c402a80008
:10489400c402a800d1168000f0032000008060004c
:1048a400c800dd001e009000008070001007980012
:1048b400d642a8009e009000000022000080600004
:1048c400e00f5000040032009e00900000002c0015
:1048d40000807000100798001e4090000080fb00cc
:1048e40000004000ae009000008040009e00900058
:1048f400f6805000010878001e4090000040e80057
:10490400104798001e4090000080fb00610060008a
:1049140000407800e04f5000d2ff3a00d622a800b1
:104924001e409000e34f5000a9ff3600d082a8003b
:104934000080fa00000006000400fa00000f78006e
:1049440021479800d082a8002116800000fe2f0085
:1049540000806000201688001e007800e0168800a1
:1049640000f02f00c0168800d062a900d062a80011
:10497400c402a8001e0078004800de00e01688008b
:10498400d062a900d062a800c402a900c442a80051
:104994002e4090000080fb00e0168800d062a90041
:1049a400d062a8000080fa00000006000400fa00ab
:1049b400000f780021479800c582a900c5a2a9006c
:1049c400d082a8002116800000fe2f000080600025
:1049d40020168800c422a8001e00780001002000d0
:1049e4000001be0000b02100710b2000dcee0700c6
:1049f400000f78001e007800e016880000f02f00f9
:104a0400c0168800d062a900d062a800c402a80021
:104a14001e0078004800de00e0168800d062a9007d
:104a2400d062a8002e4090006140600061406000a8
:104a3400614060000080fb00610060004d00dd000b
:104a440022168000f1ff2d008100610000807000bb
:104a5400201688002e4090000080fb006200600059
:104a64008000ea00008070004f00de000040780003
:104a74000080fb00610060004c00dd002216800015
:104a8400f1ff2e0081006100008070002016880074
:104a94000080fa00000006000200fa00000f78000f
:104aa4001e007800f00f50000e003a008040eb002a
:104ab40010002000bdff07000000eb00d09088002c
:104ac400d0908000e0908800e0908000f090880012
:104ad400f0908000009188000000eb0010918800a5
:104ae400780037001e007800e90f50001b003e00dc
:104af4001e007800800040008005290000804000ee
:104b040010007800109188001091800040009000ff
:104b140000407800119180001101780080407800f5
:104b240002007800a1ff070010918000900090001f
:104b34004001200000017800110009008280d800a3
:104b4400009188001091800030009000e09088006f
:104b540010002000d09088005a0037001e00780012
:104b6400f10f500057003a0000918000e00f500010
:104b740054003200009180000000e9000091880098
:104b840000918000e00f50004e003a00d090800069
:104b9400e00f5000110032001091800020009000be
:104ba400e00f50000d0032008040eb0010002000a8
:104bb4007eff070010918000a000900040012000bb
:104bc40000017800110009008280d800009188005b
:104bd4000000eb00d09088003a003700e09080009d
:104be400e00f500018003200e09080000000e9005f
:104bf400e0908800e0908000e00f50001200320046
:104c040010918000400090000040780011918000d5
:104c140011017800804078000200780063ff0700eb
:104c24001091800090009000400120000001780065
:104c3400110009008280d800009188001000200033
:104c4400d09088001f003700109180006a00400057
:104c5400109188001091800040009000e00f5000f7
:104c64001500320010918000400090000040780050
:104c740011918000110178008040780002007800d2
:104c84004aff07001091800090009000400120002e
:104c940000017800110009008280d800009188008a
:104ca4001091800030009000e090880010002000f7
:104cb400d0908800030037008040eb0010002000f3
:104cc4003aff0700019180000100ea000100700032
:104cd4004f00de000080fa00000006000600fa0023
:104ce400d062a8000080eb00c01688002116800066
:104cf40000fe2f000080600020168800c442a80037
:104d0400c422a800d082a900d082a900d082a90020
:104d1400d01680000080ea006d0060001007980043
:104d2400d082a800001780000080ea004800dd005f
:104d340020079800ae009000001020000080600062
:104d4400c400de001e00900080807000a0908000ef
:104d540000807000a0908800ae0090000010200039
:104d64000080600020079800b09080008080ea00f6
:104d74002e00900080806000001020000080600001
:104d8400e00f500004003200ae00900000802000cc
:104d9400008f70000e0037002e0090008080ea0023
:104da400b0908000808060000010200000806000cf
:104db400e00f500004003200ae009000000021001b
:104dc400008f7000020037002e009000000f780062
:104dd4002e009000b090880018d2bf008080fb00a5
:104de4001e009000808f5000070032001e009000cb
:104df4000040780018f2b7000040eb0019f2b70049
:104e04001e0078001a0037001e0090006d0060003c
:104e1400e00f50000900320019d2bf00f94f5000d2
:104e240006003a0019d2bf006540500019f2b700dd
:104e34001e0090001e0070000d00370019d2bf0044
:104e4400e14f40000600320019d2bf000040e800e4
:104e540019f2b70019d2bf00e34f5000020032002c
:104e64001e007800020037001e0090001e00700033
:104e74000080fa00000006000200fa00a090800002
:104e8400000f78000000eb00a09088001e0078005e
:104e94000080fa00000006000400fa00d062a800b6
:104ea4000080eb00c01688002116800000fe2f0051
:104eb4000080600020168800c442a800c422a80014
:104ec400d082a900d082a900d082a900d016800087
:104ed4008080ea00f0072000008f60000017800047
:104ee4000080ea00630060004800dd0010079800bd
:104ef400d082a8001e0090001e0070000080fa00fe
:104f0400000006000200fa00d062a8000080eb0056
:104f1400c01688002116800000fe2f00008060006b
:104f240020168800c442a800c422a800c402a80015
:104f3400d082a900d082a900d082a900d082a90081
:104f4400d0168000004f7800d082a8009e407800e0
:104f540067c068000080fa00000006000200fa0042
:104f6400004f7800d082a8002116800000fe2f0098
:104f74000080600020168800c442a800c402a80073
:104f84009e4078000180fb00e016880000f02f00ae
:104f9400c0168800d062a900d062a8000080fa0080
:104fa400000006000200fa000000eb00203a88002e
:104fb40060022000303a880030c0b3003174200011
:104fc40082072000a30920008248780083487800e3
:104fd40080487800217420006204200073052000ba
:104fe40082487800834878004207a8000000000047
:104ff400113a80000002200000806000e00f5000a1
:10500400fbff3200f0f32f005019880000f22f004c
:10501400601b8800601b8000601988000000eb00a2
:10502400201688000000eb000036880000fc2800f1
:10503400001688000000eb0050168800f00d2000d8
:10504400301688000000eb008016880010fe2f0048
:1050540060168800f0f32f00b0168800f0002000de
:10506400903688000000eb00901688000000eb00ea
:10507400e01688000080eb00c01688000000eb00fa
:10508400101788000000eb00f0368800f0fd2c00bb
:10509400f016880010202000401788000000eb0064
:1050a40020378800e0df2400201788000002200059
:1050b40020088800300d2300100888000000eb0051
:1050c400000888008460a90005e1a8008280a90086
:1050d400bf40a900bf20a900bf00a8008053200042
:1050e400101288000000eb00201288000000280045
:1050f4000012880000022000101388000000eb005a
:10510400201388000000280000138800b018200035
:10511400201088000000280030108800004e200075
:105124000019880000002600101988004020200083
:10513400201988000000eb00901988000000eb00a3
:10514400301988000000eb00401988000000eb00d3
:1051540070198800f001200080198800004e280092
:105164000019880000002800001188003010200079
:105174004011880000402000101188003011800088
:10518400000f780010002600001c8800c0002000da
:10519400101c880040222000401c880000002400cd
:1051a400601c8800b0002000701c88006022200071
:1051b400a01c88008de3a90080002000801c8800ca
:1051c400f0002000b01c880085c0a9001000260053
:1051d400801d880010022000901d88008026200079
:1051e400c01d880010002400e01d8800100220006b
:1051f400f01d880080262000201e88000080fa0010
:10520400000006000200fa00004f78009e4078007b
:105214000180fb00401988002023a8000000000042
:105224000019800062006000e00f5000fcff3a00ab
:10523400000000000019800061006000e00f5000d1
:10524400fcff3200001880000080fa000000060015
:105254000800fa00008fbe002207980063479800f8
:105264008620a9000602a800ae000700e04f500007
:1052740002003a000080eb00a80037000000200084
:10528400110020001e01be00020278000301780014
:1052940080017800010078000302620000006100d0
:1052a40001002000c000dd00000020000001be005d
:1052b4006120b8000001710081817100e00f51008c
:1052c400e08f590003003a00000a20001010880003
:1052d40002003700200a2000101088009100070007
:1052e400e04f500002003a00e0ff2f008b0037002f
:1052f400411080000000280000806000e00f500092
:10530400030032000642a800d0ff2f0083003700bc
:105314001e00be004809dd004800de0000007100e8
:10532400c808de00004078000080fb0010108800f0
:105334007c000700e04f500002003a00c0ff2f003d
:1053440076003700411080000000280000806000d3
:10535400e00f5000030032000642a800b0ff2f0007
:105364006e0037001e007800004078000080fb00cb
:10537400101088006b000700e04f500002003a0054
:10538400a0ff2f00650037004110800000002800b6
:1053940000806000e00f5000030032000642a800c5
:1053a40090ff2f005d0037000622a8005d00070073
:1053b400e04f500002003a0080ff2f0057003700f2
:1053c40000002000110020001e01be00020278002f
:1053d4000301780080017800010078000302620074
:1053e4000000610001002000c000dd00000020007a
:1053f4000001be006120b8000001710081817100cc
:10540400e00f5100e08f590003003a00100a200019
:105414001010880002003700300a200010108800a5
:1054240040000700e04f500002003a0070ff2f00d8
:105434003a0037004110800000002800008060001e
:10544400e00f5000230032000642a80060ff2f0046
:10545400320037000662a80032000700e04f500017
:1054640002003a0050ff2f002c003700001080008b
:1054740000407800ae009000804878002e00900034
:105484000000e800200798006e4090000080fb00b8
:105494000000e9004f00de00004078000080fb00bf
:1054a400610060004500dd0032108000f1fd2f0036
:1054b4008100610000807000301088000682a8001e
:1054c40018000700e04f500003003a0040ff2f008f
:1054d40012003700000000006e4090000080fb00c6
:1054e4000000ea004f00de0000407800ee4090002b
:1054f4008140e90061479800e04f5000d5ff3a0031
:105504000642a80007000700e04f500002003a00de
:1055140030ff2f00010037000000eb000080fa008c
:10552400000006000200fa00803e2000000f780010
:10553400060037001e0fe9001e007800e00f50003f
:1055440002003a000040eb000600370030048000ff
:1055540062006000e00f5000f6ff32008620a900d0
:1055640010c0b3000080fa00000006000000fa003a
:10557400000000002004800068006000e00f50007c
:10558400fcff32008460a9000080fa0000000600dd
:105594000600fa00200798002e0090000100200069
:1055a400c2e229000289b900020178006002b90050
:1055b4008401780003014100c3e229000300b8001c
:1055c4000101410082007800f2ff20000300200066
:1055d400e3eb0700000f7800f0f727009e00780047
:1055e400808f500002003600906f200016003700b4
:1055f4001e0078004700de000000400080007800b4
:10560400c006290000804000100798001e0090008a
:10561400100178001e0090000080e80090007800df
:105624001e0090001000780080805000f0072000d9
:105634001e0060000088b900000078000004b0007b
:105644004700de00000041000080fa000000060070
:105654001000fa00600798007107980061938400b5
:105664006e009000808f500005003100300620004d
:10567400000f780080938400100798009e00370084
:10568400e1b884006e009000808f50000500360061
:10569400501f2000000f780002b984001207980000
:1056a40095003700400620002007980020032000c2
:1056b400300798002e0090006600b9008000780042
:1056c400c026290000804000900078006e00900001
:1056d400808f50000a003100ae0090003e00900020
:1056e40000805000200798002e009000e00f50002a
:1056f4002e003d000000eb00200798002b0037002f
:10570400ae009000700c2000808f500015003c000b
:105714002e0090000000e8006600b90080007800c8
:10572400c026290000804000900078006e009000a0
:10573400808f50000b003600ae0090003e009000b9
:105744000080400020079800ae009000800c2000ec
:10575400808f500015003400800c20002007980032
:1057640012003700ae009000700c2000808f5000b3
:105774001a003c002e0090000000e8006600b9000a
:1057840080007800c0262900008040009000780046
:105794006e009000808f500010003a002e009000a0
:1057a4000000e800200798000c0037003e0090003d
:1057b400e10f5000080034003e0090008000e80033
:1057c4002000200080017800110009008300d80027
:1057d40030079800b7ff3700000000002e0090004b
:1057e4006600b900000078008080e800c026290027
:1057f40000804000100178002e0090006600b9007f
:1058040080007800c02629000080400090007800c5
:105814006e00900000805000400798004e009000f9
:1058240000004000800178002e0090006600b9005e
:1058340080007800c0262900008040001002780013
:105844002e0090000000e8006600b9008000780097
:10585400c02629000080400010007800000052009b
:10586400500798005e0090000002780011000900c3
:105874008481d800000f41002e0090006600b9001a
:1058840000007800e4004000c026290000804000a9
:10589400100178002e0090000000e8006600b900b6
:1058a40000007800e4004000c02629000080400089
:1058b400900178002e0090006600b9000000780086
:1058c400e4004000c0262900008040001000780059
:1058d400808051004e0090000088b900800078005c
:1058e4005e00900080017800110009008380d800d8
:1058f40000004100100798007e009000e00f500067
:10590400020032007e0090001e0878001e00900005
:105914000080fa00000006000400fa00f000800095
:10592400000f7800040037009e0078000040eb0070
:10593400804878001e0fe800f07f24009e00780065
:10594400808f5000f8ff3600f0008000000f7800d0
:10595400070037001e00780010407800e04f500028
:105964000200320090022000ed0037001e0fe80014
:10597400f07f24009e007800808f5000f5ff3600f1
:10598400e9e2a900401780004f00de0000407800e3
:105994000080fb000000e9004f00de0000407800ba
:1059a4000080fb004f00dd0042178000f1ff27005c
:1059b400810061000080700040178800f0008000c2
:1059c400000f7800040037009e00780000c0eb0050
:1059d400804878001e0fe800f07f24009e007800c5
:1059e400808f5000f8ff3600f0008000000f780030
:1059f400070037001e00780010407800e14f400097
:105a040002003200a0022000c50037001e0fe8008b
:105a1400f07f24009e007800808f5000f5ff360050
:105a2400e9e2a900401780004f00de000040780042
:105a34000080fb000000e9004f00de000040780019
:105a44000080fb004f00dd0042178000f1ff2700bb
:105a5400810061000080700040178800f000800021
:105a6400000f7800040037009e007800a0cab3003d
:105a7400804878001e0fe800f07f24009e00780024
:105a8400808f5000f8ff3600f0008000000f78008f
:105a9400080037001e00780090407800a0cab300c8
:105aa40080cf500002003200b00220009c0037007a
:105ab4001e0fe800f07f24009e007800808f5000c5
:105ac400f4ff3600e9e2a900401780004f00de0031
:105ad400004078000080fb000000e9004f00de0079
:105ae400004078000080fb004f00dd00421780007a
:105af400f1ff2700810061000080700040178800da
:105b0400f0008000000f7800040037009e00780049
:105b140050c5b300804878001e0fe800f07f2400d1
:105b24009e007800808f5000f8ff3600f00080005f
:105b3400000f7800080037001e00780090407800bd
:105b440050c5b30080cf500002003200c0022000d4
:105b5400730037001e0fe800f07f24009e007800d9
:105b6400808f5000f4ff3600e9e2a900401780005e
:105b74004f00de00004078000080fb000000e900d8
:105b84004f00de00004078000080fb004f00dd0085
:105b940042178000f1ff270081006100008070003f
:105ba40040178800f00080001007980008003700b4
:105bb4009e009000a0aa2a00808068001e00900029
:105bc400010878001e0090000080e800100798008b
:105bd4009e009000f07f2400808f5000f4ff360078
:105be400f0008000100798000c0037001e009000a1
:105bf400900078001e019000a0aa2a00000069000d
:105c0400808f500002003200d00220004400370090
:105c14001e0090000080e800100798009e0090008d
:105c2400f07f2400808f5000f0ff3600e9e2a900e5
:105c3400401780004f00de00004078000080fb0029
:105c44000000e9004f00de00004078000080fb0007
:105c54004f00dd0042178000f1ff27008100610042
:105c64000080700040178800f00080001007980042
:105c7400060037001e0090008000eb000108780049
:105c84001e0090000080e800100798009e0090001d
:105c9400f07f2400808f5000f6ff3600f000800073
:105ca40010079800090037001e00900010007800cb
:105cb400e00f500002003200e0022000180037001c
:105cc4001e0090000080e800100798009e009000dd
:105cd400f07f2400808f5000f3ff3600e9e2a90032
:105ce400401780004f00de00004078000080fb0079
:105cf4000000e9004f00de00004078000080fb0057
:105d04004f00dd0042178000f1ff27008100610091
:105d14000080700040178800f00080000200070037
:105d24000080fa00000006000a00fa00400798000c
:105d34000000eb0030079800ce00900000802f0098
:105d440080804000f00080000280240000005100a8
:105d5400808f5000020034005003200059013700a6
:105d64000080200010079800f000800020079800b1
:105d74000a0037001e009000900078002e0090006a
:105d8400010878002e0090000080e80020079800a9
:105d94001e0090000080e800100798004e0090005c
:105da4009e009000808f5000f2ff3900e9e2a900c4
:105db400401780004f00de00004078000080fb00a8
:105dc4000000e9004f00de00004078000080fb0086
:105dd4004f00dd0042178000f1ff270081006100c1
:105de400008070004017880000802000000f7800b9
:105df400040037009e0078000040eb0080487800e3
:105e04001e0fe8004e0090009e007800808f500026
:105e1400f8ff390000802000000f780008003700e8
:105e24001e00780010407800e04f5000030032005c
:105e3400f002200030079800050037001e0fe8002c
:105e44004e0090009e007800808f5000f4ff3900cf
:105e5400e9e2a900401780004f00de00004078000e
:105e64000080fb000000e9004f00de0000407800e5
