:020000040000fa
:080000000002040000000000f2
:020000040000fa
:10040000ef8e20000e7f22000e0188000000000009
:100410000c000700a0dd2100010020000f000700f4
:10042000000020000000e000020032000000020096
:100430000000000018190200000000000040da006f
:100440000000fe00803d20000000e00002003200bd
:10045000002020009001880000000600a102880012
:10046000800078000000eb001a003700e2804000b6
:1004700054a0b4009101ba00e280400054a0b4003e
:100480009102ba00e280400054a0b4000002eb00e8
:10049000472bde00f507b200a6018800602ce100c2
:1004a00008003a000049eb000201e80002003900b0
:1004b0003420ec0002f0a0008301e900f9ff3e00c7
:1004c000040037006128e100010032000082eb00e7
:1004d000040007001101ba000200e000e3ff3a0047
:1004e0000000060004d0a300e20f49001c00390000
:1004f000810278003549ba000201e80002003900a3
:100500003420ec0002f0a0008301e9000f0032006b
:100510002549ba000201e800020039003420ec004d
:1005200002f0a0008301e900080032000400e000ae
:100530000600320015c9ba000201e80002003900c5
:100540003420ec0002f0a0008301e9008180e80083
:1005500054a0b4000300e000e2ff3a0000000600ef
:100560009102ba00055978008301e900f7ff3200d3
:10057000c82ade00055978008301e900f3ff320044
:100580000400e000f1ff320011d9ba00eeff37009d
:100590000040da000000fe006022b80006022000e1
:1005a0000000d0008180d2000482d2008582d20077
:1005b0000000a0000202520083825a0003003100b2
:1005c0000202420083824a000000a1000603e90003
:0805d000f3ff3a0000000600f1
:020000040000fa
:020000040002f8
:04aff0002dff000031
:020000040000fa
:020000040002f8
:04aff400ffef00006b
:020000040000fa
:020000040002f8
:04aff8009ff80000be
:020000040000fa
:020000040002f8
:04affc008f3a000088
:020000040000fa
:10000800c8020000c8020000c8020000c8020000c0
:10001800c8020000c8020000c8020000c8020000b0
:10002800c8020000c8020000c8020000c8020000a0
:10003800c8020000c8020000c8020000c802000090
:020000040000fa
:1005f800204c000043440000204300006f6e0000c0
:10060800747200006f6c00006c65000072200000be
:10061800204900006e740000657200006e610000e1
:100628006c20000042690000617300002020000077
:100638002056000042410000542000006f70000066
:100648006572000061740000696f00006e20000090
:10065800204600006f720000205000006f770000f5
:100668006572000020660000616900006c200000cf
:1006780020530000697800002043000068610000f2
:100688006e6e0000656c0000202000002020000035
:10069800204400004d410000206300006f6e000000
:1006a800747200006f6c00006c650000722000001e
:1006b8002052000054430000432000006f700000e7
:1006c8006572000061740000696f00006e20000010
:1006d800206900006e2000005642000041540000ce
:1006e800206d00006f6400006520000020200000dd
:1006f800204500006e680000616e00006365000020
:1007080064200000205000004d5000002020000010
:10071800204d00006f640000756c0000652000002b
:1007280020200000202000002020000020200000c1
:100738004d690000637200006f6300006869000083
:100748007020000020200000202000002020000051
:1007580054650000636800006e6f00006c6f000055
:10076800677900002c200000496e0000632000001b
:100778005072000065730000656e00007469000027
:100788006e670000207400006865000020200000eb
:100798005049000043320000344600004a3100004e
:1007a800323800004741000033310000302000009b
:1007b800436f0000707900007269000067680000ec
:1007c800742000003230000031300000202000008a
:1007d8002020000020200000202000002020000011
:1007e8002020000020200000202000002020000001
:1007f800313600002d6200006974000020200000de
:1008080020200000202000002020000020200000e0
:100818004d690000637200006f6300006f6e000096
:10082800747200006f6c00006c650000722000009c
:10083800313600004d49000050530000202f0000c1
:1008480020330000324d0000487a000020200000cc
:10085800322e000030560000202d0000203300000a
:100868002e36000056200000202000002020000026
:100878004665000061740000757200006573000031
:100888003a20000020200000202000002020000046
:1008980053740000616e000064610000726400001f
:1008a80020440000657600006963000065200000b0
:1008b800496e0000747200006f64000075630000e8
:1008c800696e0000672000004e6500007720000078
:1008d800507200006f64000075630000742000000f
:1008e80046650000617400007572000065730000c1
:1008f8003220000053500000492000006d6f0000b6
:10090800647500006c650000732000002020000062
:100918003220000049320000432000006d6f0000c3
:10092800647500006c650000732000002020000042
:10093800342000005541000052540000732000008c
:10094800772f000020490000724400004120000079
:1009580050610000726100006c6c0000656c000062
:10096800202000002020000020200000202000007f
:10097800456e0000682000005061000072610000b0
:100988006c6c0000656c0000202000002020000036
:100998004d61000073740000657200002050000073
:1009a8006f7200007420000020200000202000004a
:1009b80035300000306b000020730000616d0000ce
:1009c800706c00006520000020200000202000003e
:1009d800313000002d6200006974000020410000e1
:1009e8002f440000202000002020000020200000cc
:1009f8004368000061720000676500002054000031
:100a0800696d000065200000202000002020000003
:100a18004d6500006173000075720000656d00008f
:100a2800656e000074200000556e000069740000b7
:100a3800584c000050200000546500006368000016
:100a48006e6f00006c6f00006779000020200000c6
:100a5800323500006e41000020440000656500004a
:100a680070200000536c00006565000070200000d5
:100a780032300000306b000020730000616d000010
:100a8800706c00006520000020200000202000007d
:100a9800313200002d62000069740000204100001e
:100aa8002f440000206f000072200000202000006a
:100ab80037200000505700004d2000006f720000e2
:100ac800202000002020000020200000202000001e
:100ad8004f750000747000007574000020630000fa
:100ae8006f6d00007061000072650000202000003a
:100af80037200000496e0000707500007420000067
:100b080043610000707400007572000065200000e9
:100b180052650000616c00002d740000696d0000d2
:100b280065200000636c00006f6300006b2000000c
:100b3800616e000064200000636100006c650000c5
:100b48006e64000061720000202000002020000078
:100b58005761000074630000686400006f6700005c
:100b680020540000696d000065720000202000001c
:100b78004f6e00002d6300006869000070200000bf
:100b8800766f00006c74000061670000652000004b
:100b980072650000677500006c610000746f0000ea
:100ba80072200000202000002020000020200000eb
:100bb80035200000313600002d6200006974000005
:100bc80020740000696d0000657200007320000049
:100bd800333200002d62000069740000206f0000ad
:100be80070740000696f00006e7300002020000020
:100bf8004d6100006e790000206f000073630000f3
:100c0800696c00006c610000746f000072200000c5
:100c18006d6f000064650000732000002020000054
:100c280020200000202000002020000020200000bc
:100c3800384d0000487a0000206900006e740000fa
:100c4800657200006e6100006c200000202000002a
:100c58006f730000636900006c6c00006174000031
:100c68006f720000202000002020000020200000db
:100c7800506500007269000070680000657200002d
:100c8800616c000020500000696e00002020000008
:100c9800536500006c6500006374000020200000ac
:100ca800202000002020000020200000202000003c
:100cb80055530000422000004f6e00002d540000e4
:100cc800686500002d4700006f2c00002020000000
:100cd8004465000076690000636500002c20000070
:100ce800456d000062200000486f0000737400002a
:100cf8002020000045780000706c00006f72000032
:100d0800657200002031000036200000202000001d
:100d18000044000065760000656c00006f700000fc
:100d28006d6500006e7400002042000072640000cf
:100d3800200000000003000003060000010400007a
:100d48000602000005000000030500001f1c00004b
:100d58001f1e00001f1e00001f1f00001e1f000096
:100d68001e1f000000030000040600000709000021
:100d78000a0c00000003000004060000080c000034
:020000040000fa
:100d88000600fa00460137007162200091407800a1
:100d9800c0cfb30000c0600027e6b7002031800054
:100da800e04488007162200091407800c0cfb30011
:100db80000c060000004a00027e6b70020318000d2
:100dc800f04488007162200091407800c0cfb300e1
:100dd80000c060000014a00027e6b70020318000a2
:100de8000045880027c6bf003040b30027e6b7009b
:100df8002031800010458800716220009140780001
:100e0800c0cfb30000c0600027e6b70020318000e3
:100e1800204588007162200091407800c0cfb3005f
:100e280000c060000004a00027e6b7002031800061
:100e3800304588007162200091407800c0cfb3002f
:100e480000c060000014a00027e6b7002031800031
:100e58004045880027c6bf003040b30027e6b700ea
:100e68002031800050458800e14480002045800002
:100e7800808f50000a013a00f1448000304580001c
:100e8800808f500006013a000145800040458000ef
:100e9800808f500002013a001145800050458000c3
:100ea800808f5000fe003a00a1c8bf000080fb0000
:100eb8006101b900e0ff2f00f1ff2f00020140009f
:100ec800838148001207980023079800000120003a
:100ed800010020001e019000ae019000800f51001b
:100ee800818f590014003e001e009000ae00900053
:100ef80000600100170037001d003700230037008d
:100f0800290037002f003700350037003b00370035
:100f18004100370008003700070037000600370097
:100f28000500370004003700030037004100370090
:100f3800470037004d003700a0c4b3008ce8b70065
:100f480010c6b3008de8b700e0c6b3008ee8b7005e
:100f58004c00370060c4b3008ce8b70050c6b3003b
:100f68008de8b70020c6b3008ee8b700450037000b
:100f7800d0c4b3008ce8b70010c6b3008de8b70042
:100f880020c7b3008ee8b7003e00370010c4b30096
:100f98008ce8b70000c7b3008de8b70020c7b300de
:100fa8008ee8b70037003700d0c4b3008ce8b7002c
:100fb80010c6b3008de8b70090c7b3008ee8b7003d
:100fc80030003700a0c4b3008ce8b70050c7b300a6
:100fd8008de8b700e0c6b3008ee8b70029003700f7
:100fe800a0c4b3008ce8b70050c7b3008de8b700c1
:100ff800c0c6b3008ee8b7002200370010c4b300a3
:101008008ce8b70050c7b3008de8b70070c6b300ce
:101018008ee8b7001b00370030c5b3008ce8b70076
:1010280050c6b3008de8b70000c7b3008ee8b7001c
:1010380014003700f0c4b3008ce8b70030c6b30022
:101048008de8b70040c7b3008ee8b7000d00370041
:10105800e0c4b3008ce8b700f0c6b3008de8b70071
:1010680060c7b3008ee8b7000600370040c4b3007d
:101078008ce8b70050c6b3008de8b70030c6b3009f
:101088008ee8b70000c2b3008fe8b700c0c2b30053
:1010980092e8b70000c2b30093e8b70020c3b300da
:1010a80094e8b70000c3b30095e8b700a0c8bf0034
:1010b8000080fb004400de000043b00090e8b70069
:1010c800a0c8bf006f4060000043b00091e8b700bf
:1010d800a2c8bf000080fb004400de000043b0004f
:1010e80096e8b700a2c8bf006f4060000043b00098
:1010f80097e8b7009fc8bf000080fb00000f78008a
:101108009e007800e38f5000280032001e0178000e
:10111800e30f510007003c009e017800e18f510069
:10112800140032001e007800e20f50001800320050
:10113800090037009e007800e58f50002900320032
:101148001e017800e50f51001f0035009e01780050
:10115800e68f51002a00320030c5b3007ce8b700a2
:1011680050c7b3007de8b700e0c6b3007ee8b7001b
:1011780029003700d0c4b3007ce8b700f0c6b3003c
:101188007de8b700e0c6b3007ee8b700220037006c
:1011980040c5b3007ce8b70050c7b3007de8b7008e
:1011a80050c6b3007ee8b7001b00370070c5b30017
:1011b8007ce8b70050c6b3007de8b70040c6b3006e
:1011c8007ee8b7001400370040c5b3007ce8b700dc
:1011d80080c6b3007de8b70050c7b3007ee8b7000b
:1011e8000d00370060c4b3007ce8b70020c7b30027
:1011f8007de8b70090c6b3007ee8b7000600370068
:1012080030c5b3007ce8b70010c6b3007de8b7006e
:1012180040c7b3007ee8b70000c2b3007fe8b7005c
:10122800a0c3b30082e8b700a0c3b30085e8b70045
:101238009ec8bf000080fb004400de000043b000f1
:1012480080e8b7009ec8bf006f4060000043b00050
:1012580081e8b7009dc8bf000080fb004400de00a5
:101268000043b00083e8b7009dc8bf006f4060002e
:101278000043b00084e8b7009cc8bf000080fb00b2
:101288004400de000043b00086e8b7009cc8bf00f9
:101298006f4060000043b00087e8b70003003700e4
:1012a800acc8bf000004e000b7fe32000080fa00be
:1012b800000006001600fa002174200020c0b300c8
:1012c80062c4b30073c5b3008248780083487800cd
:1012d800804878000000eb00303188005501070095
:1012e80027e6a80027e6a80050c3b3000000fb00cb
:1012f8006f0060004400dd008040780010c3b30038
:101308006f40600000c070002047980000c3b30021
:101318000000fb006f0060004400dd0080407800a2
:1013280020c3b3006f40600000c0700030479800d1
:1013380000c3b3000000fb006f0060004400dd0044
:101348008040780090c3b3006f40600000c0700018
:101358004047980000c2b3000000fb006f00600027
:101368004400dd008040780020c3b3006f40600077
:1013780000c070007047980010c3b3000000fb0065
:101388006f0060004400dd008040780020c3b30097
:101398006f40600000c070005047980010c4b30050
:1013a8000000fb00000f9800a00420008e089000a9
:1013b800808f500027003200a00420000e09900002
:1013c800800f51000d003c00400420008e09900061
:1013d800808f510070003200600420008e08900059
:1013e800808f50003c003200100420000e0990004d
:1013f800800f51004d00320069003700e0042000e2
:101408008e099000808f510060003200e0042000b7
:101418008e089000808f500005003c00d00420000a
:101428000e099000800f51002e0032005c0037003a
:10143800f00420008e099000808f51005000320087
:10144800300520008e089000808f5000490032003f
:101458005300370000c7b3000000fb007007980076
:10146800100620007e019000800f51000500320018
:1014780050072000fe019000808f510004003200c8
:101488004700370010c0b300604798004400370099
:1014980020c7b3000000fb0060079800c0062000ca
:1014a800ee009000808f500008003200e006200017
:1014b8006e019000800f51000100320038003700a3
:1014c80060c0b300604798003500370070c0b300b3
:1014d800604798003200370020c0b300604798008a
:1014e8002f00370020c7b3000000fb00500798000a
:1014f80020072000de019000808f51000500320097
:1015080090072000de009000808f50000400320019
:101518002300370030c0b300604798002000370030
:1015280050c0b300604798001d00370000c7b300e3
:101538000000fb0040079800000720004e019000c3
:10154800800f51000500320050072000ce019000a6
:10155800808f5100040032001100370040c0b300f2
:10156800604798000e00370080c0b30060479800bd
:101578000b00370090c0b3006047980008003700a0
:1015880000c1b300604798000500370010c1b300e0
:10159800604798000200370020c1b30060479800f8
:1015a8002e409000a4e8b70010c0b300ace8b70024
:1015b8003e409000a5e8b70010c0b300ace8b70003
:1015c8004e409000a6e8b70010c0b300ace8b700e2
:1015d8007e409000a8e8b70010c0b300ace8b700a0
:1015e8006e409000a9e8b70010c0b300ace8b7009f
:1015f8005e409000aae8b70010c0b300ace8b7009e
:1016080060002000000f78005e4090000000fb00a2
:101618004480de000000fb006a00b900800078000a
:101628005e4090000000fb006f00600000804000fa
:101638001e0f40005e4090000000fb004480de006a
:101648000000fb006a00b900800078005e4090004e
:101658000000fb006f00600042002000811f78003e
:10166800110009000200d80001017800cf007800bd
:10167800008040001e0f40006e4090000000fb00fc
:101688006101b9000080eb008080eb00020140009e
:1016980083814800120f9800230f98001001200042
:1016a800010020001e099000ae099000800f510033
:1016b800818f590024003e001e089000ae0890005b
:1016c8000060010020003700100037000f003700cd
:1016d8001100370013003700140037000e003700e0
:1016e80015003700160037001700370016003700be
:1016f80015003700140037001300370012003700b8
:1017080011003700010037000d0037009e007800f7
:10171800638f40000c0037001e017800660f4100ff
:10172800090037001e0fe800070037009e01780007
:10173800648f4100040037001e8fe8000200370064
:101748001e007800650f40007e4090000000fb00fe
:101758004480de000000fb006a00b90080007800c9
:101768007e4090000000fb006f0060000080400099
:101778001e0f40001e0078007200200011000900b2
:101788000200d8008000fd00000f78001e007800dd
:10179800a7e8b70010c0b300ace8b7000200070024
:1017a8000080fa00000006000000fa00210007008f
:1017b8007162200091407800c0cfb30000c0600083
:1017c80027e6b7002045800020318800716220009c
:1017d80091407800c0cfb30000c060000004a000b2
:1017e80027e6b7003045800020318800716220006c
:1017f80091407800c0cfb30000c060000014a00082
:1018080027e6b700404580002031880027c6bf0082
:101818003040b30027e6b7005045800020318800eb
:1018280027a6a9000040eb00ace8b7000080fa004a
:10183800000006000000fa000500fc005705200023
:10184800373b8800a80a2000383b880027a6a80054
:1018580000000000000000000080fa000000060000
:101868000200fa00004f780000c0eb009e4f100005
:1018780002003a00b0c3b300004f7800c0c3b30001
:101888009e4f100002003a000040eb00004f780025
:101898001e80fb00a2002000110009000280d80071
:1018a8000080fb004400dd00804078001e80fb00c3
:1018b800a2002000811f7800110009000280d800d2
:1018c8000001780001007800cf00780000c07000a7
:1018d800a4e8b70010c0b300ace8b7000080fa0075
:1018e800000006000200fa00004f780000c0eb007c
:1018f8009e4f100002003a00b0c3b300004f7800ba
:10190800c0c3b3009e4f100002003a000040eb0035
:10191800004f78001e80fb00a20020001100090083
:101928000280d8000080fb004400dd008040780081
:101938001e80fb00a2002000811f78001100090012
:101948000280d8000001780001007800cf007800fc
:1019580000c07000a5e8b70010c0b300ace8b7003d
:101968000080fa00000006000200fa00004f78002c
:1019780000c0eb009e4f100002003a0070c1b30097
:10198800004f780080c1b3009e4f100002003a005b
:101998000040eb00004f78001e80fb00a2002000f2
:1019a800110009000280d8000080fb004400dd001f
:1019b800804078001e80fb00a2002000811f780074
:1019c800110009000280d8000001780001007800a9
:1019d800cf00780000c07000a6e8b70010c0b300c0
:1019e800ace8b7000080fa00000006000800fa0022
:1019f800aac8bf000080fb004400de000080fb0096
:101a08006a00b90080007800aac8bf000080fb0007
:101a18006f0060000080400030079800a9c8bf0030
:101a28000080fb004400de000080fb006a00b90073
:101a380080007800a9c8bf000080fb006f0060002c
:101a48000080400020079800a8c8bf000080fb0065
:101a58004400de000080fb006a00b90080007800c6
:101a6800a8c8bf000080fb006f0060000080400035
:101a7800100798003e009000c200de003e00900073
:101a880000804000660f40002e0090008000e900b2
:101a9800e0692800614078000000fb001e0f40004c
:101aa8001e0090001e0f40003e0090006300600082
:101ab8000000e00004003a002e009000e20f500001
:101ac80001003e001e0fe9001e0078007200200091
:101ad800110009000280d8008000fd00000f780086
:101ae8001e007800a7e8b70010c0b300ace8b70044
:101af8000080fa00000006000800fa00604798001d
:101b0800a9c8bf000080fb004400de000080fb0085
:101b18006a00b90080007800a9c8bf000080fb00f7
:101b28006f0060000080400010079800aac8bf003e
:101b38000080fb004400de000080fb006a00b90062
:101b480080007800aac8bf000080fb006f0060001a
:101b580000804000000f78001e0090008000e9001f
:101b6800a06a2800614078000000fb002007980068
:101b78001e009000e20f500007003a009e00780017
:101b8800638060000000e00003003a002e0090002f
:101b98000000e800200798006e4090000004e00074
:101ba80002003a002e009000604798006e409000b6
:101bb8008080fb002e009000808f500002003600cd
:101bc80010c0b300604798006e4090000080fb0092
:101bd800a2002000110009000280d8000080fb004c
:101be8004400dd00804078006e4090000080fb00db
:101bf800a2002000811f7800110009000280d8008f
:101c08000001780001007800cf00780000c0700063
:101c1800a8e8b70010c0b300ace8b7000080fa002d
:101c2800000006000200fa00004f78001e04e000e1
:101c380002003a00c0c0b300004f7800c0c0b30033
:101c48009e4f10000200360010c0b300004f78000d
:101c58001e80fb00a2002000110009000280d800ad
:101c68000080fb004400dd00804078001e80fb00ff
:101c7800a2002000811f7800110009000280d8000e
:101c88000001780001007800cf00780000c07000e3
:101c9800a9e8b70010c0b300ace8b7000080fa00ac
:101ca800000006000200fa00004f780000c0eb00b8
:101cb8009e4f100002003a0030c6b300004f780073
:101cc80040c6b3009e4f100002003a000040eb00ef
:101cd800004f78001e80fb00a200200011000900c0
:101ce8000280d8000080fb004400dd0080407800be
:101cf8001e80fb00a2002000811f7800110009004f
:101d08000280d8000001780001007800cf00780038
:101d180000c07000aae8b70010c0b300ace8b70074
:101d2800a8c8bf000080fb004400de000080fb0064
:101d38006a00b90080407800a8c8bf006f40600002
:101d480000c040006cff07000080fa000000060099
:101d58000000fa000000eb00101a880050f0210083
:101d6800201a8800400e2800001a88005000200021
:101d7800401a8800c842a800c862a8004007280086
:101d8800001a880050002000401a88000000eb006c
:101d9800801a880080252000f04588004006200031
:101da8000046880010c0b300bce8b7000040eb0054
:101db800c2e8b7000040eb00c6e8b7000080fa00b0
:101dc800000006000600fa00bcc8bf000080fb0047
:101dd800200798002e009000e20f50008a00320081
:101de800ae009000e28f500004003c002e029000ec
:101df800e10f5200080032008f0037002e009000db
:101e0800e30f500028003200ae009000e48f50002d
:101e18007d0032008800370040c3bf006140600089
:101e28000004e000fcff32000018800001002000e0
:101e3800008fbe009e00780040ce20000009b80048
:101e48001e0078006000b90003027800000242001a
:101e58009e00900040ce20000088b9000002420099
:101e680084017800461add004a10de000000720086
:101e7800ca18de00008fbe00228620001e007800ef
:101e880011c0b3007000070000c2b30066e8b700d5
:101e980040002000401a8800bcc8bf000040e8008d
:101ea800bce8b7006600370040c3bf00614060006f
:101eb8000004e000fcff3200001880000100200050
:101ec800008fbe0021468000204680004400de00ce
:101ed80000805000204688009e0078002046800040
:101ee8000080400020468800204680004400de0034
:101ef80001002000008fbe0000c2b30079e8b700df
:101f0800490107000004e000050032002a0107002b
:101f180001002000008fbe00d0c4b30079e8b700ec
:101f2800004680000000e900004688000046800066
:101f3800e10f40000d003a004006200000468800ee
:101f4800c2c8bf000004a200c2e8b700c2c8bf00f0
:101f58000004e0000300320030c4b30077e8b700a3
:101f68000200370060c4b30077e8b700c2c8bf00fa
:101f78000004e00005003200228720001e007800df
:101f880031c0b30030000700190037009e00780008
:101f980090002000000ab8001e0078006000b90018
:101fa80005017800000141001e0090006900b90099
:101fb8000001410082027800048fbe001e00be00ae
:101fc800520020000300200071f90700008fbe00b6
:101fd80000142000010020001e0f40005e974800fa
:101fe800228720001e00780031c0b30016000700c9
:101ff80050002000401a8800bcc8bf000040e8001c
:10200800bce8b7000e003700f04580000000e9008a
:10201800f0458800f0458000e10f400008003a00d4
:1020280080252000f0458800bcc8bf000040e800bb
:10203800bce8b7000200370010c0b300bce8b70026
:102048000080fa00000006000800fa001007980057
:1020580041479800320798000040eb00004f780095
:10206800070037001e80fb00800078003e009000cb
:102078008080400000c2b300804878001e4fe8000e
:1020880040c0b3009e4f1000f6ff36000040eb0042
:10209800004f78009e80fb004e4090000000fb003f
:1020a800808f50000c003a00be00900000c3b300bf
:1020b800804878003e0090000000e8003007980053
:1020c800be009000e0c2b300804878003e00900057
:1020d8000000e800300798001e4fe8001e0090003e
:1020e800823e2000110009000200d8001047980025
:1020f8001e4090008000fb00803e20000088b90050
:10210800800078001e009000010050001007980021
:102118001e4090000004e000090032001e409000bc
:1021280002c3b300824040003e009000014878009e
:102138003e0090000000e800300798000b003700d0
:102148001e80fb00ce4090008100fb00810f5000f4
:1021580006003500be00900000c3b3008048780038
:102168003e0090000000e800300798001e80fb0049
:10217800ce4090008100fb00810f500006003a001d
:10218800be009000e0c2b300804878003e00900096
:102198000000e800300798001e4fe8001e0090007d
:1021a80042062000110009000200d80010479800dc
:1021b8001e4090008000fb00400620000088b90007
:1021c800800078001e009000010050001007980061
:1021d8001e4090000004e000090032001e409000fc
:1021e80002c3b300824040003e00900001487800de
:1021f8003e0090000000e800300798000b00370010
:102208001e80fb00ce4090008100fb00810f500033
:1022180006003500be00900000c3b3008048780077
:102228003e0090000000e800300798001e80fb0088
:10223800ce4090008100fb00810f500006003a005c
:10224800be009000e0c2b300804878003e009000d5
:102258000000e800300798001e4fe8001e009000bc
:10226800a2002000110009000200d80010479800c1
:102278001e4090000000fb006a00b9008000780052
:102288001e00900001005000100798001e409000aa
:102298000004e000090032001e40900002c3b300b1
:1022a800824040003e009000014878003e009000c7
:1022b8000000e800300798000b0037001e80fb0084
:1022c800ce4090008100fb00810f500006003500d1
:1022d800be00900000c3b300804878003e00900024
:1022e8000000e800300798001e80fb00ce409000f8
:1022f8008100fb00810f500006003a00be009000ec
:10230800e0c2b300804878003e0090000000e8007a
:10231800300798001e4fe8001e0090000000e00003
:10232800090032001e00900002c3b3008240400042
:102338003e009000014878003e0090000000e80050
:10234800300798000b0037001e80fb00ce4090003d
:102358008100fb00810f500006003500be00900090
:1023680000c3b300804878003e0090000000e800f9
:10237800300798000080fa00000006000200fa000a
:10238800204680004400de00000f78001e00780020
:102398004800de000080fb008000eb004d050700d0
:1023a8001e0078000080fb0011002000490507008e
:1023b8000080fa00000006000200fa000000eb00ae
:1023c80065050700000f78001e007800c800dd00d2
:1023d80000f02f00008f6000100020005e0507004d
:1023e80080007800f00f2000008060001e0f700051
:1023f800e03d20009e0f100002003600a00f2000d4
:10240800000f78001e0078000080fa000000060027
:102418000000fa00c6c8bf000004a200c6e8b70062
:102428000080fa00000006000000fa00c6c8bf00dd
:102438000080fb000080fa00000006000000fa009f
:1024480000c1b300cce8b70010c0b300c8e8b700bb
:102458002000200070468800c08720005046880071
:1024680010c0b300d2e8b7000080fa0000000600f0
:102478000000fa00edc8bf000004a200ede8b700b4
:10248800edc8bf000004e0000200320010c0b30035
:10249800d2e8b7000080fa00000006000000fa0049
:1024a800edc8bf000000fb000080fa000000060035
:1024b8000000fa00d2c8bf000040e800d2e8b70028
:1024c800d2c8bf00e64f50000200360010c0b3006b
:1024d800d2e8b7000080fa00000006000200fa0007
:1024e800edc8bf000004e00032003200d2c8bf00cf
:1024f800e34f500018003e00d2c8bf000080fb0028
:1025080080004000606b280061407800004f780030
:10251800060037009e80fb00c087200080804000b6
:1025280000c2b300804878001e4fe8001e81fb00ff
:10253800d2c8bf000080fb00000040008000e80017
:10254800606b2800614078000000fb00800f51009c
:10255800f0ff350017003700d2c8bf000080fb002d
:1025680080004000606b280061407800004f7800d0
:10257800060037009e80fb00c08820008080400055
:1025880000c2b300804878001e4fe8001e81fb009f
:10259800d2c8bf000080fb00000040008000e800b7
:1025a800606b2800614078000000fb00800f51003c
:1025b800f0ff35000080fa00000006000600fa006f
:1025c80020479800edc8bf000004e00090003200ea
:1025d80098fc0700d2c8bf000080fb0020079800c5
:1025e8002e009000e30f50003a0032002e009000b9
:1025f800e30f500007003c002e009000e10f500050
:102608000e0032002e009000e10f50001e003c002a
:102618007e0037002e009000e50f50005400320075
:102628002e009000e50f50003d0035002e00900070
:10263800e60f50006200320074003700a6c8bf00e1
:102648000080fb004400de000080fb006a00b90047
:1026580080407800a6c8bf006f40600000c04000fe
:10266800004f78002e4090000004e0000200320085
:102678001e4fe800010037001e4fe9001e40780099
:10268800b9fc070061003700a5c8bf000080fb0047
:102698004400de000080fb006a00b900804078003a
:1026a800a5c8bf006f40600000c04000004f780020
:1026b8002e4090000004e000020032001e4fe800a7
:1026c800010037001e4fe9001e40780085fc070016
:1026d8004e003700a4c8bf000080fb004400de00a5
:1026e8000080fb006a00b90080407800a4c8bf00e1
:1026f8006f40600000c04000004f78002e409000fe
:102708000004e000020032001e4fe800010037001c
:102718001e4fe9001e40780051fc07003b003700bf
:10272800a9c8bf000080fb004400de000080fb0059
:102738006a00b90080407800a9c8bf006f406000f7
:1027480000c04000004f78002e4090000004e000d8
:10275800020032001e4fe800010037001e4fe9005a
:102768001e4078002ffd0700a0fc07002700370057
:10277800a8c8bf000080fb004400de000080fb000a
:102788006a00b90080407800a8c8bf006f406000a8
:1027980000c04000004f78002e4090000004e00088
:1027a800020032001e4fe800010037001e4fe9000a
:1027b8001e407800d0fc07008cfc0700130037008f
:1027c800aac8bf000080fb004400de000080fb00b8
:1027d8006a00b90080407800aac8bf006f40600056
:1027e80000c04000004f78002e4090000004e00038
:1027f800020032001e4fe800010037001e4fe900ba
:102808001e40780027fd070078fc0700e6fb07005c
:102818000080fa00000006000200fa00c8c8bf00e5
:102828000080fb00000f78001e007800e30f5000c6
:102838003a0032001e007800e30f500007003c0009
:102848001e007800e10f50000e0032001e007800d4
:10285800e20f500018003200610037001e007800b7
:10286800e50f5000140032001e007800e50f5000fc
:10287800040035001e007800e60f500046003200c4
:1028880057003700704680000000e0000400320066
:10289800704680000000e90070468800520037004a
:1028a800c8c8bf000040e800c8e8b7002000200002
:1028b800704688004c003700e9c8bf000004e000fb
:1028c80049003a005046800010407800e8e8b70018
:1028d80030c0b300e9e8b700504680000000e800c7
:1028e80050468800ccc8bf000040e900cce8b700db
:1028f800ccc8bf000004e00004003a00c8c8bf000c
:102908000040e800c8e8b70037003700c8c8bf0073
:102918000040e900c8e8b70033003700e9c8bf0045
:102928000004e00030003a0000ccb300e8e8b7004b
:1029380060c0b300e9e8b70000c1b300cce8b70055
:10294800804680000000e9008046880080468000bc
:10295800e10f400005003200ecc8bf000004a200ef
:10296800ece8b70000e224008046880004f907007c
:10297800ecc8bf000004e00001003200d7fe0700e9
:10298800c088200050468800c8c8bf000040e80042
:10299800c8e8b70014003700e9c8bf000004e00029
:1029a80011003a0050c0b300e9e8b7000040eb005e
:1029b800e8e8b70010c0b300c8e8b70000c1b3002a
:1029c800cce8b700ecc8bf000004e000010032000a
:1029d800c2fe0700c087200050468800020037006a
:1029e8000040eb00c8e8b7000080fa0000000600cd
:1029f8002800fa00e9c8bf000080fb006101b900a7
:102a08000080eb008080eb000201400083814800d9
:102a1800028fbe0070042000010020001e01be00cd
:102a2800800f5100818f5900ff003e001e00be003c
:102a38000060010047003700500037006000370091
:102a4800720037008300370094003700f600370023
:102a5800f5003700f4003700f3003700f2003700c4
:102a6800f1003700f0003700ef003700ee003700c4
:102a7800ed003700ec003700eb003700ea003700c4
:102a8800e9003700e8003700e7003700e6003700c4
:102a9800e5003700e4003700e3003700e2003700c4
:102aa800e1003700e0003700df003700de003700c4
:102ab800dd003700dc003700db003700da003700c4
:102ac800d9003700d8003700d7003700d6003700c4
:102ad800d5003700d4003700d3003700d2003700c4
:102ae800d1003700d0003700cf003700ce003700c4
:102af800cd003700cc003700cb003700ca003700c4
:102b0800c9003700c8003700c7003700c6003700c3
:102b1800c5003700c4003700c3003700c2003700c3
:102b2800c1003700c0003700bf003700be003700c3
:102b38006b003700750037006900370084003700e4
:102b4800670037009300370065003700a2003700a0
:102b5800b2003700304780000000e0000400320077
:102b6800304780000000e90030478800b000370097
:102b78000040eb00e9e8b700ad003700ae00070001
:102b88008001eb0001002800210798004200200086
:102b980032079800a20180003e009000ae0090002d
:102ba800a001880083087800a201880000c4b3004f
:102bb800e9e8b700007d2000304788009c00370016
:102bc80010c0b300e9e8b700a00020003047880033
:102bd800e8c8bf008081fb0020002800400798005b
:102be8004100200051079800a20180005e0090007b
:102bf800ce009000a001880083087800a201880018
:102c0800e8c8bf00990307008900370010c0b30067
:102c1800e9e8b70060092000304788001300200069
:102c28000200280062079800400020007007980002
:102c3800a20180007e009000ee009000a0018800b4
:102c480083087800a2018800d0c0b300870307007a
:102c58007700370010c0b300e9e8b700600920002a
:102c6800304788002300200001002800010f980049
:102c780042002000120f9800a20180001e08900058
:102c88008e089000a001880083087800a2018800bf
:102c9800d0c0b300750307006500370010c0b3004b
:102ca800e9e8b700a000200030478800e8c8bf0066
:102cb8008081fb0000002800200f980041002000c0
:102cc800310f9800a20180003e089000ae089000e5
:102cd800a001880083087800a2018800540037000a
:102ce800304780000000e0000400320030478000d8
:102cf8000000e900304788004d003700e9c8bf00f0
:102d08000040e800e9e8b70049003700e9c8bf001b
:102d18000040e800e9e8b700a0002000304788003c
:102d2800c303200002002800420f98004000200042
:102d3800500f9800a20180005e089000ce08900015
:102d4800a001880083087800a201880038003700b5
:102d5800e9c8bf000040e800e9e8b700a00020008b
:102d680030478800c300200001002800610f980048
:102d780042002000720f9800a20180007e08900097
:102d8800ee089000a001880083087800a20188005e
:102d980027003700e9c8bf000040e800e9e8b700ad
:102da8006009200030478800130020000000280038
:102db800001798004100200011179800a201800018
:102dc8001e1090008e109000a001880083087800e3
:102dd800a201880016003700e9c8bf000040e800db
:102de800e9e8b70060092000304788006300200048
:102df8000200280022179800400020003017980091
:102e0800a20180003e109000ae109000a001880042
:102e180083087800a2018800050037000040eb0015
:102e2800e9e8b700020037000040eb00e9e8b70026
:102e38000080fa00000006000000fa00116020007f
:102e48009140780070ceb30000c0600001e6b70082
:102e580001c6bf003040b30001e6b70000c6bf009e
:102e6800f043b20000e6b70000a6a9000086a9005a
:102e78000046a900002020005030880009e6a9007b
:102e880009c6a8000986a8000946a8000926a800be
:102e980009a6a8000906a9008160200091407800d1
:102ea800f0c9b30000c0600001c4b3000140700065
:102eb80008e6b7000dc6bf00f043b2000de6b70044
:102ec8000cc6bf00f043b20001c4b300014070005b
:102ed8000ce6b700c16020009140780030ccb30008
:102ee80000c060000024a0000ce6b700c16020000c
:102ef80091407800c0cfb30000c060000004a0007b
:102f08000ce6b7000040eb0002e6b7001000200016
:102f18003030880005e6a80005c6a8000586a80088
:102f280005a6a800516020009140780090cfb3001a
:102f380000c0600005e6b7000506a90001e6a80084
:102f48000080fa00000006000000fa0000c8b30084
:102f5800b0e8b70000c8b300b1e8b70000c8b300d4
:102f6800b2e8b70000c8b300b3e8b7000080fa00c1
:102f7800000006000000fa00d8c2bf000080fb0075
:102f88004600de00614060000080fb00a04588002c
:102f9800d8c2bf000080fb004700de000080fb00b5
:102fa800b0458800c0c2bf000080fb004700de00bb
:102fb8000080fb00c0458800d9c2bf000080fb002c
:102fc8004500de00614060000080fb00d0458800bd
:102fd800d8c2a800d8e2a800c0e2a800d9a2a800d8
:102fe800dac2bf000044b2000004e0000c003a005e
:102ff800b0c8bf000040e800b0e8b700018b20006f
:103008009140780040c9b30080cf50000f003600cf
:1030180040c9b300b0e8b700ae08a8000b003700fd
:10302800b0c8bf000040e900b0e8b700018b20003d
:1030380091407800b0c6b30080cf500003003e0036
:10304800c0c6b300b0e8b700ae08a900dac2bf0036
:1030580001c8b300014060000004e0000c003a0021
:10306800b1c8bf000040e800b1e8b700118b2000ec
:103078009140780040c9b30080cf50000f0036005f
:1030880040c9b300b1e8b700ae28a8000b0037006c
:10309800b1c8bf000040e900b1e8b700118b2000bb
:1030a80091407800b0c6b30080cf500003003e00c6
:1030b800c0c6b300b1e8b700ae28a900c2c2bf00bd
:1030c80001c8b300014060000004e0000c003a00b1
:1030d800b2c8bf000040e800b2e8b700218b20006a
:1030e8009140780040c9b30080cf50000f003600ef
:1030f80040c9b300b2e8b700ae48a8000b003700db
:10310800b2c8bf000040e900b2e8b700218b200038
:1031180091407800b0c6b30080cf500003003e0055
:10312800c0c6b300b2e8b700ae48a900dbc2bf0012
:103138000042b2000004e0000c003a00b3c8bf002f
:103148000040e800b3e8b700318b200091407800d8
:1031580040c9b30080cf50000f00360040c9b3000b
:10316800b3e8b700ae68a8000b003700b3c8bf00cb
:103178000040e900b3e8b700318b200091407800a7
:10318800b0c6b30080cf500003003e00c0c6b300f5
:10319800b3e8b700ae68a900a045800061406000b0
:1031a800614060004601dd00812d200091407800db
:1031b800f0cbb30000c0600002407000d8e2b70056
:1031c800b045800061406000c700dd00d8c2bf0084
:1031d8000074a10001407000d8e2b700c04580002b
:1031e80061406000c700dd00c0c2bf000074a100dc
:1031f80001407000c0e2b700d04580006140600027
:10320800614060004501dd00912d2000914078006b
:10321800f0cdb30000c0600002407000d9e2b700f2
:103228000080fa00000006000400fa000040eb00ed
:10323800eae8b7000000eb0000278800e6c4a90010
:10324800e6e4a900b4020700d4020700e50207007b
:1032580098010700f70107000603070020c0b30024
:10326800e9e8b70038ff0700b9fa07008e00070041
:1032780010f8070000003700ddfd0700d1fa07004d
:103288000b0307000004e000fbff320039ff0700d2
:10329800eac8bf000080fb00100798001e009000dd
:1032a800e10f50000b0032001e009000e20f5000aa
:1032b800060032001e0090000000e000010032000d
:1032c800060037008a0007000600370052fd070095
:1032d8000400370015010700020037000040eb002a
:1032e800eae8b70070458000680060000000e00070
:1032f8002a00320069fc07000004e00020003a00c0
:10330800eac8bf000040e800eae8b700eac8bf0022
:10331800e24f5000020036000040eb00eae8b70038
:10332800eac8bf000080fb00000f78001e0078008c
:10333800e10f50000b0032001e007800e20f500031
:10334800060032001e0078000000e0000100320094
:10335800060037005d0007000600370037fc07004d
:1033680004003700e6000700020037000040eb00c9
:10337800eae8b70040c0b300e9e8b7000300370047
:103388004bfc070001003700fafe0700704580007b
:10339800680060000000e000fbff3a00eac8bf00d8
:1033a800e24f500026003a0070458000610060003e
:1033b8000000e000070032002dfc07000100370084
:1033c800ecfe070070458000610060000000e0002e
:1033d800fbff3a0031fc07000004e000180032004f
:1033e80070458000620060000000e00008003200c4
:1033f80010c0b30071fc070001003700ddfe0700b4
:1034080070458000620060000000e000fbff3a00a9
:1034180070458000640060000000e0000800320091
:103428000040eb0065fc070001003700d1fe0700f3
:1034380070458000640060000000e000fbff3a0077
:10344800eac8bf00e14f50008bff3a00704580008a
:10345800620060000000e00007003200ecfb07009b
:1034680001003700c3fe070070458000620060005d
:103478000000e000fbff3a00704580006400600037
:103488000000e0007cff3200bcfb070001003700b1
:10349800b8fe070070458000640060000000e0008e
:1034a800fbff3a0074ff37000000fa0030c0b30099
:1034b800d5e8b700c0c2b300d4e8b700007d20004b
:1034c800d04688000080fa00000006000000fa00dc
:1034d80090c0b300d5e8b7000040eb00d4e8b700cf
:1034e80040012000d04688000080fa000000060055
:1034f8000200fa00d5c8bf000080fb00000f78006a
:103508001e007800e60f5000500032001e007800c0
:10351800e60f50000a003c001e007800e40f50003f
:10352800110032001e007800e40f50001b003c0020
:103538001e007800e30f50002d0032006c003700a9
:103548001e007800e80f5000140032001e007800ba
:10355800e80f5000040035001e007800e90f500005
:103568005100320062003700e04680000000e000b1
:1035780004003200e04680000000e900e0468800d0
:103588005d003700d5c8bf000040e800d5e8b700a7
:1035980010002000e046880057003700e9c8bf0047
:1035a8000004e00054003a00b04680001040780063
:1035b800e8e8b70030c0b300e9e8b700b0468000db
:1035c8000000e800b0468800d8c8bf000040e90005
:1035d800d8e8b700d8c8bf000004e00046003a00a9
:1035e800d5c8bf000040e800d5e8b7004200370062
:1035f800e9c8bf000004e0003f003a0050c0b30033
:10360800e9e8b7000040eb00e8e8b700d4c8bf001d
:103618000080fb0080004000008020000080400007
:1036280010007800b0468800d4c8bf000040e80009
:10363800d4e8b70000c1b300d8e8b700d5c8bf00c8
:103648000040e800d5e8b7002b003700e9c8bf0004
:103658000004e00028003a0000ccb300e8e8b70016
:1036680060c0b300e9e8b700d4c8bf000080fb0021
:10367800800040000080200000804000100078009a
:10368800b0468800d4c8bf000040e800d4e8b700be
:1036980000c1b300d8e8b700d5c8bf000040e800b3
:1036a800d5e8b70014003700d04680000000e900d4
:1036b800d0468800d0468000e10f40000e003a0056
:1036c800418d200091407800b0c2b30080cf5000f7
:1036d800020036000040eb00d4e8b700007d20006f
:1036e800d046880030c0b300d5e8b70002003700e4
:1036f80030c0b300d5e8b7000080fa00000006002b
:103708000000fa0000c1b300e2e8b70010c0b3003f
:10371800dee8b7002000200020478800c085200090
:10372800004788000080fa00000006000200fa0046
:10373800dec8bf000080fb00000f78001e00780084
:10374800e30f50003a0032001e007800e30f5000eb
:1037580007003c001e007800e10f50000e00320008
:103768001e007800e20f5000180032004d003700ac
:103778001e007800e50f5000140032001e0078008b
:10378800e50f5000040035001e007800e60f5000d9
:103798003600320043003700204780000000e00078
:1037a80004003200204780000000e900204788001c
:1037b8003e003700dec8bf000040e800dee8b70082
:1037c800200020002047880038003700e9c8bf00e3
:1037d8000004e00035003a000047800010407800ff
:1037e800e8e8b70030c0b300e9e8b7000047800058
:1037f8000000e80000478800e2c8bf000040e90078
:10380800e2e8b700e2c8bf000004e00004003a00a4
:10381800dec8bf000040e800dee8b700230037003c
:10382800dec8bf000040e900dee8b7001f0037002f
:10383800e9c8bf000004e0001c003a0000ccb30057
:10384800e8e8b70060c0b300e9e8b70000c1b3001a
:10385800e2e8b700c086200000478800dec8bf0045
:103868000040e800dee8b70010003700e9c8bf00f4
:103878000004e0000d003a0050c0b300e9e8b700ca
:103888000040eb00e8e8b70010c0b300dee8b7007e
:1038980000c1b300e2e8b700c085200000478800f7
:1038a800020037000040eb00dee8b7000080fa00b5
:1038b800000006000000fa00f402a800f002a900c7
:1038c800f0c2a900f102a900f0e2a8000080fa0005
:1038d800000006000600fa00000f780011079800a3
:1038e80038000700f402a900200020004e0107005c
:1038f80058010700401380001e0090004800de00b9
:103908000080fb00480107005201070040138000b7
:103918001e0090000080fb00430107004d010700d6
:10392800401380001e0078003f010700490107008e
:1039380040138000f402a800640047002a00070032
:103948004e409000614060000004e000faff3a0039
:103958000080fa00000006000400fa001007980032
:10396800f402a900300020002f01070039010700e8
:10397800401380001e0090004800de000080fb001d
:103988002901070033010700401380001e00900042
:103998000080fb00240107002e010700401380006f
:1039a8000000eb00200107002a01070040138000f7
:1039b800000f7800f402a8001e0078000080fa00ca
:1039c800000006000000fa00f402a90060002000d0
:1039d800150107001f01070040138000f402a8002a
:1039e8000080fa00000006000200fa00881f780034
:1039f80000047800f402a900500020000a01070022
:103a080014010700401380000000eb0006010700c6
:103a18001001070040138000004f7800f402a8004e
:103a28001e4c7800080078004f0478000080fa00e7
:103a3800000006000000fa00e8a2a900e882a80039
:103a4800c0002000c01188000000eb008011880031
:103a58000000eb009011880031e2a8003342a80072
:103a680087c0a9000080fa00000006000200fa00e2
:103a7800004f780033c2bf00624060000004e000dd
:103a8800fcff3a001e00fb00a01188000080fa002d
:103a9800000006000200fa0087c0bf000044b20020
:103aa8000004e0000300320010002000000f78003e
:103ab800020037000000eb00000f78001e007800bd
:103ac8000080fa00000006000200fa0087c0bf006c
:103ad8000044b2000004e000fcff3200b011800096
:103ae800004f780087c0a9001e00fb000080fa0084
:103af800000006000400fa00204798002e409000bd
:103b0800004f780030c6b3009e4f10000600360004
:103b18001e80fb0042062000110009000280d80028
:103b28000043b000d1ff07009e4178001e80fb00d3
:103b380042062000110009000280d8008080fb00a6
:103b4800400620000088b90000c05100004f7800ee
:103b580090c0b3009e4f1000060036001e80fb0088
:103b6800a2002000110009000280d8000043b00024
:103b7800beff07009e4178001e80fb00a2002000c7
:103b8800110009000280d8000080fb006a00b9001b
:103b980000c05100004f78001e4078000043b0007c
:0c3ba800b2ff07000080fa0000000600d9
:020000040000fa
:103bb4005c0800002000000082000000566f6c00ca
:103bc400203d20002020200020205600202020001e
:103bd40020546d0070203d00202020002020200073
:103be4004320200020200000bc0800000c0000003e
:103bf40080000000000800005c000000820000005b
:103c04009c83ac0083fc83000c84bc0083cc8300c5
:103c14001c832c00838c85009c855c00836c830052
:103c24003c834c00833c8400ec82dc0083ec830006
:103c3400fc820c0083fc84000c851c00842c840012
:103c44007c838c00837c84008c849c00847c850031
:103c54005c856c0085dc8500ec85dc0084ec8400ec
:103c6400ac85ec0082bc8500cc85fc00850c86000c
:103c74001c862c00867c86008d860000d4080000fb
:103c84000a00000080000000ea08000002000000b2
:103c9400800000007c08000020000000820000007a
:103ca4002020200020202000202020002020200090
:103cb4002020200020202000202020002020200080
:103cc4002020200020202000202000009c0800004c
:103cd4001200000080000000ec0800000200000058
:103ce4008200000000000000c80800000c00000072
:103cf40080000000de0800000800000080000000d2
:103d0400e60800000400000080000000ae08000087
:0c3d14000e000000800000000000000015
:020000040000fa
:103d20000000fa00616a20009140780000ccb300e6
:103d300000c06000a040b300a6e6b700c16a200042
:103d40009140780000ccb30000c06000a041b300f7
:103d5000ace6b700116d20009140780000ccb300b4
:103d600000c060005040b300d1e6b700516d2000a4
:103d70009140780000ccb30000c06000b040b300b8
:103d8000d5e6b700316d20009140780000ccb3003b
:103d900000c06000a040b300d3e6b7000080fa0086
:103da000000006000000fa002174200062042000d8
:103db00073052000824878008348780042c7a80035
:103dc0000080fa00000006000000fa0021742000c4
:103dd0006204200073052000824878008348780040
:103de00042c7a9000080fa00000006000000fa00a7
:103df0000000eb00001388000000eb0010138800a7
:103e000062a2a8000000eb00201388006342a90012
:103e10006302a90062c2a8006322a8009820a9003a
:103e20008820a90061e2a8000080fa0000000600d6
:103e30000200fa00000f780060c2bf00624060001c
:103e40000004e000fcff3a001e00780040138800e8
:103e50000000eb000080fa00000006000000fa00fd
:103e600060c2bf00614060000004e000fcff32005f
:103e70000000eb000080fa00000006000000fa00dd
:103e8000f02f200010088800510a2000914078008f
:103e9000f0c8b30000c0600001c5b300014070006d
:103ea000a5e0b70000012800200888008460a90070
:103eb0000080fa00000006000200fa0084c0bf0083
:103ec000684060000004e000040032008460a90043
:103ed00010002000000f7800020037000000eb0007
:103ee000000f78001e0078000080fa000000060035
:00000001FF
