:080000008C82040000000000E6
:1004000025300000326400003A2500003032000040
:100410006400000025640000202500006400000046
:1004200025300000326400005C780000423000009B
:100430004300000033200000454200004542000018
:10044000454200000033000037390000003300004F
:100450003039000000330000333700000034000062
:100460003037000000320000393500000033000052
:100470003635000000310000313900002034000022
:100480003335000000330000393300000033000032
:10049000323300000033000035310000003400002A
:1004A00032310000004500006E71000075650000EB
:1004B00075650000466F00006E740000436F000019
:1004C0006C6F0000724100006E6400005465000013
:1004D000787400002829000000500000726F0000AE
:1004E00067720000616D00006D610000626C0000C9
:1004F00065420000746E00007328000029000000AF
:1005000050720000696E00007454000065780000AD
:1005100074490000746500006D2800002900000087
:1005200050720000696E000074540000656D000098
:100530007065000072610000747500007265000053
:100540002829000000500000726900006E7400004D
:10055000496D000070650000646100006E6300007A
:10056000652800002900000050720000696E00003C
:100570007447000072610000706800006963000049
:100580002829000000500000726900006E7400000D
:100590005246000047720000617000006869000068
:1005A00063280000290000007420000022000000E1
:1005B0007466000020330000202200000074000058
:1005C0006620000032200000220000007869000050
:1005D00020000000722000003739000020000000D9
:1005E00022200000002A000061620000740D00005B
:1005F000005300002046000046460000464600002A
:1006000046200000464600004646000046460000E0
:100610000D0000005320000030300000303000009A
:1006200030300000204600004646000046460000EC
:10063000460D000000720000203700003920000045
:10064000323900003520000031310000392000002F
:100650003433000035200000332000004542000004
:1006600045420000454200000D00000066200000E9
:100670006D320000344200000D00000066200000D2
:1006800032340000420D000000660000206D0000C2
:1006900031320000420D00000066000020310000F1
:1006A000324200000D000000662000006D340000A2
:1006B000380D00000066000020340000380D0000F6
:1006C00000660000206D0000313600000D000000C3
:1006D00066200000313600000D000000722000008E
:1006E0003739000020320000393500002031000089
:1006F0003139000020340000333500000D000000C7
:10070000616E0000696400002031000020350000A7
:100710000D000000662000006D320000340D000066
:100720000066000020320000340D0000007400005C
:1007300066780000203300000D00000066200000F5
:100740006D330000320D0000006600002033000011
:10075000320D000000660000206D00003132000004
:100760000D00000066200000313200000D00000086
:100770007466000078200000320D00000053000075
:100780002046000046460000464600004620000085
:100790003030000034360000383100000D00000019
:1007A0005320000046460000463800003035000067
:1007B000203000003034000036380000310D0000D9
:1007C00000530000203000003034000036380000B4
:1007D0003120000030300000343600003831000095
:1007E0000D0000005320000046460000303000009D
:1007F0003030000020300000303400003638000077
:10080000310D0000006100006E69000065200000ED
:10081000310D000000740000666400002033000009
:10082000203100000D00000074660000642000000C
:1008300032200000310D000000530000204600006F
:1008400046460000464600004620000036430000B1
:1008500036460000373000000D0000005320000035
:1008600036430000364600003730000020360000D6
:100870004336000046370000300D000000660000DF
:10088000206D0000323000000D00000066200000E6
:10089000323000000D0000005320000046460000EA
:1008A0004646000046460000203000003030000080
:1008B00030300000300D00000053000020460000E2
:1008C0003844000043330000452000003030000071
:1008D00030300000303000000D00000053200000D8
:1008E0003542000042330000433900002030000050
:1008F0003030000030300000300D000000530000A8
:100900002046000046460000383000003520000038
:100910003030000030300000303000000D000000AA
:100920007220000037390000203200003935000005
:100930002031000031390000203400003335000040
:100940002033000020300000303000003030000044
:10095000300D000000530000203600003944000034
:100960003936000030200000303000003030000008
:10097000303000000D00000053200000464600000B
:1009800030300000303000002030000030300000F7
:1009900030300000300D0000005300002030000017
:1009A00030300000303000003020000030300000D7
:1009B00030300000303000000D0000007A200000D0
:1009C0000D00000010000000010000000800000001
:1009D00010000000080000001000000008000000E7
:1009E00010000000040000000500000010000000DE
:1009F00004000000100000000300000003000000DD
:100A00000300000010000000881300001027000001
:100A1000000000004006000040060000000000004A
:100A2000140000001E0000000000000053500000F1
:100A300049200000436900007263000075690000EE
:100A4000747200007900000052460000204300004C
:100A5000697200006375000069740000727900001B
:100A60000044000069730000706C000061790000B0
:100A7000204900006E69000074000000496E00000B
:100A800069740000696100006C2000004C61000086
:100A9000626500006C730000004900006E69000090
:100AA00074690000616C000020430000796300005D
:100AB0006C65000073000000496E0000697400005E
:100AC000696100006C200000477200006170000046
:100AD0006869000063730000004900006E6900004F
:100AE00074690000616C0000204900006D70000016
:100AF00065640000616E0000636500002062000014
:100B000061720000004F00006E2D0000626F000057
:100B10006172000064200000746500006D700000C8
:100B20000053000074750000636B00002042000059
:100B300075740000746F00006E00000056650000C0
:100B400072730000696F00006E0000006E75000097
:100B50006C6C0000005700006174000063680000C6
:100B6000646F0000670000004469000073700000BB
:100B70006C61000079200000507200006F6300007B
:100B800065730000736900006E6700000053000089
:100B900075700000706C000079200000566F000036
:100BA0006C740000616700006500000045450000AE
:100BB000505200004F4D000000520000414D000017
:100BC000005300002F560000207800002E30000057
:100BD00039350000584300002E410000410000005C
:100BE00020000000CFCF000007A20000455F0000FA
:020BF000E7001C
:100BF400FA00000064000000000000000100000092
:100C0400010000002C01000064000000000000004E
:100C140001000000010000009001000064000000D9
:100C2400000000000100000001000000F4010000C9
:100C3400640000000000000001000000010000004A
:100C44001202000064000000000000000100000027
:100C540001000000580200006400000000000000D1
:100C64000100000001000000EE020000640000002A
:100C740000000000010000000100000084030000E7
:100C84006400000064000000010000000100000096
:100C9400E803000064000000840300000500000075
:100CA40001000000E8030000F4010000000000005F
:100CB400010000000100000000000000000000002E
:100CC4000000000000000000000000002C010000F3
:100CD400C800000008070000FFFF0000010000003A
:100CE4000000000000000000000000000000000000
:100CF4000000000034080000C80000006400000088
:100D0400010000000200000078050000C800000097
:100D14002C010000FFFF00000200000000000000A2
:100D240000000000000000000000000000000000BF
:100D3400EE020000C8000000640000000100000092
:100D44000100000058020000C8000000F00A000082
:100D5400FFFF000001000000000000000000000090
:100D6400000000000000000000000000EE0200008F
:100D7400C800000064000000010000000100000041
:100D8400000000000000000000000000000000005F
:100D9400000000005802000028000000CC01000000
:100DA400FFFF000001000000000000000000000040
:100DB4000000000000000000000000002C01000002
:100DC4006400000064000000010000000100000055
:100DD400000000000000000000000000000000000F
:100DE40000000000EE020000C800000064000000E3
:100DF400010000000100000058020000C8000000CB
:100E040000000000010000000100000000000000DC
:100E140000000000000000000000000000000000CE
:100E240058020000C800000008070000FFFF00008F
:100E340001000000000000000000000000000000AD
:100E44000000000000000000E8030000280000008B
:100E54006400000001000000010000000000000028
:100E6400000000000000000000000000000000007E
:100E7400FA850000688600007C8600009A860000DF
:100E8400B8860000CC860000E0860000F4860000EE
:100E94001287000026870000000000000800000000
:100EA40010000000190000002100000029000000CB
:100EB4003100000039000000420000004A00000038
:100EC400520000005A000000620000006A000000A6
:100ED400720000007B000000830000008B00000013
:100EE400930000009B000000A3000000AB00000082
:100EF400B3000000BB000000C3000000CB000000F2
:100F0400D3000000DB000000E2000000EA00000063
:100F1400F2000000FA000000020100000A010000D3
:100F24001201000019010000210100002901000044
:100F340031010000380100004001000048010000B8
:100F440050010000570100005F010000670100002C
:100F54006F010000760100007E01000086010000A0
:100F64008D010000950100009C010000A401000017
:100F7400AC010000B3010000BB010000C20100008D
:100F8400CA010000D1010000D9010000E001000005
:100F9400E8010000EF010000F7010000FE0100007D
:100FA400060200000D020000150200001C020000F1
:100FB400230200002B020000320200003A0200006B
:100FC40041020000480200005002000057020000E5
:100FD4005E020000660200006D0200007402000060
:100FE4007C020000830200008A02000091020000DB
:100FF40099020000A0020000A7020000AE02000057
:10100400B6020000BD020000C4020000CB020000D2
:10101400D2020000D9020000E1020000E802000050
:10102400EF020000F6020000FD02000004030000CD
:101034000B0300001203000019030000200300004A
:10104400280300002F030000360300003D030000C6
:10105400440300004B030000520300005903000046
:1010640060030000670300006E03000075030000C6
:101074007C030000830300008A0300009103000046
:10108400970300009E030000A5030000AC030000CA
:10109400B3030000BA030000C1030000C80300004A
:1010A400CF030000D5030000DC030000E3030000CD
:1010B400EA030000F1030000F8030000FF0300004E
:1010C400050400000C040000130400001A040000CE
:1010D40020040000270400002E0400003504000052
:1010E4003C040000420400004904000050040000D5
:1010F400560400005D040000640400006B0400005A
:1011040071040000780400007F04000086040000DD
:101114008C040000930400009A040000A004000062
:10112400A7040000AE040000B4040000BB040000E7
:10113400C1040000C8040000CF040000D50400006E
:10114400DC040000E2040000E9040000F0040000F4
:10115400F6040000FD040000030500000A05000079
:1011640010050000170500001D05000024050000FF
:101174002A05000031050000380500003E05000086
:10118400450500004B05000052050000580500000D
:101194005F050000650500006C0500007205000095
:1011A400780500007F050000850500008C0500001F
:1011B40092050000990500009F050000A6050000A7
:1011C400AC050000B2050000B9050000BF05000031
:1011D400C6050000CC050000D2050000D9050000BA
:1011E400DF050000E6050000EC050000F205000044
:1011F400F9050000FF050000050600000C060000CC
:1012040012060000180600001F0600002506000054
:101214002B06000032060000380600003E060000DF
:10122400450600004B060000510600005806000069
:101234005E060000640600006A06000071060000F5
:10124400770600007D060000830600008A06000081
:1012540090060000960600009C060000A20600000E
:10126400A9060000AF060000B5060000BB0600009A
:10127400C2060000C8060000CE060000D406000026
:10128400DA060000E1060000E7060000ED060000B3
:10129400F3060000F90600006E0F00006400000071
:1012A4009E000000500F000066000000A100000036
:1012B400320F000068000000A5000000140F0000B9
:1012C4006A000000A8000000F60E00006C00000098
:1012D400AB000000D80E00006E000000AE0000005D
:1012E400BC0E000070000000B20000009F0E000061
:1012F40072000000B5000000820E000074000000BF
:10130400B8000000650E000076000000BB0000007D
:10131400480E000078000000BE0000002C0E000003
:101324007A000000C1000000110E00007C000000E3
:10133400C5000000F50D00007E000000C80000009C
:10134400D90D000080000000CB000000BD0D00009E
:1013540082000000CE000000A20D00008400000006
:10136400D1000000870D000086000000D5000000B9
:101374006D0D000088000000D8000000520D000030
:101384008A000000DB000000370D00008C00000024
:10139400DE0000001D0D00008E000000E1000000D2
:1013A400030D000090000000E5000000E90C0000BF
:1013B40092000000E8000000CF0C00009400000040
:1013C400EB000000B50C000096000000EE000000E9
:1013D4009D0C000098000000F2000000840C000046
:1013E4009A000000F50000006B0C00009C00000057
:1013F400F8000000520C00009E000000FB000000FA
:10140400390C0000A0000000FE000000210C0000C8
:10141400A200000002010000090C0000A40000006A
:1014240005010000F10B0000A60000000801000007
:10143400D90B0000A80000000B010000C10B000044
:10144400AA0000000F010000AA0B0000AC0000007D
:1014540012010000930B0000AE0000001501000013
:101464007C0B0000B000000018010000650B0000B8
:10147400B20000001C0100004E0B0000B40000008C
:101484001F010000380B0000B6000000220100001C
:10149400220B0000B8000000250100000B0B000027
:1014A400BA00000029010000F50A0000BC00000099
:1014B4002C010000DF0A0000BE0000002F01000024
:1014C400CA0A0000C000000032010000B40A000093
:1014D400C2000000360100009F0A0000C4000000A2
:1014E40039010000890A0000C60000003C01000028
:1014F400740A0000C800000040010000600A0000F7
:10150400CA000000430100004B0A0000CC000000A8
:1015140046010000360A0000CE0000004901000028
:10152400220A0000D00000004D0100000D0A000056
:10153400D200000050010000F9090000D4000000AE
:1015440053010000E6090000D60000005601000027
:10155400D2090000D800000059010000BE090000B3
:10156400DA0000005D010000AA090000DC000000B0
:101574006001000097090000DE0000006301000024
:1015840085090000E0000000670100007209000006
:10159400E20000006A0100005F090000E4000000AE
:1015A4006D0100004B090000E6000000710100001D
:1015B40039090000E8000000740100002709000058
:1015C400EA0000007701000015090000EC000000AB
:1015D4007A01000003090000EE0000007D01000014
:1015E400F0080000F000000081010000DF080000A6
:1015F400F200000084010000CD080000F4000000A7
:1016040087010000BC080000F60000008B01000008
:10161400AA080000F80000008E01000099080000EC
:10162400FA0000009101000088080000FC0000009E
:101634009501000077080000FE00000098010000FA
:1016440066080000000100009B010000550800002E
:10165400020100009F010000440800000401000092
:10166400A20100003408000006010000A5010000EA
:101674002408000008010000A9010000140800006B
:101684000A010000AC010000040800000C01000085
:10169400AF010000F40700000E010000B2010000D9
:1016A400E407000010010000B6010000D5070000A7
:1016B40012010000B9010000C50700001401000078
:1016C400BC010000B507000016010000BF010000C6
:1016D400A607000018010000C301000097070000DE
:1016E4001A010000C6010000880700001C01000068
:1016F400C9010000790700001E010000CD010000AF
:101704006A07000020010000D00100005B07000010
:1017140022010000D30100004D0700002401000055
:10172400D70100003F07000026010000DA01000095
:101734003007000028010000DD010000220700003E
:101744002A010000E0010000140700002C01000041
:10175400E4010000060700002E010000E70100007C
:10176400F806000030010000EB010000EB06000069
:1017740032010000EE010000DD060000340100002B
:10178400F1010000CF06000036010000F501000061
:10179400C206000038010000F8010000B506000090
:1017A4003A010000FB010000A70600003C01000014
:1017B400FF0100009A0600003E0100000202000042
:1017C4008D060000400100000502000080060000B4
:1017D40042010000090200007406000044010000F8
:1017E4000C02000067060000460100000F02000022
:1017F4005A06000048010000130200004D060000D4
:101804004A01000016020000410600004C010000DD
:1018140019020000350600004E0100001D02000000
:101824002906000050010000200200001D060000EF
:1018340052010000240200001106000054010000BF
:101844002702000005060000560100002A020000DD
:10185400F9050000580100002E020000EE0500000A
:101864005A01000031020000E20500005C010000A2
:1018740034020000D60500005E01000038020000BA
:10188400CB050000600100003B020000C005000021
:10189400620100003E020000B50500006401000082
:1018A40042020000A9050000660100004502000094
:1018B4009E05000068010000490200009305000035
:1018C4006A0100004C020000890500006C01000060
:1018D4004F0200007E0500006E010000520200006D
:1018E4007305000070010000560200006805000046
:1018F40072010000590200005E050000740100003E
:101904005D02000054050000760100006002000042
:101914004905000078010000630200003F05000053
:101924007A01000067020000350500007C01000018
:101934006A0200002B0500007E0100006E02000018
:10194400210500008001000071020000170500005D
:1019540082010000740200000D05000084010000F3
:101964007802000003050000860100007B020000ED
:10197400FA040000880100007F020000F004000067
:101984008A01000082020000E70400008C010000CC
:1019940085020000DD0400008E01000089020000C1
:1019A400D4040000900100008C020000CA0400006E
:1019B400920100008F020000C104000094010000A5
:1019C40093020000B8040000960100009602000093
:1019D400AF040000980100009A020000A604000071
:1019E4009A0100009D0200009D0400009C0100007B
:1019F400A0020000940400009E010000A402000064
:101A04008C040000A0010000A70200008304000071
:101A1400A2010000AB0200007A040000A40100004F
:101A2400AE02000072040000A6010000B102000032
:101A340069040000A8010000B50200006104000070
:101A4400AA010000B802000058040000AC01000024
:101A5400BC02000050040000AE010000BF02000000
:101A640048040000B0010000C2020000400400006D
:101A7400B2010000C602000038040000B4010000F6
:101A8400C902000030040000B6010000CD020000CD
:101A940028040000B8010000D00200002004000067
:101AA400BA010000D402000018040000BC010000C8
:101AB400D702000010040000BE010000DA0200009A
:101AC40008040000C0010000DE0200000104000060
:101AD400C2010000E1020000F9030000C40100009B
:101AE400E5020000F2030000C6010000E802000065
:101AF400EA030000C8010000EC020000E303000058
:101B0400CA010000EF020000DB030000CC0100006A
:101B1400F2020000D4030000CE010000F60200002F
:101B2400CD030000D0010000F9020000C60300004C
:101B3400D2010000FD020000BF030000D401000038
:101B440000030000B8030000D601000004030000F5
:101B5400B1030000D801000007030000AA0300003D
:101B6400DA0100000B030000A3030000DC01000005
:101B74000E0300009C030000DE01000011030000BE
:101B840095030000E0010000150300008F0300002E
:101B9400E20100001803000088030000E4010000D3
:101BA4001C03000081030000E60100001F03000085
:101BB4007B030000E801000023030000740300001D
:101BC400EA010000260300006E030000EC0100009F
:101BD4002A03000068030000EE0100002D0300004A
:101BE40061030000F0010000310300005B0300000A
:101BF400F20100003403000055030000F40100006A
:101C040038030000000000008911000012230000C6
:101C14009B32000024460000AD57000036650000EA
:101C2400BF740000488C0000C19D00005AAF000042
:101C3400D3BE00006CCA0000E5DB00007EE90000B2
:101C4400F7F8000081100000080100009333000041
:101C54001A220000A55600002C470000B7750000AA
:101C64003E640000C99C0000408D0000DBBF000002
:101C740052AE0000EDDA000064CB0000FFF9000072
:101C840076E80000022100008B3000001002000002
:101C94009913000026670000AF760000344400006A
:101CA400BD5500004AAD0000C3BC0000588E0000C2
:101CB400D19F00006EEB0000E7FA00007CC8000032
:101CC400F5D90000833100000A20000091120000C1
:101CD40018030000A77700002E660000B55400002A
:101CE4003C450000CBBD000042AC0000D99E000082
:101CF400508F0000EFFB000066EA0000FDD80000F2
:101D040074C90000044200008D53000016610000F5
:101D14009F70000020040000A91500003227000075
:101D2400BB3600004CCE0000C5DF00005EED0000B5
:101D3400D7FC000068880000E19900007AAB00003D
:101D4400F3BA0000855200000C43000097710000B4
:101D54001E600000A114000028050000B337000035
:101D64003A260000CDDE000044CF0000DFFD000075
:101D740056EC0000E998000060890000FBBB0000FD
:101D840072AA0000066300008F7200001440000075
:101D94009D51000022250000AB34000030060000F5
:101DA400B91700004EEF0000C7FE00005CCC000035
:101DB400D5DD00006AA90000E3B80000788A0000BD
:101DC400F19B0000877300000E6200009550000034
:101DD4001C410000A33500002A240000B1160000B5
:101DE40038070000CFFF000046EE0000DDDC0000F5
:101DF40054CD0000EBB9000062A80000F99A00007D
:101E0400708B000008840000819500001AA7000070
:101E140093B600002CC20000A5D300003EE10000F0
:101E2400B7F0000040080000C9190000522B000060
:101E3400DB3A0000644E0000ED5F0000766D0000A8
:101E4400FF7C000089940000008500009BB700001F
:101E540012A60000ADD2000024C30000BFF10000B0
:101E640036E00000C118000048090000D33B000020
:101E74005A2A0000E55E00006C4F0000F77D000068
:101E84007E6C00000AA5000083B4000018860000E0
:101E9400919700002EE30000A7F200003CC0000070
:101EA400B5D1000042290000CB380000500A0000E0
:101EB400D91B0000666F0000EF7E0000744C000028
:101EC400FD5D00008BB5000002A40000999600009F
:101ED40010870000AFF3000026E20000BDD0000030
:101EE40034C10000C33900004A280000D11A0000A0
:101EF400580B0000E77F00006E6E0000F55C0000E8
:101F04007C4D00000CC6000085D700001EE50000D3
:101F140097F4000028800000A19100003AA300007B
:101F2400B3B20000444A0000CD5B000056690000D3
:101F3400DF780000600C0000E91D0000722F000033
:101F4400FB3E00008DD6000004C700009FF5000092
:101F540016E40000A990000020810000BBB300003B
:101F640032A20000C55A00004C4B0000D779000093
:101F74005E680000E11C0000680D0000F33F0000F3
:101F84007A2E00000EE7000087F600001CC4000053
:101F940095D500002AA10000A3B0000038820000FB
:101FA400B1930000466B0000CF7A00005448000053
:101FB400DD590000622D0000EB3C0000700E0000B3
:101FC400F91F00008FF7000006E600009DD4000012
:101FD40014C50000ABB1000022A00000B9920000BB
:101FE40030830000C77B00004E6A0000D558000013
:101FF4005C490000E33D00006A2C0000F11E000073
:10200400780F000068DC0000010000000000000000
:102014000A0000000000000064000000000000004E
:10202400E80300000000000010270000000000008A
:10203400A086000001000000404200000F000000E4
:10204400809600009800000000E10000F505000003
:1020540000CA00009A3B00000100000000000000DC
:10206400100000000000000000010000000000005B
:10207400001000000000000000000000010000004B
:10208400000000001000000000000000000100003B
:10209400000000000010000001000000000000002B
:1020A40008000000000000004000000000000000E4
:1020B400000200000000000000100000000000000A
:1020C4000080000000000000000000000400000088
:1020D40000000000200000000000000000010000DB
:1020E40000000000000800000000000000400000A4
:1020F4000000000000000000303100003233000016
:1021040034350000363700003839000061620000C1
:102114006364000065660000003000003132000096
:1021240033340000353600003738000039410000F0
:10213400424300004445000046000000286E0000B1
:0A214400756C00006C29000000001B
:10215000002000002020000020200000202000009F
:102160002020000028280000282800002820000047
:10217000202000002020000020200000202000005F
:10218000202000002020000020200000202000004F
:102190002088000010100000101000001010000037
:1021A00010100000101000001010000010100000AF
:1021B00010040000040400000404000004040000F3
:1021C00004040000041000001010000010100000B3
:1021D0001010000041410000414100004141000059
:1021E00001010000010100000101000001010000E7
:1021F00001010000010100000101000001010000D7
:10220000010100000101000010100000101000008A
:102210001010000042420000424200004242000012
:10222000020200000202000002020000020200009E
:10223000020200000202000002020000020200008E
:102240000202000002020000101000001010000046
:10225000200000000000000000000000000000005E
:10226000000000000000000000000000000000006E
:10227000000000000000000000000000000000005E
:10228000000000000000000000000000000000004E
:10229000000000000000000000000000000000003E
:1022A000000000000000000000000000000000002E
:1022B000000000000000000000000000000000001E
:1022C000000000000000000000000000000000000E
:1022D00000000000000000000000000000000000FE
:1022E00000000000000000000000000000000000EE
:1022F00000000000000000000000000000000000DE
:1023000000000000000000000000000000000000CD
:1023100000000000000000000000000000000000BD
:1023200000000000000000000000000000000000AD
:10233000000000000000000000000000000000009D
:10234000000000000000000000000000000000008D
:0223500000008B
:1023540000000000803F0000000000002041000059
:1023640000000000C8420000000000007A440000A1
:10237400004000001C46000000500000C34700005D
:10238400002400007449000080960000184B0000EF
:1023940020BC0000BE4C0000286B00006E4E000004
:1023A400F902000015500000EC780000AD60000058
:1023B400CAF200004971000000000000803F0000E4
:1023C400CDCC0000CC3D00000AD70000233C000027
:1023D4006F120000833A000017B70000D1380000E4
:1023E400ACC5000027370000BD370000863500006B
:1023F40095BF0000D633000077CC00002B320000DC
:102404005F70000089300000FFE60000DB2E000052
:1024140008E500003C1E000060420000A20D000020
:020000040001F9
:100518000F1D2100E07F240000018800000020005A
:10052800A00188004440A80000802000D1020900F2
:100538000018EB003260EF0041DA200040BD2F00C8
:1005480015020900B018BA00A89E040000000000B7
:10055800E28404000000000007002000A6FF2F002E
:1005680006834700070B78000700200086FF2F004E
:1005780006834700070B7800A70F200086FF2F008F
:1005880006834700160378000730E10002003500B3
:10059800D482040000000000D8820400000000009B
:1005A800068304000000000068D302000000000079
:1005B800E9E2A900E9E2AB0002003200EA820400A5
:1005C80000000000E9E2A80001003700E9E2A90004
:1005D8004FBB97001600B000C6BF9F00A70F2000B2
:1005E80086FF2F0006834700160378000730E100D6
:1005F800020035000683040000000000D8820400D1
:10060800000000000600280086118800560120001E
:10061800C61188000640200096118800B711800096
:10062800C6FF2F0006834700070B78001600260038
:10063800461E8800F6012000561E8800462320002A
:10064800861E880016002400A61E8800E6012000E9
:10065800B61E880066232000E61E880007002000DA
:1006680066FF2F0006834700070B7800470020002D
:1006780066FF2F0006834700160378000730E10065
:10068800020035004E83040000000000528304007D
:1006980000000000D684040000000000370020009D
:1006A80066FF2F0006834700160378000730E10035
:1006B80002003D006683040000000000048404007A
:1006C80000000000C9E3A900D5E3A90066132100D2
:1006D8001603780007002000074B7800140020005C
:1006E800024E280080312400D8F7020000000000E4
:1006F80086312000661E8800D223EF00C9E3A800D7
:10070800CBE3A80086392000C61E8800160020000A
:10071800F61E8800D5E3A80068D302000000000098
:10072800E6032000671321009703780097427800BA
:10073800062CE10002003A00A88304000000000033
:10074800FE83040000000000D5E3A9001700200084
:10075800A6FF2F0006834700070B7800070020003C
:1007680086FF2F0006834700070B7800DE8304000E
:1007780000000000D5E3A9006613210016037800E5
:1007880007002000074B780086392000C61E880025
:1007980016002000F61E8800D5E3A80068D30200E2
:1007A80000000000D5E3A9004FBB97001600B00079
:1007B800C6BF9F0066FF2F00068347009603780098
:1007C80086FF2F0006834700160378000730E100F4
:1007D80002003500F683040000000000BE83040018
:1007E80000000000D684040000000000008404001B
:1007F80000000000D5E3A900AC840400000000005C
:10080800C9E3A900D5E3A9006613210016037800FF
:1008180007002000074B780054002000322F2800E2
:1008280080312400D8F70200000000008631200043
:10083800661E880046002000961E8800C9E3A800AE
:10084800CBE3A80086392000C61E880016002000C9
:10085800F61E8800D5E3A80068D302000000000057
:10086800E603200067132100970378009742780079
:10087800062CE10002003A00488404000000000051
:10088800AA84040000000000D5E3A9001700200096
:10089800A6FF2F0006834700070B780007002000FB
:1008A80086FF2F0006834700070B780037002000DB
:1008B80086FF2F0006834700160378000730E10003
:1008C800020035006E8404000000000072840400F9
:1008D80000000000A684040000000000D5E3A90081
:1008E800661321001603780007002000074B7800E4
:1008F80086392000C61E880016002000F61E8800D3
:10090800D5E3A80068D3020000000000D5E3A900E1
:100918004FBB97001600B000C6BF9F0037002000ED
:1009280086FF2F0006834700160378000730E10092
:1009380002003500A6840400000000007284040050
:1009480000000000AC84040000000000D5E3A9000A
:10095800E9E2A900E9E2AB0002003200BA8404002F
:1009680000000000E9E2A80001003700E9E2A90060
:100978003FBB97001600B000B6BF9F00470020009D
:1009880066FF2F0006834700160378000730E10052
:1009980002003500D68404000000000052830400E1
:1009A800000000005FB8970000007800DE840400B3
:1009B80000000000AF00B10000000600AF00B0006A
:1009C800B0820400000000003C8504000000000024
:1009D80007002000A6FF2F0006834700070B7800BA
:1009E800C6FF2F0006834700000B78000A08E200C4
:1009F8000200320006850400000000003085040073
:100A08000000000084022000668520008702200084
:100A18000700780037408000070178000091B9008E
:100A2800060141006FB89700BEF702000000000001
:100A380066802000160378001600B000F601B200A8
:100A4800364088000A28ED0017002000A6FF2F0076
:100A580006834700070B78005FB89700000078000E
:100A680038850400000000006F00B1000000060097
:100A78006F00B000EC840400000000001886040039
:100A88000000000087FF2F0087834700860B78004F
:100A9800A6FF2F0006834700044B7800B6FF2F00FF
:100AA80006834700024B7800C6FF2F0006834700E5
:100AB800004B780046DA2000BFFB97008783FB00D5
:100AC800C13BDD0086834300170078001E860200C4
:100AD8000000000066FF2F0006834700000B780027
:100AE8003FBB97006130E10002003A0082850400B4
:100AF80000000000988504000000000046DC20008B
:100B0800AFFB97008783FB00C13BDD008683430072
:100B1800170078001E8602000000000066FF2F0004
:100B280006834700000B78003FBB97006130E10067
:100B380002003A00A685040000000000B285040007
:100B4800000000004FB897001E8602000000000059
:100B580066FF2F0006834700000B780066FF2F0012
:100B6800068347001600E00009003A00BE8504002D
:100B7800000000004FFB97007434E10004003200CD
:100B8800C885040000000000D085040000000000B3
:100B9800DE850400000000004FFB97007534E1007B
:100BA80004003200DA85040000000000E285040039
:100BB80000000000F0850400000000004FFB9700D3
:100BC8007634E10004003200EC85040000000000E7
:100BD800F485040000000000028604000000000004
:100BE8004FFB97007734E10004003200FE850400D3
:100BF800000000000A8604000000000006860400C9
:100C080000000000148604000000000034252800BD
:100C1800C2032000000020001EB9020000000000EE
:100C2800AF00B10000000600AF00B0004685040028
:100C3800000000009E86040000000000070020005D
:100C480086FF2F0006834700070B7800C6FF2F009A
:100C580006834700000B78006FB897003CF8020045
:100C680000000000A6FF2F0006834700000B780055
:100C7800000220000A08E3000C003D00468604003C
:100C88000000000087022000A6FF2F00068347000F
:100C9800160378000730E10004003D005686040082
:100CA8000000000062860400000000005E86040068
:100CB800000000008E860400000000005FBA970064
:100CC8001400B0006FB997006685200087022000E5
:100CD8000704780047408000070078000880B900C2
:100CE80006004000BEF702000000000086802000D9
:100CF800160378001600B000F601B20046408800DE
:100D08000A28EC001700200086FF2F000683470002
:100D1800070B78004FB8970000007800968604000B
:100D2800000000008F00B100CF0478004F04780065
:100D380000000600881F7800891F78008F00B00027
:100D48002286040000000000D6860400000000008F
:100D5800A6FF2F0006834700020B7800C6FF2F006E
:100D680006834700004B780026DE2000A4012000FF
:100D7800CFFB97008783FB00070178000411B800B8
:100D880006014100124278005FB997004FF89700BA
:100D98000080FB00DC860200000000006F00B1004C
:100DA800000006006F00B000AC86040000000000E0
:100DB8005C8704000000000086FF2F0006834700C0
:100DC800044B7800A6FF2F0006834700020B78002B
:100DD800C6FF2F0006834700004B7800422D2800ED
:100DE80000FD2F00008047002AF8020000000000E4
:100DF8005FB9970000FD2F000080470010F802003F
:100E080000000000022F280000FD2F00008047008E
:100E180010F802000000000026DE2000060378001B
:100E28002601B000A4012000CFFB97008783FB00B8
:100E3800070178000411B8000601410000FD2F00E9
:100E48000080470010F8020000000000024E280051
:100E580000FD2F000080470010F80200000000008D
:100E680006FD2F000683470027DE20008703780051
:100E78002700B000A4012000CFFA97008582FB006C
:100E8800050178000411B8000701410012427800FA
:100E98000FF997000281FB004FF897000080FB00D4
:100EA80042850200000000000F03B10000000600A8
:100EB8000F03B000E086040000000000A0870400D3
:100EC80000000000C6FF2F0006834700004B780093
:100ED80046DC2000CFFB97008783FB00C13BDD0089
:100EE80086834300170078001E8602000000000079
:100EF800A6FF2F0006834700000B78005FBB970012
:100F08006130E10002003A00908704000000000010
:100F18009C87040000000000E04D28001E860200A7
:100F280000000000A6FF2F0006834700000B780092
:100F38006F00B100000006006F00B0006687040073
:100F480000000000C08704000000000002382800EC
:100F580060FD2F00008047002AF802000000000012
:100F680060FD2F00008047001E8602000000000080
:100F7800AF02B10000000600AF02B000AA8704006B
:100F880000000000FC8704000000000000002000B2
:100F98000A08E30002003400DE87040000000000B5
:100FA800664080006130E10004003A00DE870400FA
:100FB80000000000EA87040000000000E687040043
:100FC80000000000F487040000000000100020006A
:100FD800FA87040000000000FA87040000000000FF
:100FE80000002000FA87040000000000000006004E
:100FF800CA87040000000000908804000000000078
:10100800C6FF2F0006834700000B78000611210059
:10101800960378006FBB97000730E10002003200AA
:101028001C880400000000008C88040000000000F8
:10103800C6FF2F00068347001603780086888800BD
:10104800C6FF2F000683470016037800861F780026
:1010580056202800861F7800468120000600780068
:10106800CEDF0200000000004F00B100422D280032
:1010780040FD2F00008047002AF802000000000011
:10108800468120000601780040FD2F0000804700BF
:1010980010F8020000000000022F280040FD2F0079
:1010A8000080470010F802000000000026DE200043
:1010B800060178004216B00040FD2F00008047006E
:1010C80010F8020000000000024E280040FD2F002A
:1010D8000080470010F802000000000046FD2F00C5
:1010E8000683470027DE2000870378003715B00005
:1010F8001742780027DE2000870378002715B00004
:1011080017417800D000200042850200000000004E
:10111800CF02B10000000600CF02B000048804002E
:1011280000000000008A04000000000067FF2F0094
:1011380087834700864B780086FF2F000683470089
:10114800040B7800A6FF2F0006834700020B7800E7
:10115800C6FF2F0006834700004B7800C6FF2F000C
:10116800068347001604E00002003A00C288040023
:1011780000000000FA8804000000000066FF2F004D
:10118800068347001604E00002003A00D2880400F3
:1011980000000000E688040000000000B7002000FE
:1011A80066FC2F0006834700074B780047012000A4
:1011B80076FC2F0006834700074B7800F68804006A
:1011C800000000009700200066FC2F0006834700FF
:1011D800074B78005701200076FC2F000683470054
:1011E800074B78002E8904000000000066FF2F00DE
:1011F800068347001604E00002003A000A8904004A
:10120800000000001E89040000000000C700200044
:1012180066FC2F0006834700074B78006701200013
:1012280076FC2F0006834700074B78002E890400C0
:1012380000000000A700200066FC2F00068347007E
:10124800074B78007701200076FC2F0006834700C3
:10125800074B7800D70320005FBB97000730E100F9
:10126800020032003E8904000000000046890400A4
:10127800000000006FC097000080FB00068A020093
:1012880000000000422D2800E0FC2F0000804700ED
:101298002AF802000000000026DE2000060378007D
:1012A8003600B000A4012000FFC397008783FB002D
:1012B800070178000411B80006014100E0FC2F0086
:1012C8000080470010F8020000000000A6FF2F0071
:1012D8000683470016037800861F780056202800EA
:1012E800861F780040FC2F0000804700CEDF0200F8
:1012F800000000004F00B10082FC2F00028147006F
:10130800E0FC2F000080470010F8020000000000F9
:10131800022F2800E0FC2F000080470010F8020090
:101328000000000026DE2000060378002601B00039
:10133800A4012000FFC397008783FB000701780002
:101348000411B80006014100E0FC2F0000804700AE
:1013580010F8020000000000024E2800E0FC2F00F8
:101368000080470010F8020000000000C7032000BA
:101378005FBB97000730E10002003200CA89040011
:1013880000000000FC89040000000000E6FC2F00BB
:101398000683470027DE2000870378001700B00087
:1013A800A4012000FFC297008582FB000501780098
:1013B8000411B800070141001242780027DE20001E
:1013C800A501200005017800FFC297008582FB0077
:1013D800050078000200B8000700400010417800BE
:1013E8007FC097000080FB004285020000000000DB
:1013F800AF03B10000000600AF03B0009A880400F4
:1014080000000000268B04000000000017002000E8
:1014180026FD2F0006834700070B7800C6FF2F0024
:1014280006834700004B78007E8A04000000000015
:10143800622E280040FD2F00008047002AF8020095
:101448000000000026052100C4002000CFFB970003
:101458008783FB00070178000411B80006014100EA
:1014680040FD2F000080470010F802000000000037
:10147800122F280040FD2F000080470010F80200BE
:101488000000000026052100060378004600B00091
:10149800C4002000CFFB97008783FB00070178007A
:1014A8000411B8000601410040FD2F0000804700EC
:1014B80010F8020000000000024E280040FD2F0036
:1014C8000080470010F8020000000000A48A040011
:1014D800000000000700200026FD2F0006834700BB
:1014E800070B7800A48A040000000000A48A040006
:1014F800000000004FFB97000683FB000683FB00FB
:101508006D30E100F3FF3C0006600100C8FF3700C2
:10151800C7FF3700C6FF3700C5FF3700C4FF3700D5
:10152800C3FF3700C2FF3700C1FF3700E9FF3700AC
:10153800BFFF3700BEFF3700BDFF3700BCFF3700D5
:101548001FAB97006130E10002003A00B28A040044
:1015580000000000C08A04000000000040FD2F00C9
:10156800008047001E8602000000000026FD2F00B4
:1015780006834700000B780026FD2F0006834700EE
:101588001600E00009003A00CC8A040000000000C0
:101598004FFB97006C34E10004003200D68A040047
:1015A80000000000DE8A040000000000EC8A04004D
:1015B800000000004FFB97006B34E100040032008C
:1015C800E88A040000000000F08A0400000000001F
:1015D800FE8A0400000000004FFB97006A34E10017
:1015E80004003200FA8A040000000000028B0400A4
:1015F80000000000108B0400000000004FFB970063
:101608006934E100040032000C8B04000000000083
:10161800188B040000000000148B04000000000078
:10162800228B040000000000442B2800D203200075
:10163800000020001EB9020000000000EF02B10007
:1016480000000600EF02B0000A8A04000000000053
:101658006A9004000000000005002000A7FC2F008D
:1016680087834700850B780067FF2F008783470033
:10167800860B780086FF2F0006834700040B78004E
:10168800A6FF2F0006834700020B7800C6FF2F0035
:1016980006834700000B7800870C2000C6FF2F0048
:1016A80006834700160378000730E10002003D007A
:1016B800648B040000000000708B04000000000030
:1016C8000700200046FF2F0006834700070B78001D
:1016D800A88D040000000000870C2000C6FF2F0022
:1016E80006834700160378000730E1000C00350038
:1016F800808B040000000000C7122000C6FF2F00E6
:1017080006834700160378000730E10004003C0018
:10171800908B0400000000009C8B04000000000077
:10172800988B040000000000A88B04000000000053
:101738001700200046FF2F0006834700070B78009C
:10174800A88D040000000000C7122000C6FF2F006B
:1017580006834700160378000730E1000C003400C8
:10176800B88B040000000000E71A2000C6FF2F0015
:1017780006834700160378000730E10004003C00A8
:10178800C88B040000000000D48B04000000000097
:10179800D08B040000000000E08B04000000000073
:1017A8002700200046FF2F0006834700070B78001C
:1017B800A88D040000000000E71A2000C6FF2F00D3
:1017C80006834700160378000730E1000C00340058
:1017D800F08B040000000000272B2000C6FF2F001C
:1017E80006834700160378000730E10004003C0038
:1017F800008C0400000000000C8C040000000000B5
:10180800088C040000000000188C04000000000090
:101818003700200046FF2F0006834700070B78009B
:10182800A88D040000000000272B2000C6FF2F0011
:1018380006834700160378000730E1000C003400E7
:10184800288C040000000000673B2000C6FF2F0022
:1018580006834700160378000730E10004003C00C7
:10186800388C040000000000448C040000000000D4
:10187800408C040000000000508C040000000000B0
:101888004700200046FF2F0006834700070B78001B
:10189800A88D040000000000673B2000C6FF2F0051
:1018A80006834700160378000730E1000C00340077
:1018B800608C040000000000C75D2000C6FF2F00F8
:1018C80006834700160378000730E10004003C0057
:1018D800708C0400000000007C8C040000000000F4
:1018E800788C040000000000888C040000000000D0
:1018F8005700200046FF2F0006834700070B78009B
:10190800A88D040000000000C75D2000C6FF2F005E
:1019180006834700160378000730E1000C00340006
:10192800988C04000000000027802000C6FF2F00CC
:1019380006834700160378000730E10004003C00E6
:10194800A88C040000000000B48C04000000000013
:10195800B08C040000000000C08C040000000000EF
:101968006700200046FF2F0006834700070B78001A
:10197800A88D04000000000027802000C6FF2F006B
:1019880006834700160378000730E1000C00340096
:10199800D08C04000000000047CE2000C6FF2F00B6
:1019A80006834700160378000730E10004003C0076
:1019B800E08C040000000000EC8C04000000000033
:1019C800E88C040000000000F88C0400000000000F
:1019D8007700200046FF2F0006834700070B78009A
:1019E800A88D04000000000047CE2000C6FF2F008D
:1019F80006834700160378000730E1000C00340026
:101A0800088D040000000000671C2100C6FF2F009D
:101A180006834700160378000730E10004003C0005
:101A2800188D040000000000248D04000000000050
:101A3800208D040000000000308D0400000000002C
:101A48008700200046FF2F0006834700070B780019
:101A5800A88D040000000000671C2100C6FF2F00AD
:101A680006834700160378000730E1000C003400B5
:101A7800408D04000000000047C82100C6FF2F0069
:101A880006834700160378000730E10004003C0095
:101A9800508D0400000000005C8D04000000000070
:101AA800588D040000000000688D0400000000004C
:101AB8009700200046FF2F0006834700070B780099
:101AC800A88D04000000000047C82100C6FF2F00B1
:101AD80006834700160378000730E1000C00340045
:101AE800788D04000000000007712200C6FF2F0057
:101AF80006834700160378000730E10004003C0025
:101B0800888D040000000000948D0400000000008F
:101B1800908D040000000000A08D0400000000006B
:101B2800A700200046FF2F0006834700070B780018
:101B3800A88D040000000000B700200046FF2F0019
:101B480006834700070B7800A61221009603780049
:101B58002FBB97000730E10002003200C48D04005B
:101B680000000000C6122100960378005FBB9700B2
:101B78000730E10004003200C48D040000000000BA
:101B8800DA8D040000000000CC8D04000000000085
:101B9800E6122100960378003FBB97000730E1006A
:101BA80004003200DA8D040000000000048E0400F6
:101BB80000000000E28D0400000000000700200083
:101BC80086FF2F0006834700160378000730E100E0
:101BD80009003400F28D0400000000005FBB97008C
:101BE8006130E10004003A00FC8D040000000000B0
:101BF800048E040000000000088E040000000000AD
:101C0800108E0400000000000C8E0400000000008C
:101C1800669004000000000046FF2F00068347007E
:101C28001603780056898800A6FF2F000683470010
:101C3800160378006689880066FF2F000683470030
:101C4800160378007689880002492800C0FC2F0016
:101C5800008047002AF8020000000000C0FC2F00A6
:101C6800008047001E8602000000000086FC2F004E
:101C780006834700000B78004FA397006130E1000E
:101C88000A003A004A8E04000000000066FF2F0098
:101C9800068347001600E00004003A00568E040050
:101CA80000000000628E0400000000005E8E040048
:101CB800000000004C90040000000000C24428000E
:101CC800C0FC2F00008047002AF802000000000036
:101CD800C0FC2F00008047001E86020000000000A4
:101CE80086FC2F0006834700000B78004FA397005F
:101CF8006130E10002003A00888E04000000000014
:101D08004C9004000000000046FF2F0006834700A7
:101D18001600E00002003A009E8E04000000000059
:101D28002FBB97006B30E10004003A009E8E040040
:101D380000000000AA8E040000000000A68E040027
:101D480000000000248F0400000000005FBB970023
:101D58006130E10002003A00B88E04000000000083
:101D6800088F0400000000000208E20002003A00A8
:101D7800C48E040000000000028F04000000000070
:101D88000228EF000228EC0046FF2F0006834700D8
:101D98001600E00002003A00D88E0400000000009F
:101DA800E68E040000000000E2362800C0FC2F0088
:101DB800008047002AF8020000000000F08E0400AE
:101DC80000000000B2312800C0FC2F00008047004E
:101DD8002AF8020000000000C0FC2F000080470025
:101DE8001E8602000000000086FC2F0006834700C4
:101DF800000B7800048F0400000000000228EF00A8
:101E0800208F040000000000E2362800C0FC2F00EC
:101E1800008047002AF8020000000000C0FC2F00E4
:101E2800008047001E8602000000000086FC2F008C
:101E380006834700000B78004C9004000000000067
:101E4800E2362800C0FC2F00008047002AF8020074
:101E580000000000C0FC2F00008047001E86020022
:101E68000000000086FC2F0006834700000B780066
:101E78004FA397006130E10002003A004A8F040046
:101E8800000000004C90040000000000A22E280072
:101E9800C0FC2F00008047002AF802000000000064
:101EA800EC8F040000000000F2242800C0FC2F0082
:101EB8000080470010F80200000000000C900400A9
:101EC80000000000F2222800C0FC2F00008047001C
:101ED80010F80200000000000C9004000000000050
:101EE80032242800C0FC2F000080470010F80200B0
:101EF800000000000C9004000000000032222800BE
:101F0800C0FC2F000080470010F80200000000000D
:101F18000C9004000000000072232800C0FC2F0071
:101F28000080470010F80200000000000C90040038
:101F380000000000B2242800C0FC2F0000804700E9
:101F480010F80200000000000C90040000000000DF
:101F5800B2222800C0FC2F000080470010F80200C1
:101F6800000000000C90040000000000722428000B
:101F7800C0FC2F000080470010F80200000000009D
:101F88000C9004000000000072222800C0FC2F0002
:101F98000080470010F80200000000000C900400C8
:101FA8000000000032232800C0FC2F0000804700FA
:101FB80010F80200000000000C900400000000006F
:101FC8000C900400000000000C90040000000000C9
:101FD8002FBB97001600B100F9FF35006A30E10009
:101FE800F7FF3C0006600100AFFF3700B5FF370080
:101FF800BBFF3700C1FF3700C7FF3700CDFF3700F1
:10200800D3FF3700D9FF3700DFFF3700E5FF370080
:10201800122F2800C0FC2F000080470010F8020093
:1020280000000000B2232800C0FC2F0000804700F9
:1020380010F8020000000000122F2800C0FC2F003A
:102048000080470010F8020000000000A2212800CC
:10205800C0FC2F000080470010F8020000000000BC
:10206800024E2800C0FC2F000080470010F8020034
:1020780000000000C0FC2F00008047001E86020000
:102088000000000086FC2F0006834700000B780044
:1020980086FC2F00068347001600E00002003A0085
:1020A8005C9004000000000066900400000000003E
:1020B800342A2800E2032000000020001EB9020094
:1020C800000000008F03B100000006008F03B0007D
:1020D800308B04000000000016910400000000008E
:1020E800C6FF2F0006834700004B7800A690040027
:1020F80000000000A60F210006017800668220007B
:10210800060078002AF8020000000000BA900400D7
:1021180000000000261021000601780066822000D9
:10212800060078002AF8020000000000BA900400B7
:1021380000000000BA90040000000000BA900400FB
:10214800000000004FFB97000683FB000683FB009E
:102158000602780061025200EEFF3200610252006E
:10216800E4FF32009E90040000000000CFFB9700BF
:10217800A6102100074B7800422D280040FD2F00B3
:10218800008047002AF80200000000006682200054
:102198000601780040FD2F000080470010F802007B
:1021A80000000000022F280040FD2F00008047009B
:1021B80010F802000000000026DE2000060178006A
:1021C8008219B00040FD2F000080470010F802007F
:1021D80000000000024E280040FD2F00008047004C
:1021E80010F802000000000046FD2F00068347009B
:1021F80027DE2000870378007718B00017427800A0
:1022080027DE2000870378006718B00017417800A0
:10221800F00020004285020000000000CF02B1005B
:1022280000000600CF02B000749004000000000017
:102238001E9204000000000086FF2F00068347005E
:10224800040B7800A6FF2F0006834700020B7800D6
:10225800C6FF2F0006834700000B7800E610210018
:10226800960378006FBB97000730E1000200320048
:102278004A910400000000005FBB97006130E10054
:1022880004003A004A91040000000000569104003E
:102298000000000052910400000000001A9204009F
:1022A800000000005FBB97006130E10002003A00C7
:1022B80064910400000000006E910400000000001A
:1022C800A681200006017800C0002000A886020030
:1022D8000000000086FF2F00068347001600E0007C
:1022E80002003A007E910400000000001A920400E7
:1022F80000000000C6FF2F00068347001603780081
:1023080076888800C7032000C6FF2F000683470091
:1023180016037800110009000703D800E6FC2F0017
:1023280006834700000B7800C7032000C6FF2F0074
:102338000683470016037800110009000703D80038
:10234800C6FF2F0006834700010B7800C6FF2F0049
:102358000683470016037800861F7800C6FC2F0006
:102368000683470016037800861F78000620280099
:10237800861F7800A681200006007800CEDF0200C4
:10238800000000006F00B100422D280000FD2F0062
:10239800008047002AF8020000000000A681200003
:1023A8000601780000FD2F000080470010F80200A9
:1023B80000000000022F280000FD2F0000804700C9
:1023C80010F802000000000026DE20000601780058
:1023D800A214B00000FD2F000080470010F8020092
:1023E80000000000024E280000FD2F00008047007A
:1023F80010F802000000000006FD2F0006834700C9
:1024080027DE2000870378009713B0001742780072
:1024180027DE2000870378008713B0001741780073
:10242800C000200042850200000000002F03B10018
:10243800000006002F03B0002091040000000000F7
:102448008E92040000000000C6FF2F00068347009C
:10245800000B78006FBB97006130E10002003A0082
:102468003C920400000000005892040000000000A4
:102478003240280040FD2F00008047002AF8020063
:102488000000000040FD2F00008047001E8602006B
:102498000000000026FD2F0006834700000B78008F
:1024A80070920400000000000238280040FD2F0050
:1024B800008047002AF802000000000040FD2F00BD
:1024C800008047001E8602000000000026FD2F0045
:1024D80006834700000B780026FD2F00068347007F
:1024E8001600E00002003A0080920400000000009C
:1024F8008A92040000000000342C2800F203200017
:10250800000020001EB9020000000000EF02B10028
:1025180000000600EF02B00028920400000000004E
:102528005093040000000000C6FF2F0006834700F8
:10253800000B7800C6102100960378006FBB970047
:102548000730E10002003200B092040000000000F1
:102558004C93040000000000C6FF2F0006834700CC
:102568001603780066888800C7032000C6FF2F007E
:102578000683470016037800110009000703D800F6
:1025880026FD2F0006834700000B7800C7032000B4
:10259800C6FF2F00068347001603780011000900C4
:1025A8000703D800C6FF2F0006834700010B7800F9
:1025B800C6FF2F000683470016037800861F7800A1
:1025C80006FD2F000683470016037800861F780053
:1025D80006202800861F7800068220000600780062
:1025E800CEDF0200000000006F00B100422D28007D
:1025F80040FD2F00008047002AF80200000000007C
:10260800068220000601780040FD2F000080470068
:1026180010F8020000000000022F280040FD2F00E3
:102628000080470010F802000000000026DE2000AD
:1026380006017800E217B00040FD2F000080470037
:1026480010F8020000000000024E280040FD2F0094
:102658000080470010F802000000000046FD2F002F
:102668000683470027DE200087037800D716B000CE
:102678001742780027DE200087037800C716B000CD
:1026880017417800E00020004285020000000000A9
:10269800EF02B10000000600EF02B00098920400BB
:1026A8000000000040980400000000000500200021
:1026B80087FC2F0087834700850B780015002000D2
:1026C800A7FC2F0087834700850B780067FF2F0042
:1026D80087834700860B780086FF2F000683470014
:1026E800040B7800A6FF2F0006834700020B780032
:1026F800C6FF2F0006834700004B78002681200084
:10270800964378004FFB97000683FB000734E100EF
:1027180002003200A093040000000000861221008D
:10272800960378005FBB97000730E1000400320091
:10273800A093040000000000B6930400000000000D
:10274800A893040000000000661221009603780098
:102758004FBB97000730E10004003200B693040035
:1027680000000000CC93040000000000BE930400A9
:102778000000000046802000960378003FBB9700C9
:102788000730E10004003200CC9304000000000090
:10279800DE93040000000000D49304000000000051
:1027A8001FA397006130E10004003A00DE930400A3
:1027B80000000000EA93040000000000E693040013
:1027C80000000000369804000000000037012000D7
:1027D800C6FC2F0006834700074B7800170120002E
:1027E800D6FC2F0006834700074B78002640800060
:1027F8006130E10002003A00089404000000000083
:102808000A95040000000000268120009643780005
:102818004FFB97000683FB000734E10002003200FB
:10282800249404000000000066FF2F000683470080
:102838001600E00004003A002494040000000000A0
:102848004C940400000000002C94040000000000D8
:10285800964080006134E1000B003A003694040091
:102868000000000086122100960378005FBB9700E5
:102878000730E10004003200449404000000000026
:102888004C94040000000000509404000000000074
:102898007494040000000000549404000000000038
:1028A800964080006234E1000B003A005E94040018
:1028B8000000000086122100960378005FBB970095
:1028C8000730E100040032006C94040000000000AE
:1028D80074940400000000007894040000000000D4
:1028E80086940400000000007C94040000000000AE
:1028F8000FA397006130E10004003A0086940400B9
:102908000000000092940400000000008E9404006F
:1029180000000000DA940400000000001700200006
:1029280086FC2F0006834700070B780040412800EB
:102938001E86020000000000A6FC2F000683470048
:10294800000B78005FA397006130E10002003A00B5
:10295800B494040000000000C094040000000000CB
:10296800803B28001E86020000000000A6FC2F0005
:1029780006834700000B78005FA397006130E100F1
:1029880002003A00CE94040000000000DA9404002B
:102998000000000026112100060178004FC89700AA
:1029A8000080FB00A8860200000000005FA39700DB
:1029B8006130E10009003A00E494040000000000DE
:1029C8001FA397006130E10004003A00EE94040070
:1029D80000000000FA94040000000000F6940400CF
:1029E800000000000695040000000000C611210048
:1029F800060178005FC897000080FB00A8860200E7
:102A08000000000030950400000000001FA397009C
:102A18006130E10002003A0018950400000000004F
:102A280030950400000000002611210006017800FE
:102A38004FC897000080FB00A88602000000000035
:102A4800C6112100060178005FC897000080FB00CE
:102A5800A8860200000000005FA397006130E10033
:102A68000A003A003A9504000000000006FC2F0016
:102A7800068347001600E00004003A00469504006B
:102A88000000000052950400000000004E9504006C
:102A980000000000FE97040000000000A6FF2F00C1
:102AA8000683470016037800861F78000621280051
:102AB800861F78002611210006007800CEDF02006C
:102AC800000000004F00B10086FF2F00068347007A
:102AD80016037800861F780006212800861F7800D4
:102AE800C611210006007800CEDF020000000000B9
:102AF8004F00B1003FBB97006130E10002003A008F
:102B08008C950400000000001297040000000000EB
:102B1800264080006130E10002003A009A950400E6
:102B28000000000022960400000000004FA3970058
:102B38006130E10002003A00A8950400000000009E
:102B48001E96040000000000F22D2800E0FC2F0073
:102B5800008047002AF8020000000000261121002A
:102B680006017800E0FC2F000080470010F8020002
:102B780000000000022F2800E0FC2F000080470022
:102B880010F802000000000026DE2000060378008E
:102B98002601B000A4012000CFCB97008783FB005B
:102BA800070178000411B80006014100E0FC2F007D
:102BB8000080470010F8020000000000024E2800C4
:102BC800E0FC2F000080470010F802000000000021
:102BD800E6FC2F000683470027DE200087037800E5
:102BE8001700B000A4012000CFCA97008582FB001F
:102BF800050178000411B80007014100124278006D
:102C080027DE2000A501200005017800CFCA970023
:102C18008582FB00050078000200B800070040002C
:102C2800104178004FC897000080FB0042850200E1
:102C3800000000009896040000000000F22D280013
:102C4800E0FC2F00008047002AF802000000000086
:102C58002611210006017800E0FC2F0000804700C3
:102C680010F8020000000000022F2800E0FC2F00EE
:102C78000080470010F802000000000026DE200057
:102C8800060378002601B000A4012000CFCB9700EE
:102C98008783FB00070178000411B8000601410092
:102CA800E0FC2F000080470010F802000000000040
:102CB800024E2800E0FC2F000080470010F80200B8
:102CC80000000000E6FC2F000683470027DE2000F6
:102CD800870378001700B000A4012000CFCA97002E
:102CE8008582FB00050178000411B8000701410046
:102CF8001242780027DE2000A50120000501780097
:102D0800CFCA97008582FB00050078000200B80052
:102D180007004000104178004FC897000080FB0072
:102D28004285020000000000422D2800E0FC2F0030
:102D3800008047002AF8020000000000C6112100A8
:102D480006017800E0FC2F000080470010F8020020
:102D580000000000022F2800E0FC2F000080470040
:102D680010F802000000000026DE200006037800AC
:102D78002601B000A4012000DFCB97008783FB0069
:102D8800070178000411B80006014100E0FC2F009B
:102D98000080470010F8020000000000024E2800E2
:102DA800E0FC2F000080470010F80200000000003F
:102DB800E6FC2F000683470027DE20008703780003
:102DC8001700B000A4012000DFCA97008582FB002D
:102DD800050178000411B80007014100124278008B
:102DE80027DE2000A501200005017800DFCA970032
:102DF8008582FB00050078000200B800070040004B
:102E0800104178005FC897000080FB0042850200EF
:102E180000000000FE97040000000000422D28007A
:102E2800E0FC2F00008047002AF8020000000000A4
:102E38002611210006017800E0FC2F0000804700E1
:102E480010F8020000000000022F2800E0FC2F000C
:102E58000080470010F802000000000026DE200075
:102E6800060378002601B000A4012000CFCB97000C
:102E78008783FB00070178000411B80006014100B0
:102E8800E0FC2F000080470010F80200000000005E
:102E9800024E2800E0FC2F000080470010F80200D6
:102EA80000000000E6FC2F000683470027DE200014
:102EB800870378001700B000A4012000CFCA97004C
:102EC8008582FB00050178000411B8000701410064
:102ED8001242780027DE2000A501200005017800B5
:102EE800CFCA97008582FB00050078000200B80071
:102EF80007004000104178004FC897000080FB0091
:102F08004285020000000000422D2800E0FC2F004E
:102F1800008047002AF8020000000000C6112100C6
:102F280006017800E0FC2F000080470010F802003E
:102F380000000000022F2800E0FC2F00008047005E
:102F480010F802000000000026DE200006037800CA
:102F58002601B000A4012000DFCB97008783FB0087
:102F6800070178000411B80006014100E0FC2F00B9
:102F78000080470010F8020000000000024E280000
:102F8800E0FC2F000080470010F80200000000005D
:102F9800E6FC2F000683470027DE20008703780021
:102FA8001700B000A4012000DFCA97008582FB004B
:102FB800050178000411B8000701410012427800A9
:102FC80027DE2000A501200005017800DFCA970050
:102FD8008582FB00050078000200B8000700400069
:102FE800104178005FC897000080FB00428502000E
:102FF80000000000CFFB970026812000074B7800D7
:10300800A6FF2F000683470016037800468988002C
:1030180086FF2F000683470016037800368988004C
:1030280066FF2F00068347001603780026408800B5
:10303800A6FC2F00068347001600E00002003A00B5
:103048002C980400000000003698040000000000DE
:103058000429280002042000000020001EB90200F4
:10306800000000008F03B100648757004F277800E5
:103078004F277800000006008F03B0005A93040021
:1030880000000000D09804000000000087FF2F0017
:1030980087834700860B7800A6FF2F00068347002A
:1030A800044B7800B6FF2F0006834700024B7800D8
:1030B800C6FF2F0006834700000B7800422D28002A
:1030C80080FC2F00008047002AF802000000000062
:1030D8006FB9970080FC2F000080470010F80200AD
:1030E80000000000022F280080FC2F00008047000D
:1030F80010F802000000000026FC2F00068347009D
:1031080016037800861F780066FF2F0006834700A5
:1031180016037800861F7800A6202800861F7800EE
:10312800A0FE2F0000804700CEDF02000000000054
:103138006F00B10002FF2F000281470080FC2F00C2
:103148000080470010F8020000000000024E28002E
:1031580080FC2F000080470010F8020000000000EB
:1031680086FC2F00068347002FFA97000482FB0095
:103178003FF997000281FB00800120004285020090
:10318800000000008F03B100648757001E277800F5
:103198004F2F7800000006008F03B0004A98040003
:1031A80000000000669B04000000000017002000DB
:1031B800C6FC2F0006834700070B78001700200085
:1031C800E6FC2F0006834700070B780086FF2F00D8
:1031D80006834700040B7800A6FF2F0006834700EC
:1031E800020B7800C6FF2F0006834700004B7800CB
:1031F800E29A040000000000422D280000FD2F0084
:10320800008047002AF80200000000005FB997001C
:1032180000FD2F000080470010F8020000000000A9
:10322800022F280000FD2F000080470010F8020040
:103238000000000026DE2000060378002601B0000A
:10324800A4012000CFFB97008783FB0007017800CB
:103258000411B8000601410000FD2F00008047005E
:1032680010F8020000000000024E280000FD2F00A8
:103278000080470010F8020000000000069B0400D0
:1032880000000000422D280000FD2F0000804700AC
:103298002AF802000000000026DE2000060378005D
:1032A8003600B000A4012000CFFB97008783FB0005
:1032B800070178000411B8000601410000FD2F0045
:1032C8000080470010F8020000000000022F2800CC
:1032D80000FD2F000080470010F8020000000000E9
:1032E80026DE2000060378002601B000A401200095
:1032F800CFFB97008783FB00070178000411B80013
:103308000601410000FD2F000080470010F8020070
:1033180000000000024E280000FD2F00008047003A
:1033280010F8020000000000069B040000000000E6
:103338004FBB97006130E10002003A00AA990400EF
:1033480000000000049A040000000000822D2800FC
:1033580000FD2F00008047002AF80200000000004E
:1033680026DE2000060378003600B000A401200005
:10337800CFFB97008783FB00070178000411B80092
:103388000601410000FD2F000080470010F80200F0
:1033980000000000022F280000FD2F0000804700D9
:1033A80010F802000000000026DE20000603780066
:1033B8002601B000A4012000CFFB97008783FB0003
:1033C800070178000411B8000601410000FD2F0034
:1033D8000080470010F8020000000000024E28009C
:1033E80000FD2F000080470010F8020000000000D8
:1033F8000028EF000028EC00CE9A0400000000002E
:10340800064080006130E10002003A00129A040090
:1034180000000000C69A0400000000000028EF0029
:1034280007002000E6FC2F0006834700070B780002
:10343800B04028001E86020000000000C6FC2F00D5
:1034480006834700000B78006FA397006130E10006
:1034580002003A00369A040000000000429A040074
:1034680000000000703928001E86020000000000DD
:10347800C6FC2F0006834700000B78006FA3970057
:103488006130E10002003A00509A04000000000098
:10349800C29A040000000000422D280000FD2F0001
:1034A800008047002AF802000000000026DE200005
:1034B800060378003600B000A4012000CFFB970077
:1034C8008783FB00070178000411B800060141005A
:1034D80000FD2F000080470010F8020000000000E7
:1034E800022F280000FD2F000080470010F802007E
:1034F8000000000026DE2000060378002601B00048
:10350800A4012000CFFB97008783FB000701780008
:103518000411B8000601410000FD2F00008047009B
:1035280010F8020000000000024E280000FD2F00E5
:103538000080470010F802000000000006FD2F0080
:1035480006834700C400200027DE2000A5012000D4
:1035580005017800CFFA97008582FB000500780006
:103568000200B80007004000104178004FF89700AB
:103578000080FB004285020000000000CE9A040093
:103588000000000007002000E6FC2F00068347002B
:10359800070B7800069B04000000000007002000CD
:1035A800C6FC2F0006834700070B7800069B040023
:1035B80000000000069B0400000000004FFB97007D
:1035C8000683FB000683FB006C30E100F3FF3C0040
:1035D8000660010008FF37002AFF370029FF37007F
:1035E80028FF370027FF370026FF370025FF370061
:1035F80024FF370023FF370022FF370021FF370061
:103608004BFF37006FA397006130E10002003A00DA
:10361800149B040000000000589B040000000000F8
:103628007FA397006130E10002003A00229B04006A
:1036380000000000549B04000000000006FD2F005D
:103648000683470027DE2000870378001700B000B4
:10365800A4012000CFFA97008582FB0005017800BD
:103668000411B800070141001242780027DE20004B
:10367800A501200005017800CFFA97008582FB009C
:10368800050078000200B8000700400010417800EB
:103698004FF897000080FB00428502000000000000
:1036A800629B040000000000042828001204200087
:1036B800000020001EB90200000000004F03B10006
:1036C800000006004F03B000DA9804000000000074
:1036D8004C9C04000000000017002000C6FF2F00CB
:1036E80006834700070B7800664080006130E100E0
:1036F80002003A00869B040000000000049C0400BD
:1037080000000000E6032000873924009742780073
:10371800062CE10002003A00989B0400000000001B
:10372800A09B0400000000000C28EF00D5E3A900CE
:10373800049C0400000000001602200087392400C1
:1037480097427800062CE10002003A00B29B040080
:1037580000000000CA9B04000000000007002000D1
:10376800C6FF2F0006834700070B78000C28EF00E0
:10377800D5E3A9006FB8970000007800489C0400C2
:1037880000000000049C0400000000001028EC0069
:10379800200320001008E30002003400DA9B040034
:1037A80000000000049C0400000000000E28EC004B
:1037B800300020000E08E30002003C00EA9B0400F1
:1037C80000000000F29B040000000000569E02006A
:1037D80000000000049C0400000000000700200016
:1037E800C6FF2F0006834700070B78000C28EF0060
:1037F8006FB8970000007800489C040000000000A3
:103808000C08E20002003A00109C040000000000CE
:10381800409C040000000000000020000A08E300AB
:10382800020034001E9C040000000000409C0400BC
:1038380000000000E682200006007800E88402000C
:1038480000000000C6FF2F0006834700000B780029
:103858006FBB97006130E10002003A003A9C040017
:1038680000000000409C0400000000000E28EF004B
:10387800569E0200000000006FB897000000780014
:10388800489C0400000000004F00B1000000060042
:103898004F00B000709B040000000000509E040020
:1038A800000000001700200006FD2F0006834700D7
:1038B800070B7800C6FF2F0006834700004B7800EF
:1038C800A09C04000000000067002000A6FF2F0055
:1038D80006834700074B780077002000B6FF2F00CB
:1038E80006834700074B7800B49C040000000000E2
:1038F80037002000A6FF2F0006834700074B7800FB
:1039080047002000B6FF2F0006834700074B7800CA
:10391800B49C0400000000000700200006FD2F00F2
:1039280006834700070B7800B49C040000000000E1
:10393800B49C0400000000004FFB97000683FB00C6
:103948000683FB000602780069025200E8FF320095
:1039580061025200DCFF3200909C0400000000006D
:103968000FAB97006130E10002003A00C29C0400EE
:10397800000000005E9D0400000000000613210006
:10398800060178004FF897000080FB00A886020027
:103998000000000026DE2000060378003600B00094
:1039A800A4012000CFFB97008783FB000701780064
:1039B8000411B80006014100061321000600780032
:1039C8002AF8020000000000422D280020FD2F00E8
:1039D800008047002AF802000000000006132100BA
:1039E8000601780020FD2F000080470010F8020033
:1039F80000000000022F280020FD2F000080470053
:103A080010F802000000000026DE200006037800FF
:103A18002601B000A4012000CFFB97008783FB009C
:103A2800070178000411B8000601410020FD2F00AD
:103A38000080470010F8020000000000024E280035
:103A480020FD2F000080470010F802000000000051
:103A580026FD2F000683470027DE20008703780015
:103A68001700B000A4012000CFFA97008582FB0060
:103A7800050178000411B8000701410012427800DE
:103A880027DE2000A501200005017800CFFA970065
:103A98008582FB00050078000200B800070040009E
:103AA800104178004FF897000080FB004285020023
:103AB800000000000FAB97006130E10002003A00FF
:103AC8006C9D040000000000C89D04000000000078
:103AD800622E280020FD2F00008047002AF80200EF
:103AE8000000000026052100C4002000AFFB97005D
:103AF8008783FB00070178000411B8000601410024
:103B080020FD2F000080470010F802000000000090
:103B1800122F280020FD2F000080470010F8020017
:103B28000000000026052100060378004600B000CA
:103B3800C4002000AFFB97008783FB0007017800D3
:103B48000411B8000601410020FD2F000080470045
:103B580010F8020000000000024E280020FD2F008F
:103B68000080470010F802000000000020FD2F0030
:103B7800008047001E8602000000000006FD2F009E
:103B880006834700000B78000FAB97006130E10017
:103B980002003A00D69D040000000000329E040096
:103BA80000000000622E280020FD2F000080470042
:103BB8002AF802000000000026052100C4002000A9
:103BC800BFFB97008783FB00070178000411B8004A
:103BD8000601410020FD2F000080470010F8020078
:103BE80000000000122F280020FD2F000080470051
:103BF80010F80200000000002605210006037800E6
:103C08004600B000C4002000BFFB97008783FB007C
:103C1800070178000411B8000601410020FD2F00BB
:103C28000080470010F8020000000000024E280043
:103C380020FD2F000080470010F80200000000005F
:103C480020FD2F00008047001E86020000000000B3
:103C580006FD2F0006834700000B780006FD2F00A5
:103C6800068347001600E00002003A00429E040066
:103C7800000000004C9E040000000000D42628002C
:103C880022042000000020001EB9020000000000ED
:103C98000F03B100000006000F03B000569C04009B
:103CA80000000000A29E040000000000E682200040
:103CB800060078003CF8020000000000C6FF2F0054
:103CC80006834700000B7800C9E3A900D5E3A900E3
:103CD8008639240007002000074B78006FBA970048
:103CE800E68220000601780080312400D8F702001F
:103CF8000000000086312000661E8800F7FF2F00B4
:103D08006FBB970007034300961E8800C9E3A8000D
:103D1800CBE3A8000C28EF000C28EC001028EF00DB
:103D280086392000C61E880016002000F61E88006E
:103D3800D5E3A8004F00B100000006004F00B00016
:103D48005A9E040000000000AAA004000000000021
:103D5800B8CF020000000000E9E2A900E9E2AB00E8
:103D680002003200BE9E040000000000E9E2A80044
:103D780001003700E9E2A900F000200094CF02001A
:103D88000000000000012000DECB0200000000005F
:103D980002002000000020001ECB020000000000EE
:103DA800AC820200000000000000E00002003A00BF
:103DB800E49E040000000000EE9E040000000000E5
:103DC8001453280082042000000020001EB90200BD
:103DD80000000000B8D6020000000000C6FF2F0057
:103DE80006834700000B78001600E000020032004E
:103DF800049F0400000000000E9F04000000000063
:103E0800D45D28006FB99700000020001EB9020099
:103E18000000000000002000DECB020000000000CF
:103E280007002000A6FF2F0006834700070B780035
:103E3800A70F2000A6FF2F0006834700160378006F
:103E48000730E10002003900309F04000000000044
:103E5800349F040000000000689F04000000000078
:103E680068D302000000000010012000DECB020031
:103E780000000000E9E2A900E9E2AB00020032001C
:103E88004C9F040000000000E9E2A8000100370090
:103E9800E9E2A9005FBB97001600B000D6BF9F00FB
:103EA800A70F2000A6FF2F000683470016037800FF
:103EB8000730E10002003900689F0400000000009C
:103EC800349F0400000000001000200094CF02007E
:103ED8000000000004022000C61921000601780035
:103EE800010020000000200016D1020000000000A0
:103EF800060020000600E10002003D00989F040033
:103F08000000000002022000C61921000600780007
:103F18004EDF0200000000000000E00004003A004C
:103F2800989F040000000000A49F04000000000007
:103F3800A09F040000000000AE9F040000000000E5
:103F4800645D280062042000100020001EB90200F1
:103F58000000000058CF0200000000000041B2003D
:103F68000004E00002003A00C09F040000000000C6
:103F7800CA9F040000000000B45A28007202200002
:103F8800100020001EB902000000000078C60200E0
:103F980000000000C6FF2F0006834700000B7800D2
:103FA8001600E00002003200E09F0400000000005C
:103FB80008A0040000000000470220006FBB970023
