:020000040000fa
:080000000002040000000000f2
:020000040000fa
:100400006f8d20000e7f22000e018800000000008a
:100410000c00070040ca2100010020001100070065
:10042000000020000000e000020032000000020096
:1004300000000000c6160200000000000040da00c4
:100440000000fe004440a900803d20000000e000c4
:100450000300320000002000a00188004440a800f2
:100460000000060091018800800078000000eb0089
:1004700015003700e280400032a0b4009101ba00bc
:10048000e280400032a0b4009102ba00e280400055
:1004900032a0b4000002eb00472bde00f507b200eb
:1004a000602ce10004003a000059eb008301e900f0
:1004b000fdff3e00040037006128e100010032002a
:1004c0000082eb00040007001101ba000200e00006
:1004d000e8ff3a00000006003159ba008301e90044
:1004e0000c0032002159ba008301e90008003200f3
:1004f0000400e00003003a00e280400032a0b400b3
:10050000f5ff370011d9ba008301e900faff3a007c
:100510008100e800e180400032a0b4000000060045
:100520000040da000000fe006022b8000602200051
:100530000000d0008180d2000482d2008582d200e7
:100540000000a0000202520083825a000300310022
:100550000202420083824a000000a1000603e90073
:08056000f3ff3a000000060061
:020000040000fa
:020000040002f8
:04aff800bdfa00009e
:020000040000fa
:020000040002f8
:04affc007f3f000093
:020000040000fa
:1000080090020000900200009002000090020000a0
:100018009002000090020000900200009002000090
:100028009002000090020000900200009002000080
:100038009002000090020000900200009002000070
:020000040000fa
:10058800204c000043440000204300006f6e000030
:10059800747200006f6c00006c650000722000002f
:1005a800204900006e740000657200006e61000052
:1005b8006c200000426900006173000020200000e8
:1005c8002056000042410000542000006f700000d7
:1005d8006572000061740000696f00006e20000001
:1005e800204600006f720000205000006f77000066
:1005f8006572000020660000616900006c20000040
:100608002053000069780000204300006861000062
:100618006e6e0000656c00002020000020200000a5
:10062800204400004d410000206300006f6e000070
:10063800747200006f6c00006c650000722000008e
:100648002052000054430000432000006f70000057
:100658006572000061740000696f00006e20000080
:10066800206900006e20000056420000415400003e
:10067800206d00006f64000065200000202000004d
:10068800204500006e680000616e00006365000090
:1006980064200000205000004d5000002020000081
:1006a800204d00006f640000756c0000652000009c
:1006b8002020000020200000202000002020000032
:1006c8004d690000637200006f63000068690000f4
:1006d80070200000202000002020000020200000c2
:1006e80054650000636800006e6f00006c6f0000c6
:1006f800677900002c200000496e0000632000008c
:100708005072000065730000656e00007469000097
:100718006e6700002074000068650000202000005b
:100728005049000043320000344600004a310000be
:10073800323800004741000030310000302000000e
:10074800436f00007079000072690000676800005c
:1007580074200000323000003130000020200000fa
:100768002020000020200000202000002020000081
:100778002020000020200000202000002020000071
:10078800313600002d62000069740000202000004e
:100798002020000020200000202000002020000051
:1007a8004d690000637200006f6300006f6e000007
:1007b800747200006f6c00006c650000722000000d
:1007c800313600004d49000050530000202f000032
:1007d80020330000324d0000487a0000202000003d
:1007e800322e000030560000202d0000203300007b
:1007f8002e36000056200000202000002020000097
:1008080046650000617400007572000065730000a1
:100818003a200000202000002020000020200000b6
:1008280053740000616e000064610000726400008f
:100838002044000065760000696300006520000020
:10084800496e0000747200006f6400007563000058
:10085800696e0000672000004e65000077200000e8
:10086800507200006f64000075630000742000007f
:100878004665000061740000757200006573000031
:100888003220000053500000492000006d6f000026
:10089800647500006c6500007320000020200000d3
:1008a8003220000049320000432000006d6f000034
:1008b800647500006c6500007320000020200000b3
:1008c80032200000554100005254000073200000ff
:1008d800772f0000204900007244000041200000ea
:1008e80050610000726100006c6c0000656c0000d3
:1008f80020200000202000002020000020200000f0
:10090800456e000068200000506100007261000020
:100918006c6c0000656c00002020000020200000a6
:100928004d610000737400006572000020500000e3
:100938006f720000742000002020000020200000ba
:1009480035300000306b000020730000616d00003e
:10095800706c0000652000002020000020200000ae
:10096800313000002d620000697400002041000051
:100978002f4400002020000020200000202000003c
:1009880043680000617200006765000020540000a1
:10099800696d000065200000202000002020000074
:1009a8004d6500006173000075720000656d000000
:1009b800656e000074200000556e00006974000028
:1009c800584c000050200000546500006368000087
:1009d8006e6f00006c6f0000677900002020000037
:1009e800323500006e4100002044000065650000bb
:1009f80070200000536c0000656500007020000046
:100a080032300000306b000020730000616d000080
:100a1800706c0000652000002020000020200000ed
:100a2800313200002d62000069740000204100008e
:100a38002f440000206f00007220000020200000da
:100a480035200000505700004d2000006f72000054
:100a5800202000002020000020200000202000008e
:100a68004f7500007470000075740000206300006a
:100a78006f6d0000706100007265000020200000aa
:100a880035200000496e00007075000074200000d9
:100a9800436100007074000075720000652000005a
:100aa80052650000616c00002d740000696d000043
:100ab80065200000636c00006f6300006b2000007d
:100ac800616e000064200000636100006c65000036
:100ad8006e640000617200002020000020200000e9
:100ae8005761000074630000686400006f670000cd
:100af80020540000696d000065720000202000008d
:100b08004f6e00002d63000068690000702000002f
:100b1800766f00006c7400006167000065200000bb
:100b280072650000677500006c610000746f00005a
:100b3800722000002020000020200000202000005b
:100b480035200000313600002d6200006974000075
:100b580020740000696d00006572000073200000b9
:100b6800333200002d62000069740000206f00001d
:100b780070740000696f00006e7300002020000090
:100b88004d6100006e790000206f00007363000063
:100b9800696c00006c610000746f00007220000036
:100ba8006d6f0000646500007320000020200000c5
:100bb800202000002020000020200000202000002d
:100bc800384d0000487a0000206900006e7400006b
:100bd800657200006e6100006c200000202000009b
:100be8006f730000636900006c6c000061740000a2
:100bf8006f7200002020000020200000202000004c
:100c0800506500007269000070680000657200009d
:100c1800616c000020500000696e00002020000078
:100c2800536500006c65000063740000202000001c
:100c380020200000202000002020000020200000ac
:100c480055530000422000004f6e00002d54000054
:100c5800686500002d4700006f2c00002020000070
:100c68004465000076690000636500002c200000e0
:100c7800456d000062200000486f0000737400009a
:100c88002020000045780000706c00006f720000a2
:100c9800657200002031000036200000202000008e
:100ca8000044000065760000656c00006f7000006d
:100cb8006d6500006e740000204200007264000040
:100cc800200000001f1c00001f1e00001f1e000047
:100cd8001f1f00001e1f00001e1f00000003000051
:100ce80003060000010400000602000005000000e1
:100cf80003050000000300000406000007090000c7
:100d08000a0c00000003000004060000080c0000a4
:020000040000fa
:100d18000000fa004101370031318000f0cf2f0088
:100d28000080600030318800203180002044880035
:100d380031318000f0cf2f0080806000001020004b
:100d480000807000303188002031800030448800f5
:100d580031318000f0cf2f0080806000002020001b
:100d680000807000303188002031800040448800c5
:100d78003131800000302000008070003031880060
:100d8800203180005044880031318000f0cf2f009e
:100d98000080600030318800203180006044880085
:100da80031318000f0cf2f008080600000102000db
:100db8000080700030318800203180007044880045
:100dc80031318000f0cf2f008080600000202000ab
:100dd8000080700030318800203180008044880015
:100de80031318000003020000080700030318800f0
:100df80020318000904488002144800060448000b5
:100e0800808f500005013a00314480007044800012
:100e1800808f500001013a004144800080448000e6
:100e2800808f5000fd003a005144800090448000bb
:100e3800808f5000f9003a0089c8bf000080fb008d
:100e48006101b900e0ff2f00f1ff2f000200400010
:100e5800838048000201200003002000820f500018
:100e6800838f580012003e00006001001700370011
:100e78001d00370023003700290037002f003700f6
:100e8800350037003b0037004100370008003700c5
:100e98000700370006003700050037000400370058
:100ea8000300370041003700470037004d00370086
:100eb800a0c4b30074e8b70010c6b30075e8b70063
:100ec800e0c6b30076e8b7004d00370060c4b30051
:100ed80074e8b70050c6b30075e8b70020c6b30081
:100ee80076e8b70046003700d0c4b30074e8b7000e
:100ef80010c6b30075e8b70020c7b30076e8b7009e
:100f08003f00370010c4b30074e8b70000c7b3004f
:100f180075e8b70020c7b30076e8b7003800370097
:100f2800d0c4b30074e8b70010c6b30075e8b700c2
:100f380090c7b30076e8b70031003700a0c4b3000b
:100f480074e8b70050c7b30075e8b700e0c6b3004f
:100f580076e8b7002a003700a0c4b30074e8b700e9
:100f680050c7b30075e8b700c0c6b30076e8b7004d
:100f78002300370010c4b30074e8b70050c7b300ab
:100f880075e8b70070c6b30076e8b7001c003700f4
:100f980030c5b30074e8b70050c6b30075e8b700b1
:100fa80000c7b30076e8b70015003700f0c4b300f7
:100fb80074e8b70030c6b30075e8b70040c7b3009f
:100fc80076e8b7000e003700e0c4b30074e8b70055
:100fd800f0c6b30075e8b70060c7b30076e8b7009d
:100fe8000700370040c4b30074e8b70050c6b30028
:100ff80075e8b70030c6b30076e8b7000000000017
:1010080000c2b30077e8b700c0c2b3007ae8b700ff
:1010180000c2b3007be8b70020c3b3007ce8b70088
:1010280000c3b3007de8b70088c8bf000080fb009c
:101038004400de00004078000043b00078e8b700c4
:1010480088c8bf006f4060000043b00079e8b7006f
:101058008ac8bf000080fb004400de000040780022
:101068000043b0007ee8b7008ac8bf006f40600048
:101078000043b0007fe8b70087c8bf000080fb00ce
:101088006101b9000080eb008080eb0002004000a5
:10109800838048005200200003002000820f500087
:1010a800838f580007003e00006001000c003700e5
:1010b80012003700180037001e00370024003700e0
:1010c8002a00370030c5b30064e8b70050c7b30042
:1010d80065e8b700e0c6b30066e8b7002a00370045
:1010e800d0c4b30064e8b700f0c6b30065e8b70041
:1010f800e0c6b30066e8b7002300370040c5b30078
:1011080064e8b70050c7b30065e8b70050c6b3003d
:1011180066e8b7001c00370070c5b30064e8b70084
:1011280050c6b30065e8b70040c6b30066e8b7002c
:101138001500370040c5b30064e8b70080c6b300a7
:1011480065e8b70050c7b30066e8b7000e0037007f
:1011580060c4b30064e8b70020c7b30065e8b7000f
:1011680090c6b30066e8b7000700370030c5b30083
:1011780064e8b70010c6b30065e8b70040c7b3001d
:1011880066e8b7000000000000c2b30067e8b700d7
:10119800a0c3b3006ae8b700a0c3b3006de8b70006
:1011a80086c8bf000080fb004400de0000407800d5
:1011b8000043b00068e8b70086c8bf006f40600011
:1011c8000043b00069e8b70085c8bf000080fb0095
:1011d8004400de00004078000043b0006be8b70030
:1011e80085c8bf006f4060000043b0006ce8b700de
:1011f80084c8bf000080fb004400de000040780087
:101208000043b0006ee8b70084c8bf006f406000bc
:101218000043b0006fe8b7000300370094c8bf0070
:10122800e04f5000bcfe32000080fa0000000600cb
:101238000a00fa002174200020c0b30062c4b30081
:1012480073c5b300824878008348780080487800e6
:101258000000eb00303188004901070027e6a800ac
:1012680027e6a80000c3b3000000fb004400dd002f
:101278008040780000c3b3006f40600000c0700079
:101288004047980040c3b3000000fb004400dd0065
:101298008040780030c3b3006f40600000c0700029
:1012a8005047980010c3b3000000fb004400dd0065
:1012b8008040780050c3b3006f40600000c07000e9
:1012c8006047980010c3b3000000fb004400dd0035
:1012d8008040780080c3b3006f40600000c0700099
:1012e8007047980010c3b3000000fb004400dd0005
:1012f8008040780030c3b3006f40600000c07000c9
:10130800004f9800a0c4b3000000fb006101b900c1
:10131800f0fb2f00f1ff2f000200400083804800ff
:101328002201200003002000820f5000838f580004
:1013380060003e0000600100420037005d00370099
:101348005c003700580037005a0037002a00370081
:10135800580037005700370056003700090037009b
:101368005400370053003700260037004b00370081
:10137800470037004f0037004e0037004d00370058
:101388004000370050c7b3000000fb0011062000e2
:10139800810f50000400320051072000810f5000d7
:1013a800040032004300370010c0b300004f78003b
:1013b80010003700e0c6b3000000fb00c1062000a3
:1013c800810f500007003200e1062000810f500015
:1013d800010032000600370060c0b300004f7800fb
:1013e8000300370070c0b300004f78000000000011
:1013f800000000002f00370020c0b300004f780025
:101408002c003700e0c6b3000000fb0021072000d5
:10141800810f50000400320091072000810f500016
:10142800040032002300370030c0b300004f7800ba
:101438000300370050c0b300004f780000000000e0
:101448001c00370050c7b3000000fb000107200054
:10145800810f50000400320051072000810f500016
:10146800040032001300370040c0b300004f78007a
:101478000300370080c0b300004f78000000000070
:101488000c00370090c0b300004f78000900370007
:1014980000c1b300004f78000600370010c1b30048
:1014a800004f78000300370020c1b300004f7800d8
:1014b800000000004e4090008ce8b70010c0b30058
:1014c80094e8b7005e4090008de8b70010c0b30004
:1014d80094e8b7006e4090008ee8b70010c0b300e3
:1014e80094e8b7007e40900090e8b70010c0b300c1
:1014f80094e8b7001e40780091e8b70010c0b30028
:1015080094e8b7000e48900092e8b70010c0b30006
:1015180094e8b70060002000100798000e4890007b
:101528000000fb004480de00004078000000fb0063
:101538006a00b900800078000e4890000000fb00a7
:101548006f006000008040009e0090000080400016
:10155800100798000e4890000000fb004480de0051
:10156800004078000000fb006a00b90080007800a5
:101578000e4890000000fb006f0160004000200052
:1015880080017800811f7800110009000301d8004c
:1015980001017800cf007800008040009e00900094
:1015a80000804000100798001e00fb006101b90090
:1015b8000080eb008080eb00020040008380480040
:1015c8001201200003002000820f5000838f580072
:1015d8002b003e0000600100290037001000370092
:1015e8000f003700120037001500370018003700c9
:1015f8000f0037001a0037001d00370020003700a1
:101608001f0037001e0037001d0037001c00370080
:101618001b0037001a00370001003700140037009c
:101628001e00900063004000100798001400370067
:101638001e00900066004000100798001000370058
:101648001e0090000000e800100798000c0037000a
:101658001e00900064004000100798000800370042
:101668001e0090000080e800100798000400370072
:101678001e00900065004000100798000000000060
:101688007e4090000000fb004480de0000407800af
:101698000000fb006a00b900800078007e409000de
:1016a8000000fb006f006000008040009e0090007a
:1016b80000804000100798009e00900070002000f5
:1016c80000017800110009008200d8008000fd00a8
:1016d800100798001e009000004078008fe8b700bf
:1016e80010c0b30094e8b700020007000080fa00b9
:1016f800000006000000fa002100070031318000d8
:10170800f0cf2f00008060003031880060448000f6
:101718002031880031318000f0cf2f0080806000b8
:101728000010200000807000303188007044800074
:101738002031880031318000f0cf2f008080600098
:101748000020200000807000303188008044800034
:101758002031880031318000003020000080700086
:1017680030318800904480002031880027a6a900e5
:101778000040eb0094e8b7000080fa000000060083
:101788000000fa000500fc0057052000373b8800e0
:10179800a80a2000383b880027a6a80000000000ff
:1017a800000000000080fa00000006000200fa00b5
:1017b800004f78001e407800e14f400002003a00d8
:1017c800b0c3b300004f7800c0c3b3009e40780098
:1017d80080cf500002003a000040eb00004f780034
:1017e8001e4078008080fb00a000200000017800e7
:1017f800110009008280d800004078000080fb00ba
:101808004400dd00804078009e4178000381fb00a1
:10181800a000200080017800811f780011000900d5
:101828000381d8000001780001007800cf0078001b
:101838000040780000c070008ce8b70010c0b3000a
:1018480094e8b7000080fa00000006000200fa00e1
:10185800004f78001e407800e14f400002003a0037
:10186800b0c3b300004f7800c0c3b3009e407800f7
:1018780080cf500002003a000040eb00004f780093
:101888001e4078008080fb00a00020000001780046
:10189800110009008280d800004078000080fb0019
:1018a8004400dd00804078009e4178000381fb0001
:1018b800a000200080017800811f78001100090035
:1018c8000381d8000001780001007800cf0078007b
:1018d8000040780000c070008de8b70010c0b30069
:1018e80094e8b7000080fa00000006000200fa0041
:1018f800004f78001e407800e14f400002003a0097
:1019080070c1b300004f78001e407800f84f5000b7
:1019180002003a000040eb00004f78001e407800bb
:101928008080fb00a0002000000178001100090061
:101938008280d800004078000080fb004400dd0071
:10194800804078009e4178000381fb00a0002000c1
:1019580080017800811f7800110009000381d800f8
:101968000001780001007800cf007800004078007e
:1019780000c070008ee8b70010c0b30094e8b7004c
:101988000080fa00000006001400fa000e0078003b
:101998008000b000216728000b000900315878004a
:1019a80092c8bf000080fb004400de0000407800c1
:1019b8000080fb006a00b9008000780092c8bf0070
:1019c8000080fb006f006000008040001007980056
:1019d80091c8bf000080fb004400de000040780092
:1019e8000080fb006a00b9008000780091c8bf0041
:1019f8000080fb006f006000008040002007980016
:101a080090c8bf000080fb004400de000040780062
:101a18000080fb006a00b9008000780090c8bf0011
:101a28000080fb006f0060000080400030079800d5
:101a38001e009000c200de001e00900000804000e2
:101a4800660f40002e0090000000e90000004700eb
:101a5800004890000000fb001e0f40003e00900070
:101a68001e0f40001e00900063006000e00f500051
:101a780004003a002e009000e20f500001003e00e2
:101a88001e0fe9009e007800700020000001780019
:101a9800110009008280d8008000fd00000f780046
:101aa8001e007800004078008fe8b70010c0b3002f
:101ab80094e8b7000080fa00000006001400fa005d
:101ac800205798000e0078006000b000616628007a
:101ad8000b0009003158780091c8bf000080fb0056
:101ae8004400de00004078000080fb006a00b90076
:101af8008000780091c8bf000080fb006f00600084
:101b0800008040001007980092c8bf000080fb00ca
:101b18004400de00004078000080fb006a00b90045
:101b28008000780092c8bf000080fb006f00600052
:101b380000804000200798001e0090000000e90087
:101b480000004700604090000000fb00000f780094
:101b58001e009000e20f500005003a002e00900091
:101b680063006000e00f500001003a001e0fe8001b
:101b78002e509000e04f500002003a001e007800fe
:101b8800205798002e5090000080fb009e0f5000b8
:101b98000200360010c0b300205798002e50900065
:101ba8008080fb00a00020000001780011000900df
:101bb8008280d800004078000080fb004400dd00ef
:101bc800804078002e5090000081fb00a00020008b
:101bd80080017800811f7800110009000381d80076
:101be8000001780001007800cf00780000407800fc
:101bf80000c0700090e8b70010c0b30094e8b700c8
:101c08000080fa00000006000200fa00004f780089
:101c18001e407800e04f500002003a00c0c0b300f8
:101c2800004f78001e407800ec4f5000020036004c
:101c380010c0b300004f78001e4078008080fb0081
:101c4800a000200000017800110009008280d8005f
:101c5800004078000080fb004400dd0080407800f0
:101c68009e4178000381fb00a000200080017800dd
:101c7800811f7800110009000381d8000001780055
:101c880001007800cf0078000040780000c07000a4
:101c980091e8b70010c0b30094e8b7000080fa00dc
:101ca800000006000200fa00004f78001e4078008d
:101cb800e14f400002003a0030c6b300004f780000
:101cc80040c6b3009e40780080cf500002003a0022
:101cd8000040eb00004f78001e4078008080fb0039
:101ce800a000200000017800110009008280d800bf
:101cf800004078000080fb004400dd008040780050
:101d08009e4178000381fb00a0002000800178003c
:101d1800811f7800110009000381d80000017800b4
:101d280001007800cf0078000040780000c0700003
:101d380092e8b70010c0b30094e8b70090c8bf009d
:101d48000080fb004400de00004078006a00b90013
:101d5800000078008040780090c8bf006f406000a5
:101d680000c0400055ff07000080fa000000060090
:101d78000000fa000000eb001019880050f0210064
:101d880020198800400e2800001988005000200003
:101d980040198800c642a800c662a8002ca3a90062
:101da8002c83a90050002000401988000000eb0097
:101db80080198800802520003045880040062000d2
:101dc8004045880010c0b300a4e8b7000040eb000d
:101dd800aae8b7000040eb00aee8b7000080fa00c0
:101de800000006000400fa00a4c8bf000080fb0041
:101df8006101b9000080eb008080eb000200400028
:101e0800838048003200200003002000820f500029
:101e1800838f580098003e000060010003003700df
:101e280086003700270037008400370000000000d4
:101e38000019800061006000e00f5000fcff3200d4
:101e48000018800001002000008fbe009e00900056
:101e580040ce20000088b900000178001e007800fc
:101e68006000b90000007800000141009e00780081
:101e780040ce20000008b80001014100820078002f
:101e88004609dd004a00de0000007100ca08de00d5
:101e9800008fbe001e007800a284200011c0b3008d
:101ea8007b00070000c2b3004ee8b70040002000e6
:101eb80040198800a4c8bf000040e800a4e8b700a3
:101ec8007100370000000000001980006100600008
:101ed800e00f5000fcff32000018800001002000d5
:101ee800008fbe0061458000604580004400de0030
:101ef80000805000604588009e00780060458000a2
:101f08000080400060458800604580004400de0095
:101f180001002000008fbe0000c2b30061e8b700d6
:101f28005d010700e04f5000050032003f01070047
:101f380001002000008fbe00d0c4b30061e8b700e4
:101f48004145800010c0b300e08f5000010032000e
:101f58000040eb008100e90041458800e04f500057
:101f68000d0032004006200040458800aac8bf0086
:101f78000004a200aae8b700aac8bf00e04f5000ba
:101f88000300320030c4b3005fe8b7000200370036
:101f980060c4b3005fe8b700aac8bf00e04f5000b4
:101fa800050032001e007800a285200031c0b30071
:101fb800370007001b0037001e0090006900b900b9
:101fc800000178001e0078006000b9000000780069
:101fd800000141009e007800900020000008b80031
:101fe8000101410082007800008fbe00008fbe0012
:101ff8001e00be00520020000300200048f9070020
:10200800008fbe0000142000010020001e0f4000b9
:102018005e9748001e007800a285200031c0b300fa
:102028001b0007005000200040198800a4c8bf000a
:102038000040e800a4e8b7001300370031458000ed
:1020480010c0b300e08f5000010032000040eb00e8
:102058008100e90031458800e04f50000900320056
:102068008025200030458800a4c8bf000040e80053
:10207800a4e8b7000400370010c0b300a4e8b70014
:1020880001003700000000000080fa000000060090
:102098000800fa0010079800414798003207980096
:1020a8000040eb00004f7800070037009e407800a2
:1020b8000180fb00be0090008080400000c2b30099
:1020c800804878001e4fe8001e407800e44f50001a
:1020d800f6ff36000040eb00004f78001e41780004
:1020e8008280fb004e4090000000fb00808f500073
:1020f8000c003a00be00900000c3b300804878008e
:102108003e0090000000e80030079800be009000f4
:10211800e0c2b300804878003e0090000000e8006c
:10212800300798001e4fe8009e009000803e200077
:1021380000017800110009008200d80010479800bb
:102148001e4090008000fb0080c12f000088b9006d
:10215800000078009e009000008040001007980062
:102168001e409000e04f5000080032001e409000d2
:102178000043b000be009000804878003e00900008
:102188000000e800300798000c0037001e40780077
:102198008080fb004e4090000000fb00808f5000c4
:1021a80006003500be00900000c3b30080487800e8
:1021b8003e0090000000e800300798001e417800bb
:1021c8008280fb004e4090000000fb00808f500092
:1021d80006003a00be009000e0c2b30080487800d4
:1021e8003e0090000000e800300798001e4fe8000d
:1021f8009e009000400620000001780011000900b0
:102208008200d800104798001e4090008000fb0014
:10221800c0f92f000088b900000078009e009000e7
:1022280000804000100798001e409000e04f5000ca
:10223800080032001e4090000043b000be0090002d
:10224800804878003e0090000000e80030079800c1
:102258000c0037001e4078008080fb004e40900044
:102268000000fb00808f500006003500be00900083
:1022780000c3b300804878003e0090000000e800ea
:10228800300798001e4178008280fb004e40900085
:102298000000fb00808f500006003a00be0090004e
:1022a800e0c2b300804878003e0090000000e800db
:1022b800300798001e4fe8009e009000a000200004
:1022c80000017800110009008200d800104798002a
:1022d8001e4090008000fb0060ff2f000088b900be
:1022e800000078009e0090000080400010079800d1
:1022f8001e409000e04f5000080032001e40900041
:102308000043b000be009000804878003e00900076
:102318000000e800300798000c0037001e407800e5
:102328008080fb004e4090000000fb00808f500032
:1023380006003500be00900000c3b3008048780056
:102348003e0090000000e800300798001e41780029
:102358008280fb004e4090000000fb00808f500000
:1023680006003a00be009000e0c2b3008048780042
:102378003e0090000000e800300798001e4fe8007b
:102388001e009000e00f5000090032001e0090006f
:10239800004078000043b000be00900080487800fc
:1023a8003e0090000000e800300798000c0037005d
:1023b8001e4078008080fb004e4090000000fb002b
:1023c800808f500006003500be00900000c3b300a7
:1023d800804878003e0090000000e8003007980030
:1023e8000080fa00000006000200fa006045800044
:1023f8004400de00000f78001e0078004800de0070
:10240800004078000080fb008000eb00ed0407002e
:102418001e007800004078000080fb0011002000ba
:10242800e80407000080fa00000006000200fa0035
:102438000000eb0007050700000f78001e00780079
:102448004800dd00000f780010002000010507009b
:10245800f10f2000010060001e0f7000e03d200019
:102468009e007800808f500002003600a00f2000e8
:10247800000f78001e0078000080fa0000000600b7
:102488000000fa00aec8bf000004a200aee8b70022
:102498000080fa00000006000000fa00aec8bf0085
:1024a8000080fa00000006000000fa0000c1b30036
:1024b800b4e8b70010c0b300b0e8b70020002000af
:1024c800b0458800408620009045880010c0b300c1
:1024d800bae8b7000080fa00000006000000fa0021
:1024e800d5c8bf000004a200d5e8b700d5c8bf0012
:1024f800e04f50000200320010c0b300bae8b70045
:102508000080fa00000006000000fa00d5c8bf00ed
:102518000080fa00000006000000fa00bac8bf00f8
:102528000040e800bae8b700bac8bf00e64f50005c
:102538000200360010c0b300bae8b7000080fa0005
:10254800000006000200fa00d5c8bf00e04f5000a6
:1025580036003200bac8bf00e34f50001a003e00f0
:10256800bac8bf000080fb0000004000e1672800f7
:1025780061407800004f7800070037001e4078005f
:102588008080fb00408620008080400000c2b300ad
:10259800804878001e4fe8001e4078008080fb00cd
:1025a800bac8bf000080fb00000040000000e8003f
:1025b800e2672800624078000000fb00808f50002e
:1025c800eeff350019003700bac8bf000080fb00d5
:1025d80000004000e167280061407800004f780063
:1025e800070037001e4078008080fb0040872000ed
:1025f8008080400000c2b300804878001e4fe80089
:102608001e4078008080fb00bac8bf000080fb0035
:10261800000040000000e800e267280062407800ff
:102628000000fb00808f5000eeff35000080fa00ac
:10263800000006000400fa0020479800d5c8bf0033
:10264800e04f5000880032004dfc0700bac8bf00b8
:102658000080fb00cf80de00620020000300200025
:10266800820f5000838f58007e003e0000600100fa
:102678007b003700050037001700370029003700b6
:102688003b0037004e003700610037008ec8bf009e
:102698000080fb004400de00004078006a00b900ba
:1026a80000007800804078008ec8bf006f4060004e
:1026b80000cf40002e409000e04f50000200320052
:1026c8001e4fe800010037001e4fe9001e40780049
:1026d80086fc0700630037008dc8bf000080fb0040
:1026e8004400de00004078006a00b900000078006d
:1026f800804078008dc8bf006f40600000cf400068
:102708002e409000e04f5000020032001e4fe800bb
:10271800010037001e4fe9001e4078004bfc0700ff
:10272800500037008cc8bf000080fb004400de006a
:10273800004078006a00b900000078008040780006
:102748008cc8bf006f40600000cf40002e40900052
:10275800e04f5000020032001e4fe8000100370031
:102768001e4fe9001e40780010fc07003d003700ae
:1027780091c8bf000080fb004400de0000407800e4
:102788006a00b900000078008040780091c8bf0056
:102798006f40600000cf40002e409000e04f500096
:1027a800020032001e4fe800010037001e4fe9000a
:1027b8001e40780014fd070073fc0700290037004d
:1027c80090c8bf000080fb004400de000040780095
:1027d8006a00b900000078008040780090c8bf0007
:1027e8006f40600000cf40002e409000e04f500046
:1027f800020032001e4fe800010037001e4fe900ba
:102808001e407800adfc07005ffc0700150037008c
:1028180092c8bf000080fb004400de000040780042
:102828006a00b900000078008040780092c8bf00b4
:102838006f40600000cf40002e409000e04f5000f5
:10284800020032001e4fe800010037001e4fe90069
:102858001e40780013fd07004bfc070001003700fd
:1028680000000000a3fb07000080fa00000006003b
:102878000000fa00b0c8bf000080fb006101b90089
:102888000080eb008080eb0002004000838048005d
:102898005200200003002000820f5000838f580050
:1028a80061003e000060010005003700110037009c
:1028b80029003700020037000e00370048003700b3
:1028c800b0458000e00f500004003200b0458000a1
:1028d8000000e900b04588005c003700b0c8bf00c0
:1028e8000040e800b0e8b70020002000b0458800ac
:1028f80056003700d0c8bf00e04f50004e003a00e5
:102908009045800010407800d1e8b70030c0b3008f
:10291800d0e8b700904580000000e80090458800a6
:10292800b4c8bf000040e900b4e8b700b4c8bf00ad
:10293800e04f500004003a00b0c8bf000040e80073
:10294800b0e8b70041003700b0c8bf000040e90058
:10295800b0e8b7003d003700d0c8bf00e04f5000d6
:1029680037003a0000ccb300d1e8b70060c0b3002c
:10297800d0e8b70000c1b300b4e8b700c045800094
:102988008000ea0080807000cf08de008140780077
:102998000000e900c0458800e0cf50000500320083
:1029a800d4c8bf000004a200d4e8b70000e22400a5
:1029b800c0458800d6f80700d4c8bf00e04f5000d3
:1029c80001003200dffe07004087200090458800a4
:1029d800b0c8bf000040e800b0e8b7001b003700ef
:1029e800d0c8bf00e04f500017003a0050c0b300f5
:1029f800d0e8b7000040eb00d1e8b70010c0b30042
:102a0800b0e8b70000c1b300b4e8b700d4c8bf004d
:102a1800e04f500001003200cafe07004086200047
:102a280090458800090037000040eb00b0e8b70087
:102a38000000000005003700000000000300370018
:102a48000000000001003700000000000080fa00cc
:102a5800000006000000fa00d0c8bf000080fb009c
:102a68006101b9000080eb008080eb0002004000ab
:102a7800838048007204200003002000820f500069
:102a8800838f5800ba003e000060010047003700fd
:102a9800500037005c0037006700370071003700ce
:102aa8007b003700b2003700b1003700b0003700b4
:102ab800af003700ae003700ad003700ac0037007c
:102ac800ab003700aa003700a9003700a80037007c
:102ad800a7003700a6003700a5003700a40037007c
:102ae800a3003700a2003700a1003700a00037007c
:102af8009f0037009e0037009d0037009c0037007c
:102b08009b0037009a00370099003700980037007b
:102b1800970037009600370095003700940037007b
:102b2800930037009200370091003700900037007b
:102b38008f0037008e0037008d0037008c0037007b
:102b48008b0037008a00370089003700880037007b
:102b5800870037008600370085003700840037007b
:102b6800830037008200370081003700800037007b
:102b78007f0037007e0037007d0037007c0037007b
:102b88007b0037007a0037004b00370055003700cc
:102b9800490037005b003700470037006100370005
:102ba80045003700670037006e0037007046800028
:102bb800e00f500004003200704680000000e90079
:102bc800704688006d0037000040eb00d0e8b70081
:102bd8006a003700f03b280000308800f03f2000f2
:102be8001030880010002000603088000000eb00e2
:102bf8002030880000c4b300d0e8b700007d200072
:102c0800704688005d00370010c0b300d0e8b700f8
:102c1800a0002000704688001000200020308800a6
:102c2800d1c8bf000080fb0040308800d1c8bf0079
:102c38007e0207005100370010c0b300d0e8b7008b
:102c480060092000704688000000eb0020308800f2
:102c58001000200040308800d0c0b3007302070085
:102c68004600370010c0b300d0e8b7006009200064
:102c7800704688000000eb0020308800200020000b
:102c880040308800d0c0b300680207003b0037001e
:102c980010c0b300d0e8b700a0002000704688003c
:102ca8000000eb0020308800d1c8bf000080fb0086
:102cb800403088003100370070468000e00f500037
:102cc80004003200704680000000e9007046880069
:102cd8002a003700d0c8bf000040e800d0e8b7009d
:102ce80026003700d0c8bf000040e800d0e8b70091
:102cf800a000200070468800c003200040308800f3
:102d08001e003700d0c8bf000040e800d0e8b70078
:102d1800a000200070468800c000200040308800d5
:102d280016003700d0c8bf000040e800d0e8b70060
:102d3800600920007046880010002000403088009c
:102d48000e003700d0c8bf000040e800d0e8b70048
:102d5800600920007046880060002000403088002c
:102d6800060037000040eb00d0e8b700030037004a
:102d78000040eb00d0e8b700000000000080fa0037
:102d8800000006000000fa000040eb00d2e8b7009f
:102d98000080eb00601988007b0307007d030700b3
:102da8003a0307007f020700120207005d030700cd
:102db80020c0b300d0e8b70023010700ecfb0700f0
:102dc800890007001af90700050037000000000015
:102dd8000300370000000000010037000000000079
:102de8001cff0700fffb07005c030700e04f5000d3
:102df800f6ff32001f010700d2c8bf000080fb00a9
:102e0800e10f500008003200e20f500004003200c9
:102e1800e00f500006003a00850007000600370062
:102e280093fe0700040037009001070002003700f6
:102e38000040eb00d2e8b700d04480006800600092
:102e4800e00f500025003200affd0700e04f5000b2
:102e58001b003a00d2c8bf000040e800d2e8b70023
:102e6800d2c8bf00e24f5000020036000040eb001d
:102e7800d2e8b700d2c8bf000080fb00e10f5000c5
:102e880008003200e20f500004003200e00f50004a
:102e980006003a005d0007000600370082fd0700c3
:102ea8000400370066010700020037000040eb000d
:102eb800d2e8b70040c0b300d0e8b700030037003d
:102ec80095fd070001003700ea000700d0448000a4
:102ed80068006000e00f5000fbff3a00d2c8bf0056
:102ee800e24f500026003a00d044800061006000a4
:102ef800e00f50000700320078fd0700010037009e
:102f0800dc000700d044800061006000e00f500042
:102f1800fbff3a007cfd0700e04f5000180032002c
:102f2800d044800062006000e00f500008003200ca
:102f380010c0b300bffd070001003700cd00070037
:102f4800d044800062006000e00f5000fbff3a00b0
:102f5800d044800064006000e00f50000800320098
:102f68000040eb00b3fd070001003700c100070077
:102f7800d044800064006000e00f5000fbff3a007e
:102f8800d2c8bf00e14f500092ff3a00d044800001
:102f980062006000e00f50000700320038fd0700b3
:102fa80001003700b3000700d044800062006000d1
:102fb800e00f5000fbff3a00d0448000640060003e
:102fc800e00f500085ff320007fd070001003700c1
:102fd800a8000700d044800064006000e00f5000a3
:102fe800fbff3a007eff37000000fa0030c0b30054
:102ff800bde8b70000c2b300bce8b700007d200000
:10300800104688000080fa00000006000000fa0060
:1030180090c0b300bde8b7000040eb00bce8b700c3
:1030280040012000104688000080fa0000000600d9
:103038000000fa00bdc8bf000080fb006101b900b4
:10304800d0ff2f00f1ff2f000200400083804800ce
:103058006200200003002000820f5000838f580078
:103068006b003e00006001002800370005003700b3
:10307800110037003c003700020037000e0037000f
:103088005000370020468000e00f50000400320056
:10309800204680000000e9002046880068003700cc
:1030a800bdc8bf000040e800bde8b7001000200020
:1030b8002046880062003700d0c8bf00e04f5000ab
:1030c80056003a00f045800010407800d1e8b7007b
:1030d80030c0b300d0e8b700f04580000000e80039
:1030e800f0458800c0c8bf000040e900c0e8b7004c
:1030f800c0c8bf00e04f50004a003a00bdc8bf003a
:103108000040e800bde8b7004d003700d0c8bf0058
:10311800e04f500045003a0050c0b300d0e8b70077
:103128000040eb00d1e8b700bcc8bf000080fb003e
:1031380080004000008020000080400010007800df
:10314800f0458800bcc8bf000040e800bce8b700f4
:1031580000c1b300c0e8b700bdc8bf000040e80028
:10316800bde8b70036003700d0c8bf00e04f5000b8
:1031780030003a0000ccb300d1e8b70060c0b3001b
:10318800d0e8b700bcc8bf000080fb00800040004a
:10319800008020000080400010007800f045880082
:1031a800bcc8bf000040e800bce8b70000c1b300dd
:1031b800c0e8b700bdc8bf000040e800bde8b700e0
:1031c8001f003700104680008000ea0080807000f1
:1031d800cf08de00814078000000e9001046880032
:1031e800e0cf500015003a00bcc8bf00ff4f5000a8
:1031f800020036000040eb00bce8b700007d20006c
:103208001046880030c0b300bde8b7000c00370096
:1032180030c0b300bde8b700090037000000000067
:10322800070037000000000005003700000000001c
:103238000300370000000000010037000000000014
:103248000080fa00000006000000fa0000c8b30081
:1032580096e8b70000c8b30097e8b70000c8b30005
:1032680098e8b70000c8b30099e8b7000080fa00f2
:10327800000006000000fa00a116800000042000eb
:1032880000806000e00f50000c003a0096c8bf00b4
:103298000040e80096e8b700618920009140780076
:1032a80040c9b30080cf50000f00360040c9b300ba
:1032b80096e8b7009a08a8000b00370096c8bf0028
:1032c8000040e90096e8b700618920009140780045
:1032d800b0c6b30080cf500003003e00c0c6b300a4
:1032e80096e8b7009a08a900a116800000082000f7
:1032f80000806000e00f50000c003a0097c8bf0043
:103308000040e80097e8b7007189200091407800f4
:1033180040c9b30080cf50000f00360040c9b30049
:1033280097e8b7009a28a8000b00370097c8bf0095
:103338000040e90097e8b7007189200091407800c3
:10334800b0c6b30080cf500003003e00c0c6b30033
:1033580097e8b7009a28a9001116800000082000f5
:1033680000806000e00f50000c003a0098c8bf00d1
:103378000040e80098e8b700818920009140780073
:1033880040c9b30080cf50000f00360040c9b300d9
:1033980098e8b7009a48a8000b00370098c8bf0003
:1033a8000040e90098e8b700818920009140780042
:1033b800b0c6b30080cf500003003e00c0c6b300c3
:1033c80098e8b7009a48a900a116800000002200da
:1033d80000806000e00f50000c003a0099c8bf0060
:1033e8000040e80099e8b7009189200091407800f2
:1033f80040c9b30080cf50000f00360040c9b30069
:1034080099e8b7009a68a8000b00370099c8bf0070
:103418000040e90099e8b7009189200091407800c0
:10342800b0c6b30080cf500003003e00c0c6b30052
:1034380099e8b7009a68a9000080fa000000060021
:103448000000fa0000c1b300cae8b70010c0b3001a
:10345800c6e8b700200020006046880040842000ad
:10346800404688000080fa00000006000000fa00cc
:10347800c6c8bf000080fb006101b9000080eb00f6
:103488008080eb000200400083804800520020004a
:1034980003002000820f5000838f58004a003e002e
:1034a80000600100050037001100370029003700cf
:1034b800020037000e0037003500370060468000f4
:1034c800e00f500004003200604680000000e90070
:1034d8006046880045003700c6c8bf000040e800c5
:1034e800c6e8b70020002000604688003f0037008b
:1034f800d0c8bf00e04f500037003a004046800077
:1035080010407800d1e8b70030c0b300d0e8b70069
:10351800404680000000e80040468800cac8bf0056
:103528000040e900cae8b700cac8bf00e04f500031
:1035380004003a00c6c8bf000040e800c6e8b7006b
:103548002a003700c6c8bf000040e900c6e8b70037
:1035580026003700d0c8bf00e04f500020003a00d6
:1035680000ccb300d1e8b70060c0b300d0e8b70022
:1035780000c1b300cae8b700408520004046880073
:10358800c6c8bf000040e800c6e8b700170037000b
:10359800d0c8bf00e04f500013003a0050c0b3003d
:1035a800d0e8b7000040eb00d1e8b70010c0b30086
:1035b800c6e8b70000c1b300cae8b70040842000dd
:1035c80040468800090037000040eb00c6e8b70015
:1035d800000000000500370000000000030037006d
:1035e8000000000001003700000000000080fa0021
:1035f800000006000000fa00dea2a900de82a80092
:10360800c0002000c01188000000eb008011880075
:103618000000eb009011880031e2a8003342a800b6
:1036280087c0a9000080fa00000006000200fa0026
:10363800004f780000000000911180000020200059
:1036480000806000e00f5000fbff3a001e00fb0006
:10365800a01188000080fa00000006000000fa00af
:10366800310480000000240000806000e00f50005a
:103678000200320010c0b300010037000040eb0028
:103688000080fa00000006000200fa0000000000b6
:10369800310480000000240000806000e00f50002a
:1036a800fbff3200b0118000004f780087c0a900ee
:1036b8001e4078000080fa00000006000400fa00ae
:1036c800204798002e409000004f780030c6b30085
:1036d8009e40780080cf5000090036001e417800d7
:1036e8008280fb00400620000001780011000900dc
:1036f8008280d800004078000043b000cbff07006c
:103708001e4078008080fb00400620000001780001
:10371800110009008280d80000407800c1f92f000c
:103728000180b90000007800004078001e4f40007a
:103738001e407800e94f5000090036001e4078000e
:103748008080fb00a0002000000178001100090023
:103758008280d800004078000043b000b3ff070023
:103768001e4078008080fb00a00020000001780047
:10377800110009008280d8000040780061ff2f0006
:103788000180b90000007800004078001e4f40001a
:1037980001c3b3001ec04000a4ff07000080fa0068
:1037a800000006000000fa00d582a800d382a90014
:1037b800e4c2a900e502a900e4e2a8000080fa003a
:1037c800000006000600fa0010079800210798007c
:1037d8003d000700d582a90020002000bc0007009a
:1037e800c7000700401380002e0090004800de004c
:1037f800004078000080fb00b5000700c00007000b
:10380800401380002e009000004078000080fb00ec
:10381800af000700ba000700401380001e009000a8
:10382800ab000700b600070040138000d582a8004f
:10383800000000000e0078002c0007001e407800f1
:1038480061406000e04f5000faff3a000080fa0043
:10385800000006000400fa0010079800d582a900ad
:10386800300020009a000700a500070040138000e0
:103878001e0090004800de00004078000080fb0039
:10388800930007009e000700401380001e00900070
:10389800004078000080fb008d00070098000700ba
:1038a800401380000000eb00890007009400070027
:1038b80040138000000f7800d582a8001e00780011
:1038c8000080fa00000006000000fa00d582a90076
:1038d800600020007e000700890007004013800078
:1038e800d582a8000080fa00000006000200fa0055
:1038f800881f780000047800d582a90050002000b5
:10390800730007007e000700401380000000eb00f2
:103918006f0007007a00070040138000004f78000e
:10392800d582a8000040eb00004c78001e4c7800bf
:10393800080078004f0478000080fa0000000600b4
:020000040000fa
:10394800440800002000000002000000566f6c00d0
:10395800203d20002020200020205600202020008c
:1039680020546d0070203d002020200020202000e1
:103978004320200020200000a40800000c000000c4
:1039880000000000000800004400000002000000e1
:1039980064837400838483009483a40083b48300c5
:1039a800c483d40083e48300f48304008474850012
:1039b800448454008464840044852400853485004c
:1039c80074849400845485006485a40085b48500bb
:1039d800a484b400848485009485c40085d48500bb
:1039e800e485f4008544860055860000bc08000084
:1039f8000a00000000000000d208000002000000d9
:103a08000000000084080000120000000000000010
:103a180064080000200000000200000020202000b0
:103a2800202020002020200020202000202020000e
:103a380020202000202020002020200020202000fe
:103a48002020200020200000b00800000c0000000a
:103a580000000000d408000002000000020000007e
:103a680000000000c6080000080000000000000078
:103a7800ce080000040000000000000096080000c6
:0c3a88000e000000000000000000000024
:020000040000fa
:103a94000000fa000000eb00001388000000eb00b7
:103aa4001013880062a2a8000000eb002013880015
:103ab4006342a9006302a90062c2a8006322a800ad
:103ac4009820a9008820a90061e2a8000080fa00db
:103ad400000006000200fa00000f78000000000059
:103ae4000013800062006000e00f5000fcff3a0009
:103af4001e007800401388000000eb000080fa00ec
:103b0400000006000000fa0000000000001380001e
:103b140061006000e00f5000fcff32000000eb0089
:103b24000080fa00000006000000fa00f02f2000d8
:103b34001008880021058000f0ff280080806000c4
:103b44000000250000807000200588000001280086
:103b5400200888008460a9000080fa0000000600a4
:103b64000000fa002004800068006000e00f5000ac
:103b7400030032008460a90010c0b30001003700c4
:103b84000040eb000080fa00000006000000fa008c
:103b94000080fa00000006000000fa0021742000f2
:103ba400620420007305200082487800834878006e
:103bb40042c7a8000080fa00000006000000fa00d6
:103bc40021742000620420007305200082487800dc
:103bd4008348780042c7a9000080fa00000006006c
:00000001FF
